{
  "_format": "hh-sol-artifact-1",
  "contractName": "CampaignFactory",
  "sourceName": "contracts/Campaign.sol",
  "abi": [
    {
      "inputs": [
        {
          "internalType": "string",
          "name": "name",
          "type": "string"
        },
        {
          "internalType": "uint256",
          "name": "minimum",
          "type": "uint256"
        }
      ],
      "name": "createCampaign",
      "outputs": [],
      "stateMutability": "nonpayable",
      "type": "function"
    },
    {
      "inputs": [
        {
          "internalType": "uint256",
          "name": "",
          "type": "uint256"
        }
      ],
      "name": "deployedCampaigns",
      "outputs": [
        {
          "internalType": "address",
          "name": "",
          "type": "address"
        }
      ],
      "stateMutability": "view",
      "type": "function"
    },
    {
      "inputs": [],
      "name": "getDeployedCampaigns",
      "outputs": [
        {
          "internalType": "address[]",
          "name": "",
          "type": "address[]"
        }
      ],
      "stateMutability": "view",
      "type": "function"
    }
  ],
  "bytecode": "0x608060405234801561001057600080fd5b50611e0e806100206000396000f3fe60806040523480156200001157600080fd5b5060043610620000465760003560e01c8063339d50a5146200004b5780634acb9d4f1462000081578063f102a67c14620000a3575b600080fd5b6200006960048036038101906200006391906200032d565b620000c3565b60405162000078919062000451565b60405180910390f35b6200008b62000103565b6040516200009a91906200046e565b60405180910390f35b620000c16004803603810190620000bb9190620002d3565b62000193565b005b60008181548110620000d457600080fd5b906000526020600020016000915054906101000a900473ffffffffffffffffffffffffffffffffffffffff1681565b606060008054806020026020016040519081016040528092919081815260200182805480156200018957602002820191906000526020600020905b8160009054906101000a900473ffffffffffffffffffffffffffffffffffffffff1673ffffffffffffffffffffffffffffffffffffffff16815260200190600101908083116200013e575b5050505050905090565b6000828233604051620001a6906200023c565b620001b49392919062000492565b604051809103906000f080158015620001d1573d6000803e3d6000fd5b5090506000819080600181540180825580915050600190039060005260206000200160009091909190916101000a81548173ffffffffffffffffffffffffffffffffffffffff021916908373ffffffffffffffffffffffffffffffffffffffff160217905550505050565b61173b806200069e83390190565b6000620002616200025b84620004ff565b620004d6565b9050828152602081018484840111156200027a57600080fd5b62000287848285620005c8565b509392505050565b600082601f830112620002a157600080fd5b8135620002b38482602086016200024a565b91505092915050565b600081359050620002cd8162000683565b92915050565b60008060408385031215620002e757600080fd5b600083013567ffffffffffffffff8111156200030257600080fd5b62000310858286016200028f565b92505060206200032385828601620002bc565b9150509250929050565b6000602082840312156200034057600080fd5b60006200035084828501620002bc565b91505092915050565b600062000367838362000373565b60208301905092915050565b6200037e816200058a565b82525050565b6200038f816200058a565b82525050565b6000620003a28262000545565b620003ae818562000568565b9350620003bb8362000535565b8060005b83811015620003f2578151620003d6888262000359565b9750620003e3836200055b565b925050600181019050620003bf565b5085935050505092915050565b60006200040c8262000550565b62000418818562000579565b93506200042a818560208601620005d7565b620004358162000672565b840191505092915050565b6200044b81620005be565b82525050565b600060208201905062000468600083018462000384565b92915050565b600060208201905081810360008301526200048a818462000395565b905092915050565b60006060820190508181036000830152620004ae8186620003ff565b9050620004bf602083018562000440565b620004ce604083018462000384565b949350505050565b6000620004e2620004f5565b9050620004f082826200060d565b919050565b6000604051905090565b600067ffffffffffffffff8211156200051d576200051c62000643565b5b620005288262000672565b9050602081019050919050565b6000819050602082019050919050565b600081519050919050565b600081519050919050565b6000602082019050919050565b600082825260208201905092915050565b600082825260208201905092915050565b600062000597826200059e565b9050919050565b600073ffffffffffffffffffffffffffffffffffffffff82169050919050565b6000819050919050565b82818337600083830152505050565b60005b83811015620005f7578082015181840152602081019050620005da565b8381111562000607576000848401525b50505050565b620006188262000672565b810181811067ffffffffffffffff821117156200063a576200063962000643565b5b80604052505050565b7f4e487b7100000000000000000000000000000000000000000000000000000000600052604160045260246000fd5b6000601f19601f8301169050919050565b6200068e81620005be565b81146200069a57600080fd5b5056fe60806040523480156200001157600080fd5b506040516200173b3803806200173b8339818101604052810190620000379190620001f1565b80600160006101000a81548173ffffffffffffffffffffffffffffffffffffffff021916908373ffffffffffffffffffffffffffffffffffffffff160217905550826005908051906020019062000090929190620000a1565b508160028190555050505062000442565b828054620000af9062000333565b90600052602060002090601f016020900481019282620000d357600085556200011f565b82601f10620000ee57805160ff19168380011785556200011f565b828001600101855582156200011f579182015b828111156200011e57825182559160200191906001019062000101565b5b5090506200012e919062000132565b5090565b5b808211156200014d57600081600090555060010162000133565b5090565b600062000168620001628462000289565b62000260565b9050828152602081018484840111156200018157600080fd5b6200018e848285620002fd565b509392505050565b600081519050620001a7816200040e565b92915050565b600082601f830112620001bf57600080fd5b8151620001d184826020860162000151565b91505092915050565b600081519050620001eb8162000428565b92915050565b6000806000606084860312156200020757600080fd5b600084015167ffffffffffffffff8111156200022257600080fd5b6200023086828701620001ad565b93505060206200024386828701620001da565b9250506040620002568682870162000196565b9150509250925092565b60006200026c6200027f565b90506200027a828262000369565b919050565b6000604051905090565b600067ffffffffffffffff821115620002a757620002a6620003ce565b5b620002b282620003fd565b9050602081019050919050565b6000620002cc82620002d3565b9050919050565b600073ffffffffffffffffffffffffffffffffffffffff82169050919050565b6000819050919050565b60005b838110156200031d57808201518184015260208101905062000300565b838111156200032d576000848401525b50505050565b600060028204905060018216806200034c57607f821691505b602082108114156200036357620003626200039f565b5b50919050565b6200037482620003fd565b810181811067ffffffffffffffff82111715620003965762000395620003ce565b5b80604052505050565b7f4e487b7100000000000000000000000000000000000000000000000000000000600052602260045260246000fd5b7f4e487b7100000000000000000000000000000000000000000000000000000000600052604160045260246000fd5b6000601f19601f8301169050919050565b6200041981620002bf565b81146200042557600080fd5b50565b6200043381620002f3565b81146200043f57600080fd5b50565b6112e980620004526000396000f3fe6080604052600436106100a75760003560e01c806381d12c581161006457806381d12c58146101c157806382fde09314610203578063c77412651461022e578063d7bb99ba14610257578063d7d1bbdb14610261578063da59cf761461028a576100a7565b806303441006146100ac57806306fdde03146100d55780630a144391146101005780633410452a1461013d578063481c6a75146101685780635a9b0b8914610193575b600080fd5b3480156100b857600080fd5b506100d360048036038101906100ce9190610c9e565b6102b5565b005b3480156100e157600080fd5b506100ea610490565b6040516100f79190610ddb565b60405180910390f35b34801561010c57600080fd5b5061012760048036038101906101229190610be2565b61051e565b6040516101349190610dc0565b60405180910390f35b34801561014957600080fd5b5061015261053e565b60405161015f9190610ecc565b60405180910390f35b34801561017457600080fd5b5061017d61054a565b60405161018a9190610da5565b60405180910390f35b34801561019f57600080fd5b506101a8610570565b6040516101b89493929190610ee7565b60405180910390f35b3480156101cd57600080fd5b506101e860048036038101906101e39190610c9e565b610591565b6040516101fa96959493929190610dfd565b60405180910390f35b34801561020f57600080fd5b5061021861071a565b6040516102259190610ecc565b60405180910390f35b34801561023a57600080fd5b5061025560048036038101906102509190610c0b565b610720565b005b61025f61087f565b005b34801561026d57600080fd5b5061028860048036038101906102839190610c9e565b610935565b005b34801561029657600080fd5b5061029f610aa7565b6040516102ac9190610ecc565b60405180910390f35b600160009054906101000a900473ffffffffffffffffffffffffffffffffffffffff1673ffffffffffffffffffffffffffffffffffffffff163373ffffffffffffffffffffffffffffffffffffffff1614610345576040517f08c379a000000000000000000000000000000000000000000000000000000000815260040161033c90610e6c565b60405180910390fd5b6000808281548110610380577f4e487b7100000000000000000000000000000000000000000000000000000000600052603260045260246000fd5b90600052602060002090600602019050600260045461039f9190610f9e565b8160040154116103e4576040517f08c379a00000000000000000000000000000000000000000000000000000000081526004016103db90610e8c565b60405180910390fd5b8060030160149054906101000a900460ff161561040057600080fd5b8060030160009054906101000a900473ffffffffffffffffffffffffffffffffffffffff1673ffffffffffffffffffffffffffffffffffffffff166108fc82600201549081150290604051600060405180830381858888f1935050505015801561046e573d6000803e3d6000fd5b5060018160030160146101000a81548160ff0219169083151502179055505050565b6005805461049d9061106b565b80601f01602080910402602001604051908101604052809291908181526020018280546104c99061106b565b80156105165780601f106104eb57610100808354040283529160200191610516565b820191906000526020600020905b8154815290600101906020018083116104f957829003601f168201915b505050505081565b60036020528060005260406000206000915054906101000a900460ff1681565b60008080549050905090565b600160009054906101000a900473ffffffffffffffffffffffffffffffffffffffff1681565b60008060008060025447600080549050600454935093509350935090919293565b600081815481106105a157600080fd5b90600052602060002090600602016000915090508060000180546105c49061106b565b80601f01602080910402602001604051908101604052809291908181526020018280546105f09061106b565b801561063d5780601f106106125761010080835404028352916020019161063d565b820191906000526020600020905b81548152906001019060200180831161062057829003601f168201915b5050505050908060010180546106529061106b565b80601f016020809104026020016040519081016040528092919081815260200182805461067e9061106b565b80156106cb5780601f106106a0576101008083540402835291602001916106cb565b820191906000526020600020905b8154815290600101906020018083116106ae57829003601f168201915b5050505050908060020154908060030160009054906101000a900473ffffffffffffffffffffffffffffffffffffffff16908060030160149054906101000a900460ff16908060040154905086565b60045481565b600160009054906101000a900473ffffffffffffffffffffffffffffffffffffffff1673ffffffffffffffffffffffffffffffffffffffff163373ffffffffffffffffffffffffffffffffffffffff16146107b0576040517f08c379a00000000000000000000000000000000000000000000000000000000081526004016107a790610e6c565b60405180910390fd5b6000806001816001815401808255809150500390600052602060002090600602019050848160000190805190602001906107eb929190610aad565b5083816001019080519060200190610804929190610aad565b50828160020181905550818160030160006101000a81548173ffffffffffffffffffffffffffffffffffffffff021916908373ffffffffffffffffffffffffffffffffffffffff16021790555060008160030160146101000a81548160ff021916908315150217905550600081600401819055505050505050565b60025434116108c3576040517f08c379a00000000000000000000000000000000000000000000000000000000081526004016108ba90610eac565b60405180910390fd5b6001600360003373ffffffffffffffffffffffffffffffffffffffff1673ffffffffffffffffffffffffffffffffffffffff16815260200190815260200160002060006101000a81548160ff0219169083151502179055506004600081548092919061092e906110ce565b9190505550565b6000808281548110610970577f4e487b7100000000000000000000000000000000000000000000000000000000600052603260045260246000fd5b90600052602060002090600602019050600360003373ffffffffffffffffffffffffffffffffffffffff1673ffffffffffffffffffffffffffffffffffffffff16815260200190815260200160002060009054906101000a900460ff166109d657600080fd5b8060050160003373ffffffffffffffffffffffffffffffffffffffff1673ffffffffffffffffffffffffffffffffffffffff16815260200190815260200160002060009054906101000a900460ff1615610a2f57600080fd5b60018160050160003373ffffffffffffffffffffffffffffffffffffffff1673ffffffffffffffffffffffffffffffffffffffff16815260200190815260200160002060006101000a81548160ff021916908315150217905550806004016000815480929190610a9e906110ce565b91905055505050565b60025481565b828054610ab99061106b565b90600052602060002090601f016020900481019282610adb5760008555610b22565b82601f10610af457805160ff1916838001178555610b22565b82800160010185558215610b22579182015b82811115610b21578251825591602001919060010190610b06565b5b509050610b2f9190610b33565b5090565b5b80821115610b4c576000816000905550600101610b34565b5090565b6000610b63610b5e84610f51565b610f2c565b905082815260208101848484011115610b7b57600080fd5b610b86848285611029565b509392505050565b600081359050610b9d81611285565b92915050565b600082601f830112610bb457600080fd5b8135610bc4848260208601610b50565b91505092915050565b600081359050610bdc8161129c565b92915050565b600060208284031215610bf457600080fd5b6000610c0284828501610b8e565b91505092915050565b60008060008060808587031215610c2157600080fd5b600085013567ffffffffffffffff811115610c3b57600080fd5b610c4787828801610ba3565b945050602085013567ffffffffffffffff811115610c6457600080fd5b610c7087828801610ba3565b9350506040610c8187828801610bcd565b9250506060610c9287828801610b8e565b91505092959194509250565b600060208284031215610cb057600080fd5b6000610cbe84828501610bcd565b91505092915050565b610cd081610fe1565b82525050565b610cdf81610fcf565b82525050565b610cee81610ff3565b82525050565b6000610cff82610f82565b610d098185610f8d565b9350610d19818560208601611038565b610d22816111d3565b840191505092915050565b6000610d3a601483610f8d565b9150610d45826111e4565b602082019050919050565b6000610d5d602c83610f8d565b9150610d688261120d565b604082019050919050565b6000610d80601c83610f8d565b9150610d8b8261125c565b602082019050919050565b610d9f8161101f565b82525050565b6000602082019050610dba6000830184610cd6565b92915050565b6000602082019050610dd56000830184610ce5565b92915050565b60006020820190508181036000830152610df58184610cf4565b905092915050565b600060c0820190508181036000830152610e178189610cf4565b90508181036020830152610e2b8188610cf4565b9050610e3a6040830187610d96565b610e476060830186610cc7565b610e546080830185610ce5565b610e6160a0830184610d96565b979650505050505050565b60006020820190508181036000830152610e8581610d2d565b9050919050565b60006020820190508181036000830152610ea581610d50565b9050919050565b60006020820190508181036000830152610ec581610d73565b9050919050565b6000602082019050610ee16000830184610d96565b92915050565b6000608082019050610efc6000830187610d96565b610f096020830186610d96565b610f166040830185610d96565b610f236060830184610d96565b95945050505050565b6000610f36610f47565b9050610f42828261109d565b919050565b6000604051905090565b600067ffffffffffffffff821115610f6c57610f6b6111a4565b5b610f75826111d3565b9050602081019050919050565b600081519050919050565b600082825260208201905092915050565b6000610fa98261101f565b9150610fb48361101f565b925082610fc457610fc3611146565b5b828204905092915050565b6000610fda82610fff565b9050919050565b6000610fec82610fff565b9050919050565b60008115159050919050565b600073ffffffffffffffffffffffffffffffffffffffff82169050919050565b6000819050919050565b82818337600083830152505050565b60005b8381101561105657808201518184015260208101905061103b565b83811115611065576000848401525b50505050565b6000600282049050600182168061108357607f821691505b6020821081141561109757611096611175565b5b50919050565b6110a6826111d3565b810181811067ffffffffffffffff821117156110c5576110c46111a4565b5b80604052505050565b60006110d98261101f565b91507fffffffffffffffffffffffffffffffffffffffffffffffffffffffffffffffff82141561110c5761110b611117565b5b600182019050919050565b7f4e487b7100000000000000000000000000000000000000000000000000000000600052601160045260246000fd5b7f4e487b7100000000000000000000000000000000000000000000000000000000600052601260045260246000fd5b7f4e487b7100000000000000000000000000000000000000000000000000000000600052602260045260246000fd5b7f4e487b7100000000000000000000000000000000000000000000000000000000600052604160045260246000fd5b6000601f19601f8301169050919050565b7f4f6e6c79206d616e6167657220616c6c6f776564000000000000000000000000600082015250565b7f4e6f7420656e6f7567682070656f706c65206861766520617070726f7665642060008201527f7468697320726571756573740000000000000000000000000000000000000000602082015250565b7f4d696e696d756d20636f6e747269627574696f6e206e6f74206d657400000000600082015250565b61128e81610fcf565b811461129957600080fd5b50565b6112a58161101f565b81146112b057600080fd5b5056fea26469706673582212203f373853257d6ce6ebeee83b70376a50927e828336e1ed1418f2738c9bedd3c064736f6c63430008040033a2646970667358221220472217a011347ec390cbb39d11dd82fc496f5bc1aa85fb5d0bc9e4028c9739f364736f6c63430008040033",
  "linkReferences": {},
  "deployedLinkReferences": {}
}