{
  "_format": "hh-sol-artifact-1",
  "contractName": "CampaignFactory",
  "sourceName": "contracts/Campaign.sol",
  "abi": [
    {
      "inputs": [
        {
          "internalType": "string",
          "name": "name",
          "type": "string"
        },
        {
          "internalType": "uint256",
          "name": "minimum",
          "type": "uint256"
        }
      ],
      "name": "createCampaign",
      "outputs": [],
      "stateMutability": "nonpayable",
      "type": "function"
    },
    {
      "inputs": [
        {
          "internalType": "uint256",
          "name": "",
          "type": "uint256"
        }
      ],
      "name": "deployedCampaigns",
      "outputs": [
        {
          "internalType": "address",
          "name": "",
          "type": "address"
        }
      ],
      "stateMutability": "view",
      "type": "function"
    },
    {
      "inputs": [],
      "name": "getDeployedCampaigns",
      "outputs": [
        {
          "internalType": "address[]",
          "name": "",
          "type": "address[]"
        }
      ],
      "stateMutability": "view",
      "type": "function"
    }
  ],
  "bytecode": "0x608060405234801561001057600080fd5b50611d6f806100206000396000f3fe60806040523480156200001157600080fd5b5060043610620000465760003560e01c8063339d50a5146200004b5780634acb9d4f1462000081578063f102a67c14620000a3575b600080fd5b6200006960048036038101906200006391906200032d565b620000c3565b60405162000078919062000451565b60405180910390f35b6200008b62000103565b6040516200009a91906200046e565b60405180910390f35b620000c16004803603810190620000bb9190620002d3565b62000193565b005b60008181548110620000d457600080fd5b906000526020600020016000915054906101000a900473ffffffffffffffffffffffffffffffffffffffff1681565b606060008054806020026020016040519081016040528092919081815260200182805480156200018957602002820191906000526020600020905b8160009054906101000a900473ffffffffffffffffffffffffffffffffffffffff1673ffffffffffffffffffffffffffffffffffffffff16815260200190600101908083116200013e575b5050505050905090565b6000828233604051620001a6906200023c565b620001b49392919062000492565b604051809103906000f080158015620001d1573d6000803e3d6000fd5b5090506000819080600181540180825580915050600190039060005260206000200160009091909190916101000a81548173ffffffffffffffffffffffffffffffffffffffff021916908373ffffffffffffffffffffffffffffffffffffffff160217905550505050565b61169c806200069e83390190565b6000620002616200025b84620004ff565b620004d6565b9050828152602081018484840111156200027a57600080fd5b62000287848285620005c8565b509392505050565b600082601f830112620002a157600080fd5b8135620002b38482602086016200024a565b91505092915050565b600081359050620002cd8162000683565b92915050565b60008060408385031215620002e757600080fd5b600083013567ffffffffffffffff8111156200030257600080fd5b62000310858286016200028f565b92505060206200032385828601620002bc565b9150509250929050565b6000602082840312156200034057600080fd5b60006200035084828501620002bc565b91505092915050565b600062000367838362000373565b60208301905092915050565b6200037e816200058a565b82525050565b6200038f816200058a565b82525050565b6000620003a28262000545565b620003ae818562000568565b9350620003bb8362000535565b8060005b83811015620003f2578151620003d6888262000359565b9750620003e3836200055b565b925050600181019050620003bf565b5085935050505092915050565b60006200040c8262000550565b62000418818562000579565b93506200042a818560208601620005d7565b620004358162000672565b840191505092915050565b6200044b81620005be565b82525050565b600060208201905062000468600083018462000384565b92915050565b600060208201905081810360008301526200048a818462000395565b905092915050565b60006060820190508181036000830152620004ae8186620003ff565b9050620004bf602083018562000440565b620004ce604083018462000384565b949350505050565b6000620004e2620004f5565b9050620004f082826200060d565b919050565b6000604051905090565b600067ffffffffffffffff8211156200051d576200051c62000643565b5b620005288262000672565b9050602081019050919050565b6000819050602082019050919050565b600081519050919050565b600081519050919050565b6000602082019050919050565b600082825260208201905092915050565b600082825260208201905092915050565b600062000597826200059e565b9050919050565b600073ffffffffffffffffffffffffffffffffffffffff82169050919050565b6000819050919050565b82818337600083830152505050565b60005b83811015620005f7578082015181840152602081019050620005da565b8381111562000607576000848401525b50505050565b620006188262000672565b810181811067ffffffffffffffff821117156200063a576200063962000643565b5b80604052505050565b7f4e487b7100000000000000000000000000000000000000000000000000000000600052604160045260246000fd5b6000601f19601f8301169050919050565b6200068e81620005be565b81146200069a57600080fd5b5056fe60806040523480156200001157600080fd5b506040516200169c3803806200169c8339818101604052810190620000379190620001f1565b80600160006101000a81548173ffffffffffffffffffffffffffffffffffffffff021916908373ffffffffffffffffffffffffffffffffffffffff160217905550826005908051906020019062000090929190620000a1565b508160028190555050505062000442565b828054620000af9062000333565b90600052602060002090601f016020900481019282620000d357600085556200011f565b82601f10620000ee57805160ff19168380011785556200011f565b828001600101855582156200011f579182015b828111156200011e57825182559160200191906001019062000101565b5b5090506200012e919062000132565b5090565b5b808211156200014d57600081600090555060010162000133565b5090565b600062000168620001628462000289565b62000260565b9050828152602081018484840111156200018157600080fd5b6200018e848285620002fd565b509392505050565b600081519050620001a7816200040e565b92915050565b600082601f830112620001bf57600080fd5b8151620001d184826020860162000151565b91505092915050565b600081519050620001eb8162000428565b92915050565b6000806000606084860312156200020757600080fd5b600084015167ffffffffffffffff8111156200022257600080fd5b6200023086828701620001ad565b93505060206200024386828701620001da565b9250506040620002568682870162000196565b9150509250925092565b60006200026c6200027f565b90506200027a828262000369565b919050565b6000604051905090565b600067ffffffffffffffff821115620002a757620002a6620003ce565b5b620002b282620003fd565b9050602081019050919050565b6000620002cc82620002d3565b9050919050565b600073ffffffffffffffffffffffffffffffffffffffff82169050919050565b6000819050919050565b60005b838110156200031d57808201518184015260208101905062000300565b838111156200032d576000848401525b50505050565b600060028204905060018216806200034c57607f821691505b602082108114156200036357620003626200039f565b5b50919050565b6200037482620003fd565b810181811067ffffffffffffffff82111715620003965762000395620003ce565b5b80604052505050565b7f4e487b7100000000000000000000000000000000000000000000000000000000600052602260045260246000fd5b7f4e487b7100000000000000000000000000000000000000000000000000000000600052604160045260246000fd5b6000601f19601f8301169050919050565b6200041981620002bf565b81146200042557600080fd5b50565b6200043381620002f3565b81146200043f57600080fd5b50565b61124a80620004526000396000f3fe60806040526004361061009c5760003560e01c806381d12c581161006457806381d12c581461018857806382fde093146101ca578063c7741265146101f5578063d7bb99ba1461021e578063d7d1bbdb14610228578063da59cf76146102515761009c565b806303441006146100a157806306fdde03146100ca5780630a144391146100f55780633410452a14610132578063481c6a751461015d575b600080fd5b3480156100ad57600080fd5b506100c860048036038101906100c39190610c44565b61027c565b005b3480156100d657600080fd5b506100df610457565b6040516100ec9190610d81565b60405180910390f35b34801561010157600080fd5b5061011c60048036038101906101179190610b88565b6104e5565b6040516101299190610d66565b60405180910390f35b34801561013e57600080fd5b50610147610505565b6040516101549190610e72565b60405180910390f35b34801561016957600080fd5b50610172610511565b60405161017f9190610d4b565b60405180910390f35b34801561019457600080fd5b506101af60048036038101906101aa9190610c44565b610537565b6040516101c196959493929190610da3565b60405180910390f35b3480156101d657600080fd5b506101df6106c0565b6040516101ec9190610e72565b60405180910390f35b34801561020157600080fd5b5061021c60048036038101906102179190610bb1565b6106c6565b005b610226610825565b005b34801561023457600080fd5b5061024f600480360381019061024a9190610c44565b6108db565b005b34801561025d57600080fd5b50610266610a4d565b6040516102739190610e72565b60405180910390f35b600160009054906101000a900473ffffffffffffffffffffffffffffffffffffffff1673ffffffffffffffffffffffffffffffffffffffff163373ffffffffffffffffffffffffffffffffffffffff161461030c576040517f08c379a000000000000000000000000000000000000000000000000000000000815260040161030390610e12565b60405180910390fd5b6000808281548110610347577f4e487b7100000000000000000000000000000000000000000000000000000000600052603260045260246000fd5b9060005260206000209060060201905060026004546103669190610eff565b8160040154116103ab576040517f08c379a00000000000000000000000000000000000000000000000000000000081526004016103a290610e32565b60405180910390fd5b8060030160149054906101000a900460ff16156103c757600080fd5b8060030160009054906101000a900473ffffffffffffffffffffffffffffffffffffffff1673ffffffffffffffffffffffffffffffffffffffff166108fc82600201549081150290604051600060405180830381858888f19350505050158015610435573d6000803e3d6000fd5b5060018160030160146101000a81548160ff0219169083151502179055505050565b6005805461046490610fcc565b80601f016020809104026020016040519081016040528092919081815260200182805461049090610fcc565b80156104dd5780601f106104b2576101008083540402835291602001916104dd565b820191906000526020600020905b8154815290600101906020018083116104c057829003601f168201915b505050505081565b60036020528060005260406000206000915054906101000a900460ff1681565b60008080549050905090565b600160009054906101000a900473ffffffffffffffffffffffffffffffffffffffff1681565b6000818154811061054757600080fd5b906000526020600020906006020160009150905080600001805461056a90610fcc565b80601f016020809104026020016040519081016040528092919081815260200182805461059690610fcc565b80156105e35780601f106105b8576101008083540402835291602001916105e3565b820191906000526020600020905b8154815290600101906020018083116105c657829003601f168201915b5050505050908060010180546105f890610fcc565b80601f016020809104026020016040519081016040528092919081815260200182805461062490610fcc565b80156106715780601f1061064657610100808354040283529160200191610671565b820191906000526020600020905b81548152906001019060200180831161065457829003601f168201915b5050505050908060020154908060030160009054906101000a900473ffffffffffffffffffffffffffffffffffffffff16908060030160149054906101000a900460ff16908060040154905086565b60045481565b600160009054906101000a900473ffffffffffffffffffffffffffffffffffffffff1673ffffffffffffffffffffffffffffffffffffffff163373ffffffffffffffffffffffffffffffffffffffff1614610756576040517f08c379a000000000000000000000000000000000000000000000000000000000815260040161074d90610e12565b60405180910390fd5b600080600181600181540180825580915050039060005260206000209060060201905084816000019080519060200190610791929190610a53565b50838160010190805190602001906107aa929190610a53565b50828160020181905550818160030160006101000a81548173ffffffffffffffffffffffffffffffffffffffff021916908373ffffffffffffffffffffffffffffffffffffffff16021790555060008160030160146101000a81548160ff021916908315150217905550600081600401819055505050505050565b6002543411610869576040517f08c379a000000000000000000000000000000000000000000000000000000000815260040161086090610e52565b60405180910390fd5b6001600360003373ffffffffffffffffffffffffffffffffffffffff1673ffffffffffffffffffffffffffffffffffffffff16815260200190815260200160002060006101000a81548160ff021916908315150217905550600460008154809291906108d49061102f565b9190505550565b6000808281548110610916577f4e487b7100000000000000000000000000000000000000000000000000000000600052603260045260246000fd5b90600052602060002090600602019050600360003373ffffffffffffffffffffffffffffffffffffffff1673ffffffffffffffffffffffffffffffffffffffff16815260200190815260200160002060009054906101000a900460ff1661097c57600080fd5b8060050160003373ffffffffffffffffffffffffffffffffffffffff1673ffffffffffffffffffffffffffffffffffffffff16815260200190815260200160002060009054906101000a900460ff16156109d557600080fd5b60018160050160003373ffffffffffffffffffffffffffffffffffffffff1673ffffffffffffffffffffffffffffffffffffffff16815260200190815260200160002060006101000a81548160ff021916908315150217905550806004016000815480929190610a449061102f565b91905055505050565b60025481565b828054610a5f90610fcc565b90600052602060002090601f016020900481019282610a815760008555610ac8565b82601f10610a9a57805160ff1916838001178555610ac8565b82800160010185558215610ac8579182015b82811115610ac7578251825591602001919060010190610aac565b5b509050610ad59190610ad9565b5090565b5b80821115610af2576000816000905550600101610ada565b5090565b6000610b09610b0484610eb2565b610e8d565b905082815260208101848484011115610b2157600080fd5b610b2c848285610f8a565b509392505050565b600081359050610b43816111e6565b92915050565b600082601f830112610b5a57600080fd5b8135610b6a848260208601610af6565b91505092915050565b600081359050610b82816111fd565b92915050565b600060208284031215610b9a57600080fd5b6000610ba884828501610b34565b91505092915050565b60008060008060808587031215610bc757600080fd5b600085013567ffffffffffffffff811115610be157600080fd5b610bed87828801610b49565b945050602085013567ffffffffffffffff811115610c0a57600080fd5b610c1687828801610b49565b9350506040610c2787828801610b73565b9250506060610c3887828801610b34565b91505092959194509250565b600060208284031215610c5657600080fd5b6000610c6484828501610b73565b91505092915050565b610c7681610f42565b82525050565b610c8581610f30565b82525050565b610c9481610f54565b82525050565b6000610ca582610ee3565b610caf8185610eee565b9350610cbf818560208601610f99565b610cc881611134565b840191505092915050565b6000610ce0601483610eee565b9150610ceb82611145565b602082019050919050565b6000610d03602c83610eee565b9150610d0e8261116e565b604082019050919050565b6000610d26601c83610eee565b9150610d31826111bd565b602082019050919050565b610d4581610f80565b82525050565b6000602082019050610d606000830184610c7c565b92915050565b6000602082019050610d7b6000830184610c8b565b92915050565b60006020820190508181036000830152610d9b8184610c9a565b905092915050565b600060c0820190508181036000830152610dbd8189610c9a565b90508181036020830152610dd18188610c9a565b9050610de06040830187610d3c565b610ded6060830186610c6d565b610dfa6080830185610c8b565b610e0760a0830184610d3c565b979650505050505050565b60006020820190508181036000830152610e2b81610cd3565b9050919050565b60006020820190508181036000830152610e4b81610cf6565b9050919050565b60006020820190508181036000830152610e6b81610d19565b9050919050565b6000602082019050610e876000830184610d3c565b92915050565b6000610e97610ea8565b9050610ea38282610ffe565b919050565b6000604051905090565b600067ffffffffffffffff821115610ecd57610ecc611105565b5b610ed682611134565b9050602081019050919050565b600081519050919050565b600082825260208201905092915050565b6000610f0a82610f80565b9150610f1583610f80565b925082610f2557610f246110a7565b5b828204905092915050565b6000610f3b82610f60565b9050919050565b6000610f4d82610f60565b9050919050565b60008115159050919050565b600073ffffffffffffffffffffffffffffffffffffffff82169050919050565b6000819050919050565b82818337600083830152505050565b60005b83811015610fb7578082015181840152602081019050610f9c565b83811115610fc6576000848401525b50505050565b60006002820490506001821680610fe457607f821691505b60208210811415610ff857610ff76110d6565b5b50919050565b61100782611134565b810181811067ffffffffffffffff8211171561102657611025611105565b5b80604052505050565b600061103a82610f80565b91507fffffffffffffffffffffffffffffffffffffffffffffffffffffffffffffffff82141561106d5761106c611078565b5b600182019050919050565b7f4e487b7100000000000000000000000000000000000000000000000000000000600052601160045260246000fd5b7f4e487b7100000000000000000000000000000000000000000000000000000000600052601260045260246000fd5b7f4e487b7100000000000000000000000000000000000000000000000000000000600052602260045260246000fd5b7f4e487b7100000000000000000000000000000000000000000000000000000000600052604160045260246000fd5b6000601f19601f8301169050919050565b7f4f6e6c79206d616e6167657220616c6c6f776564000000000000000000000000600082015250565b7f4e6f7420656e6f7567682070656f706c65206861766520617070726f7665642060008201527f7468697320726571756573740000000000000000000000000000000000000000602082015250565b7f4d696e696d756d20636f6e747269627574696f6e206e6f74206d657400000000600082015250565b6111ef81610f30565b81146111fa57600080fd5b50565b61120681610f80565b811461121157600080fd5b5056fea2646970667358221220a761bc041f492a80fadac091835406d755e666890dcbc7277892d5f8b74892fd64736f6c63430008040033a2646970667358221220661eeda542b049d2c1105694176150ad042a755c8c331e5e02473fd9ae09ef8e64736f6c63430008040033",
  "linkReferences": {},
  "deployedLinkReferences": {}
}