{
  "_format": "hh-sol-artifact-1",
  "contractName": "CampaignFactory",
  "sourceName": "contracts/Campaign.sol",
  "abi": [
    {
      "inputs": [
        {
          "internalType": "address",
          "name": "priceFeedAddress",
          "type": "address"
        }
      ],
      "stateMutability": "nonpayable",
      "type": "constructor"
    },
    {
      "inputs": [
        {
          "internalType": "string",
          "name": "name",
          "type": "string"
        },
        {
          "internalType": "uint256",
          "name": "minimum",
          "type": "uint256"
        },
        {
          "internalType": "uint256",
          "name": "goal",
          "type": "uint256"
        },
        {
          "internalType": "string",
          "name": "description",
          "type": "string"
        },
        {
          "internalType": "string",
          "name": "thumbnail",
          "type": "string"
        }
      ],
      "name": "createCampaign",
      "outputs": [],
      "stateMutability": "nonpayable",
      "type": "function"
    },
    {
      "inputs": [
        {
          "internalType": "uint256",
          "name": "",
          "type": "uint256"
        }
      ],
      "name": "deployedCampaigns",
      "outputs": [
        {
          "internalType": "address",
          "name": "",
          "type": "address"
        }
      ],
      "stateMutability": "view",
      "type": "function"
    },
    {
      "inputs": [],
      "name": "getDeployedCampaigns",
      "outputs": [
        {
          "internalType": "address[]",
          "name": "",
          "type": "address[]"
        }
      ],
      "stateMutability": "view",
      "type": "function"
    },
    {
      "inputs": [],
      "name": "priceFeed",
      "outputs": [
        {
          "internalType": "contract AggregatorV3Interface",
          "name": "",
          "type": "address"
        }
      ],
      "stateMutability": "view",
      "type": "function"
    }
  ],
  "bytecode": "0x608060405234801561001057600080fd5b50604051612f38380380612f38833981810160405281019061003291906100dc565b80600160006101000a81548173ffffffffffffffffffffffffffffffffffffffff021916908373ffffffffffffffffffffffffffffffffffffffff16021790555050610109565b600080fd5b600073ffffffffffffffffffffffffffffffffffffffff82169050919050565b60006100a98261007e565b9050919050565b6100b98161009e565b81146100c457600080fd5b50565b6000815190506100d6816100b0565b92915050565b6000602082840312156100f2576100f1610079565b5b6000610100848285016100c7565b91505092915050565b612e20806101186000396000f3fe60806040523480156200001157600080fd5b5060043610620000525760003560e01c8063339d50a514620000575780634acb9d4f146200008d5780634b2aafcc14620000af578063741bef1a14620000cf575b600080fd5b6200007560048036038101906200006f91906200031a565b620000f1565b60405162000084919062000391565b60405180910390f35b6200009762000131565b604051620000a691906200047c565b60405180910390f35b620000cd6004803603810190620000c7919062000602565b620001c1565b005b620000d962000297565b604051620000e8919062000752565b60405180910390f35b600081815481106200010257600080fd5b906000526020600020016000915054906101000a900473ffffffffffffffffffffffffffffffffffffffff1681565b60606000805480602002602001604051908101604052809291908181526020018280548015620001b757602002820191906000526020600020905b8160009054906101000a900473ffffffffffffffffffffffffffffffffffffffff1673ffffffffffffffffffffffffffffffffffffffff16815260200190600101908083116200016c575b5050505050905090565b6000858585338686600160009054906101000a900473ffffffffffffffffffffffffffffffffffffffff16604051620001fa90620002bd565b6200020c979695949392919062000813565b604051809103906000f08015801562000229573d6000803e3d6000fd5b5090506000819080600181540180825580915050600190039060005260206000200160009091909190916101000a81548173ffffffffffffffffffffffffffffffffffffffff021916908373ffffffffffffffffffffffffffffffffffffffff160217905550505050505050565b600160009054906101000a900473ffffffffffffffffffffffffffffffffffffffff1681565b61254580620008a683390190565b6000604051905090565b600080fd5b600080fd5b6000819050919050565b620002f481620002df565b81146200030057600080fd5b50565b6000813590506200031481620002e9565b92915050565b600060208284031215620003335762000332620002d5565b5b6000620003438482850162000303565b91505092915050565b600073ffffffffffffffffffffffffffffffffffffffff82169050919050565b600062000379826200034c565b9050919050565b6200038b816200036c565b82525050565b6000602082019050620003a8600083018462000380565b92915050565b600081519050919050565b600082825260208201905092915050565b6000819050602082019050919050565b620003e5816200036c565b82525050565b6000620003f98383620003da565b60208301905092915050565b6000602082019050919050565b60006200041f82620003ae565b6200042b8185620003b9565b93506200043883620003ca565b8060005b838110156200046f578151620004538882620003eb565b9750620004608362000405565b9250506001810190506200043c565b5085935050505092915050565b6000602082019050818103600083015262000498818462000412565b905092915050565b600080fd5b600080fd5b6000601f19601f8301169050919050565b7f4e487b7100000000000000000000000000000000000000000000000000000000600052604160045260246000fd5b620004f582620004aa565b810181811067ffffffffffffffff82111715620005175762000516620004bb565b5b80604052505050565b60006200052c620002cb565b90506200053a8282620004ea565b919050565b600067ffffffffffffffff8211156200055d576200055c620004bb565b5b6200056882620004aa565b9050602081019050919050565b82818337600083830152505050565b60006200059b62000595846200053f565b62000520565b905082815260208101848484011115620005ba57620005b9620004a5565b5b620005c784828562000575565b509392505050565b600082601f830112620005e757620005e6620004a0565b5b8135620005f984826020860162000584565b91505092915050565b600080600080600060a08688031215620006215762000620620002d5565b5b600086013567ffffffffffffffff811115620006425762000641620002da565b5b6200065088828901620005cf565b9550506020620006638882890162000303565b9450506040620006768882890162000303565b935050606086013567ffffffffffffffff8111156200069a5762000699620002da565b5b620006a888828901620005cf565b925050608086013567ffffffffffffffff811115620006cc57620006cb620002da565b5b620006da88828901620005cf565b9150509295509295909350565b6000819050919050565b6000620007126200070c62000706846200034c565b620006e7565b6200034c565b9050919050565b60006200072682620006f1565b9050919050565b60006200073a8262000719565b9050919050565b6200074c816200072d565b82525050565b600060208201905062000769600083018462000741565b92915050565b600081519050919050565b600082825260208201905092915050565b60005b83811015620007ab5780820151818401526020810190506200078e565b83811115620007bb576000848401525b50505050565b6000620007ce826200076f565b620007da81856200077a565b9350620007ec8185602086016200078b565b620007f781620004aa565b840191505092915050565b6200080d81620002df565b82525050565b600060e08201905081810360008301526200082f818a620007c1565b905062000840602083018962000802565b6200084f604083018862000802565b6200085e606083018762000380565b8181036080830152620008728186620007c1565b905081810360a0830152620008888185620007c1565b90506200089960c083018462000741565b9897505050505050505056fe60e06040523480156200001157600080fd5b506040516200254538038062002545833981810160405281019062000037919062000449565b8373ffffffffffffffffffffffffffffffffffffffff1660808173ffffffffffffffffffffffffffffffffffffffff1660601b8152505086600390805190602001906200008692919062000117565b5082600490805190602001906200009f92919062000117565b508460c081815250508160059080519060200190620000c092919062000117565b508560a0818152505080600660006101000a81548173ffffffffffffffffffffffffffffffffffffffff021916908373ffffffffffffffffffffffffffffffffffffffff16021790555050505050505050620005be565b828054620001259062000588565b90600052602060002090601f01602090048101928262000149576000855562000195565b82601f106200016457805160ff191683800117855562000195565b8280016001018555821562000195579182015b828111156200019457825182559160200191906001019062000177565b5b509050620001a49190620001a8565b5090565b5b80821115620001c3576000816000905550600101620001a9565b5090565b6000604051905090565b600080fd5b600080fd5b600080fd5b600080fd5b6000601f19601f8301169050919050565b7f4e487b7100000000000000000000000000000000000000000000000000000000600052604160045260246000fd5b6200023082620001e5565b810181811067ffffffffffffffff82111715620002525762000251620001f6565b5b80604052505050565b600062000267620001c7565b905062000275828262000225565b919050565b600067ffffffffffffffff821115620002985762000297620001f6565b5b620002a382620001e5565b9050602081019050919050565b60005b83811015620002d0578082015181840152602081019050620002b3565b83811115620002e0576000848401525b50505050565b6000620002fd620002f7846200027a565b6200025b565b9050828152602081018484840111156200031c576200031b620001e0565b5b62000329848285620002b0565b509392505050565b600082601f830112620003495762000348620001db565b5b81516200035b848260208601620002e6565b91505092915050565b6000819050919050565b620003798162000364565b81146200038557600080fd5b50565b60008151905062000399816200036e565b92915050565b600073ffffffffffffffffffffffffffffffffffffffff82169050919050565b6000620003cc826200039f565b9050919050565b620003de81620003bf565b8114620003ea57600080fd5b50565b600081519050620003fe81620003d3565b92915050565b60006200041182620003bf565b9050919050565b620004238162000404565b81146200042f57600080fd5b50565b600081519050620004438162000418565b92915050565b600080600080600080600060e0888a0312156200046b576200046a620001d1565b5b600088015167ffffffffffffffff8111156200048c576200048b620001d6565b5b6200049a8a828b0162000331565b9750506020620004ad8a828b0162000388565b9650506040620004c08a828b0162000388565b9550506060620004d38a828b01620003ed565b945050608088015167ffffffffffffffff811115620004f757620004f6620001d6565b5b620005058a828b0162000331565b93505060a088015167ffffffffffffffff811115620005295762000528620001d6565b5b620005378a828b0162000331565b92505060c06200054a8a828b0162000432565b91505092959891949750929550565b7f4e487b7100000000000000000000000000000000000000000000000000000000600052602260045260246000fd5b60006002820490506001821680620005a157607f821691505b60208210811415620005b857620005b762000559565b5b50919050565b60805160601c60a05160c051611f2a6200061b60003960008181610c6d0152610cbd015260008181610b7901528181610c9c015261101e0152600081816104650152818161075f01528181610cdf0152610ec10152611f2a6000f3fe6080604052600436106101145760003560e01c806381d12c58116100a0578063b16a867c11610064578063b16a867c146103ab578063c7741265146103dc578063d7bb99ba14610405578063d7d1bbdb1461040f578063ff186b2e1461043857610114565b806381d12c58146102aa57806382fde093146102ec57806391dbac0814610317578063a3f2a56c14610342578063a67e30cb1461038057610114565b80635afc2ab4116100e75780635afc2ab4146101d55780635bc08981146102005780637284e4161461022b578063741bef1a1461025657806379f96c571461028157610114565b8063034410061461011957806306fdde03146101425780630a1443911461016d5780633410452a146101aa575b600080fd5b34801561012557600080fd5b50610140600480360381019061013b919061147b565b610463565b005b34801561014e57600080fd5b50610157610615565b6040516101649190611541565b60405180910390f35b34801561017957600080fd5b50610194600480360381019061018f91906115c1565b6106a3565b6040516101a19190611609565b60405180910390f35b3480156101b657600080fd5b506101bf6106c3565b6040516101cc9190611633565b60405180910390f35b3480156101e157600080fd5b506101ea6106cf565b6040516101f79190611541565b60405180910390f35b34801561020c57600080fd5b5061021561075d565b604051610222919061165d565b60405180910390f35b34801561023757600080fd5b50610240610781565b60405161024d9190611541565b60405180910390f35b34801561026257600080fd5b5061026b61080f565b60405161027891906116d7565b60405180910390f35b34801561028d57600080fd5b506102a860048036038101906102a3919061147b565b610835565b005b3480156102b657600080fd5b506102d160048036038101906102cc919061147b565b6109e8565b6040516102e396959493929190611713565b60405180910390f35b3480156102f857600080fd5b50610301610b71565b60405161030e9190611633565b60405180910390f35b34801561032357600080fd5b5061032c610b77565b6040516103399190611633565b60405180910390f35b34801561034e57600080fd5b506103696004803603810190610364919061147b565b610b9b565b604051610377929190611782565b60405180910390f35b34801561038c57600080fd5b50610395610c6b565b6040516103a29190611633565b60405180910390f35b3480156103b757600080fd5b506103c0610c8f565b6040516103d397969594939291906117ab565b60405180910390f35b3480156103e857600080fd5b5061040360048036038101906103fe9190611964565b610ebf565b005b61040d61101c565b005b34801561041b57600080fd5b506104366004803603810190610431919061147b565b6110ef565b005b34801561044457600080fd5b5061044d6112bc565b60405161045a9190611633565b60405180910390f35b7f000000000000000000000000000000000000000000000000000000000000000073ffffffffffffffffffffffffffffffffffffffff163373ffffffffffffffffffffffffffffffffffffffff16146104f1576040517f08c379a00000000000000000000000000000000000000000000000000000000081526004016104e890611a4f565b60405180910390fd5b600080828154811061050657610505611a6f565b5b90600052602060002090600702019050600280546105249190611afc565b816004015411610569576040517f08c379a000000000000000000000000000000000000000000000000000000000815260040161056090611b9f565b60405180910390fd5b8060030160149054906101000a900460ff161561058557600080fd5b8060030160009054906101000a900473ffffffffffffffffffffffffffffffffffffffff1673ffffffffffffffffffffffffffffffffffffffff166108fc82600201549081150290604051600060405180830381858888f193505050501580156105f3573d6000803e3d6000fd5b5060018160030160146101000a81548160ff0219169083151502179055505050565b6003805461062290611bee565b80601f016020809104026020016040519081016040528092919081815260200182805461064e90611bee565b801561069b5780601f106106705761010080835404028352916020019161069b565b820191906000526020600020905b81548152906001019060200180831161067e57829003601f168201915b505050505081565b60016020528060005260406000206000915054906101000a900460ff1681565b60008080549050905090565b600580546106dc90611bee565b80601f016020809104026020016040519081016040528092919081815260200182805461070890611bee565b80156107555780601f1061072a57610100808354040283529160200191610755565b820191906000526020600020905b81548152906001019060200180831161073857829003601f168201915b505050505081565b7f000000000000000000000000000000000000000000000000000000000000000081565b6004805461078e90611bee565b80601f01602080910402602001604051908101604052809291908181526020018280546107ba90611bee565b80156108075780601f106107dc57610100808354040283529160200191610807565b820191906000526020600020905b8154815290600101906020018083116107ea57829003601f168201915b505050505081565b600660009054906101000a900473ffffffffffffffffffffffffffffffffffffffff1681565b80600080828154811061084b5761084a611a6f565b5b90600052602060002090600702019050600160003373ffffffffffffffffffffffffffffffffffffffff1673ffffffffffffffffffffffffffffffffffffffff16815260200190815260200160002060009054906101000a900460ff166108b157600080fd5b8060050160003373ffffffffffffffffffffffffffffffffffffffff1673ffffffffffffffffffffffffffffffffffffffff16815260200190815260200160002060009054906101000a900460ff161561090a57600080fd5b8060060160003373ffffffffffffffffffffffffffffffffffffffff1673ffffffffffffffffffffffffffffffffffffffff16815260200190815260200160002060009054906101000a900460ff161561096357600080fd5b600080848154811061097857610977611a6f565b5b9060005260206000209060070201905060018160060160003373ffffffffffffffffffffffffffffffffffffffff1673ffffffffffffffffffffffffffffffffffffffff16815260200190815260200160002060006101000a81548160ff02191690831515021790555050505050565b600081815481106109f857600080fd5b9060005260206000209060070201600091509050806000018054610a1b90611bee565b80601f0160208091040260200160405190810160405280929190818152602001828054610a4790611bee565b8015610a945780601f10610a6957610100808354040283529160200191610a94565b820191906000526020600020905b815481529060010190602001808311610a7757829003601f168201915b505050505090806001018054610aa990611bee565b80601f0160208091040260200160405190810160405280929190818152602001828054610ad590611bee565b8015610b225780601f10610af757610100808354040283529160200191610b22565b820191906000526020600020905b815481529060010190602001808311610b0557829003601f168201915b5050505050908060020154908060030160009054906101000a900473ffffffffffffffffffffffffffffffffffffffff16908060030160149054906101000a900460ff16908060040154905086565b60025481565b7f000000000000000000000000000000000000000000000000000000000000000081565b6000806000808481548110610bb357610bb2611a6f565b5b906000526020600020906007020190508060050160003373ffffffffffffffffffffffffffffffffffffffff1673ffffffffffffffffffffffffffffffffffffffff16815260200190815260200160002060009054906101000a900460ff168160060160003373ffffffffffffffffffffffffffffffffffffffff1673ffffffffffffffffffffffffffffffffffffffff16815260200190815260200160002060009054906101000a900460ff169250925050915091565b7f000000000000000000000000000000000000000000000000000000000000000081565b60008060008060608060607f00000000000000000000000000000000000000000000000000000000000000007f0000000000000000000000000000000000000000000000000000000000000000477f0000000000000000000000000000000000000000000000000000000000000000600560046003828054610d1090611bee565b80601f0160208091040260200160405190810160405280929190818152602001828054610d3c90611bee565b8015610d895780601f10610d5e57610100808354040283529160200191610d89565b820191906000526020600020905b815481529060010190602001808311610d6c57829003601f168201915b50505050509250818054610d9c90611bee565b80601f0160208091040260200160405190810160405280929190818152602001828054610dc890611bee565b8015610e155780601f10610dea57610100808354040283529160200191610e15565b820191906000526020600020905b815481529060010190602001808311610df857829003601f168201915b50505050509150808054610e2890611bee565b80601f0160208091040260200160405190810160405280929190818152602001828054610e5490611bee565b8015610ea15780601f10610e7657610100808354040283529160200191610ea1565b820191906000526020600020905b815481529060010190602001808311610e8457829003601f168201915b50505050509050965096509650965096509650965090919293949596565b7f000000000000000000000000000000000000000000000000000000000000000073ffffffffffffffffffffffffffffffffffffffff163373ffffffffffffffffffffffffffffffffffffffff1614610f4d576040517f08c379a0000000000000000000000000000000000000000000000000000000008152600401610f4490611a4f565b60405180910390fd5b600080600181600181540180825580915050039060005260206000209060070201905084816000019080519060200190610f8892919061138e565b5083816001019080519060200190610fa192919061138e565b50828160020181905550818160030160006101000a81548173ffffffffffffffffffffffffffffffffffffffff021916908373ffffffffffffffffffffffffffffffffffffffff16021790555060008160030160146101000a81548160ff021916908315150217905550600081600401819055505050505050565b7f0000000000000000000000000000000000000000000000000000000000000000341161107e576040517f08c379a000000000000000000000000000000000000000000000000000000000815260040161107590611c6c565b60405180910390fd5b60018060003373ffffffffffffffffffffffffffffffffffffffff1673ffffffffffffffffffffffffffffffffffffffff16815260200190815260200160002060006101000a81548160ff021916908315150217905550600260008154809291906110e890611c8c565b9190505550565b80600080828154811061110557611104611a6f565b5b90600052602060002090600702019050600160003373ffffffffffffffffffffffffffffffffffffffff1673ffffffffffffffffffffffffffffffffffffffff16815260200190815260200160002060009054906101000a900460ff1661116b57600080fd5b8060050160003373ffffffffffffffffffffffffffffffffffffffff1673ffffffffffffffffffffffffffffffffffffffff16815260200190815260200160002060009054906101000a900460ff16156111c457600080fd5b8060060160003373ffffffffffffffffffffffffffffffffffffffff1673ffffffffffffffffffffffffffffffffffffffff16815260200190815260200160002060009054906101000a900460ff161561121d57600080fd5b600080848154811061123257611231611a6f565b5b9060005260206000209060070201905060018160050160003373ffffffffffffffffffffffffffffffffffffffff1673ffffffffffffffffffffffffffffffffffffffff16815260200190815260200160002060006101000a81548160ff0219169083151502179055508060040160008154809291906112b190611c8c565b919050555050505050565b60006112e9600660009054906101000a900473ffffffffffffffffffffffffffffffffffffffff166112ee565b905090565b6000808273ffffffffffffffffffffffffffffffffffffffff1663feaf968c6040518163ffffffff1660e01b815260040160a06040518083038186803b15801561133757600080fd5b505afa15801561134b573d6000803e3d6000fd5b505050506040513d601f19601f8201168201806040525081019061136f9190611d62565b5050509150506402540be400816113869190611ddd565b915050919050565b82805461139a90611bee565b90600052602060002090601f0160209004810192826113bc5760008555611403565b82601f106113d557805160ff1916838001178555611403565b82800160010185558215611403579182015b828111156114025782518255916020019190600101906113e7565b5b5090506114109190611414565b5090565b5b8082111561142d576000816000905550600101611415565b5090565b6000604051905090565b600080fd5b600080fd5b6000819050919050565b61145881611445565b811461146357600080fd5b50565b6000813590506114758161144f565b92915050565b6000602082840312156114915761149061143b565b5b600061149f84828501611466565b91505092915050565b600081519050919050565b600082825260208201905092915050565b60005b838110156114e25780820151818401526020810190506114c7565b838111156114f1576000848401525b50505050565b6000601f19601f8301169050919050565b6000611513826114a8565b61151d81856114b3565b935061152d8185602086016114c4565b611536816114f7565b840191505092915050565b6000602082019050818103600083015261155b8184611508565b905092915050565b600073ffffffffffffffffffffffffffffffffffffffff82169050919050565b600061158e82611563565b9050919050565b61159e81611583565b81146115a957600080fd5b50565b6000813590506115bb81611595565b92915050565b6000602082840312156115d7576115d661143b565b5b60006115e5848285016115ac565b91505092915050565b60008115159050919050565b611603816115ee565b82525050565b600060208201905061161e60008301846115fa565b92915050565b61162d81611445565b82525050565b60006020820190506116486000830184611624565b92915050565b61165781611583565b82525050565b6000602082019050611672600083018461164e565b92915050565b6000819050919050565b600061169d61169861169384611563565b611678565b611563565b9050919050565b60006116af82611682565b9050919050565b60006116c1826116a4565b9050919050565b6116d1816116b6565b82525050565b60006020820190506116ec60008301846116c8565b92915050565b60006116fd82611563565b9050919050565b61170d816116f2565b82525050565b600060c082019050818103600083015261172d8189611508565b905081810360208301526117418188611508565b90506117506040830187611624565b61175d6060830186611704565b61176a60808301856115fa565b61177760a0830184611624565b979650505050505050565b600060408201905061179760008301856115fa565b6117a460208301846115fa565b9392505050565b600060e0820190506117c0600083018a611624565b6117cd6020830189611624565b6117da6040830188611624565b6117e7606083018761164e565b81810360808301526117f98186611508565b905081810360a083015261180d8185611508565b905081810360c08301526118218184611508565b905098975050505050505050565b600080fd5b600080fd5b7f4e487b7100000000000000000000000000000000000000000000000000000000600052604160045260246000fd5b611871826114f7565b810181811067ffffffffffffffff821117156118905761188f611839565b5b80604052505050565b60006118a3611431565b90506118af8282611868565b919050565b600067ffffffffffffffff8211156118cf576118ce611839565b5b6118d8826114f7565b9050602081019050919050565b82818337600083830152505050565b6000611907611902846118b4565b611899565b90508281526020810184848401111561192357611922611834565b5b61192e8482856118e5565b509392505050565b600082601f83011261194b5761194a61182f565b5b813561195b8482602086016118f4565b91505092915050565b6000806000806080858703121561197e5761197d61143b565b5b600085013567ffffffffffffffff81111561199c5761199b611440565b5b6119a887828801611936565b945050602085013567ffffffffffffffff8111156119c9576119c8611440565b5b6119d587828801611936565b93505060406119e687828801611466565b92505060606119f7878288016115ac565b91505092959194509250565b7f4f6e6c79206d616e6167657220616c6c6f776564000000000000000000000000600082015250565b6000611a396014836114b3565b9150611a4482611a03565b602082019050919050565b60006020820190508181036000830152611a6881611a2c565b9050919050565b7f4e487b7100000000000000000000000000000000000000000000000000000000600052603260045260246000fd5b7f4e487b7100000000000000000000000000000000000000000000000000000000600052601260045260246000fd5b7f4e487b7100000000000000000000000000000000000000000000000000000000600052601160045260246000fd5b6000611b0782611445565b9150611b1283611445565b925082611b2257611b21611a9e565b5b828204905092915050565b7f4e6f7420656e6f7567682070656f706c65206861766520617070726f7665642060008201527f7468697320726571756573740000000000000000000000000000000000000000602082015250565b6000611b89602c836114b3565b9150611b9482611b2d565b604082019050919050565b60006020820190508181036000830152611bb881611b7c565b9050919050565b7f4e487b7100000000000000000000000000000000000000000000000000000000600052602260045260246000fd5b60006002820490506001821680611c0657607f821691505b60208210811415611c1a57611c19611bbf565b5b50919050565b7f4d696e696d756d20636f6e747269627574696f6e206e6f74206d657400000000600082015250565b6000611c56601c836114b3565b9150611c6182611c20565b602082019050919050565b60006020820190508181036000830152611c8581611c49565b9050919050565b6000611c9782611445565b91507fffffffffffffffffffffffffffffffffffffffffffffffffffffffffffffffff821415611cca57611cc9611acd565b5b600182019050919050565b600069ffffffffffffffffffff82169050919050565b611cf481611cd5565b8114611cff57600080fd5b50565b600081519050611d1181611ceb565b92915050565b6000819050919050565b611d2a81611d17565b8114611d3557600080fd5b50565b600081519050611d4781611d21565b92915050565b600081519050611d5c8161144f565b92915050565b600080600080600060a08688031215611d7e57611d7d61143b565b5b6000611d8c88828901611d02565b9550506020611d9d88828901611d38565b9450506040611dae88828901611d4d565b9350506060611dbf88828901611d4d565b9250506080611dd088828901611d02565b9150509295509295909350565b6000611de882611d17565b9150611df383611d17565b9250827f7fffffffffffffffffffffffffffffffffffffffffffffffffffffffffffffff0482116000841360008413161615611e3257611e31611acd565b5b817f80000000000000000000000000000000000000000000000000000000000000000583126000841260008413161615611e6f57611e6e611acd565b5b827f80000000000000000000000000000000000000000000000000000000000000000582126000841360008412161615611eac57611eab611acd565b5b827f7fffffffffffffffffffffffffffffffffffffffffffffffffffffffffffffff0582126000841260008412161615611ee957611ee8611acd565b5b82820290509291505056fea26469706673582212208237b0f6a21ef742c07f8a0ee70a56b6611362cbf1f66744d5f29a9cc56238b564736f6c63430008080033a2646970667358221220e6e6ec26ff6493fb865d386f353acb60291a4fa0c1179d6ad7acc512a7b2739964736f6c63430008080033",
  "linkReferences": {},
  "deployedLinkReferences": {}
}