{
  "_format": "hh-sol-artifact-1",
  "contractName": "Campaign",
  "sourceName": "contracts/Campaign.sol",
  "abi": [
    {
      "inputs": [
        {
          "internalType": "string",
          "name": "_name",
          "type": "string"
        },
        {
          "internalType": "uint256",
          "name": "_minimum",
          "type": "uint256"
        },
        {
          "internalType": "uint256",
          "name": "_goal",
          "type": "uint256"
        },
        {
          "internalType": "address",
          "name": "creator",
          "type": "address"
        },
        {
          "internalType": "string",
          "name": "_description",
          "type": "string"
        },
        {
          "internalType": "string",
          "name": "_thumbnail",
          "type": "string"
        }
      ],
      "stateMutability": "nonpayable",
      "type": "constructor"
    },
    {
      "inputs": [
        {
          "internalType": "uint256",
          "name": "index",
          "type": "uint256"
        }
      ],
      "name": "approveRequest",
      "outputs": [],
      "stateMutability": "nonpayable",
      "type": "function"
    },
    {
      "inputs": [
        {
          "internalType": "address",
          "name": "",
          "type": "address"
        }
      ],
      "name": "approvers",
      "outputs": [
        {
          "internalType": "bool",
          "name": "",
          "type": "bool"
        }
      ],
      "stateMutability": "view",
      "type": "function"
    },
    {
      "inputs": [],
      "name": "approversCount",
      "outputs": [
        {
          "internalType": "uint256",
          "name": "",
          "type": "uint256"
        }
      ],
      "stateMutability": "view",
      "type": "function"
    },
    {
      "inputs": [],
      "name": "contribute",
      "outputs": [],
      "stateMutability": "payable",
      "type": "function"
    },
    {
      "inputs": [
        {
          "internalType": "string",
          "name": "_title",
          "type": "string"
        },
        {
          "internalType": "string",
          "name": "_description",
          "type": "string"
        },
        {
          "internalType": "uint256",
          "name": "_value",
          "type": "uint256"
        },
        {
          "internalType": "address",
          "name": "_recipient",
          "type": "address"
        }
      ],
      "name": "createRequest",
      "outputs": [],
      "stateMutability": "nonpayable",
      "type": "function"
    },
    {
      "inputs": [],
      "name": "description",
      "outputs": [
        {
          "internalType": "string",
          "name": "",
          "type": "string"
        }
      ],
      "stateMutability": "view",
      "type": "function"
    },
    {
      "inputs": [
        {
          "internalType": "uint256",
          "name": "index",
          "type": "uint256"
        }
      ],
      "name": "finalizeRequest",
      "outputs": [],
      "stateMutability": "nonpayable",
      "type": "function"
    },
    {
      "inputs": [],
      "name": "getRequestsCount",
      "outputs": [
        {
          "internalType": "uint256",
          "name": "",
          "type": "uint256"
        }
      ],
      "stateMutability": "view",
      "type": "function"
    },
    {
      "inputs": [],
      "name": "goal",
      "outputs": [
        {
          "internalType": "uint256",
          "name": "",
          "type": "uint256"
        }
      ],
      "stateMutability": "view",
      "type": "function"
    },
    {
      "inputs": [],
      "name": "manager",
      "outputs": [
        {
          "internalType": "address",
          "name": "",
          "type": "address"
        }
      ],
      "stateMutability": "view",
      "type": "function"
    },
    {
      "inputs": [],
      "name": "minimum_contribution",
      "outputs": [
        {
          "internalType": "uint256",
          "name": "",
          "type": "uint256"
        }
      ],
      "stateMutability": "view",
      "type": "function"
    },
    {
      "inputs": [],
      "name": "name",
      "outputs": [
        {
          "internalType": "string",
          "name": "",
          "type": "string"
        }
      ],
      "stateMutability": "view",
      "type": "function"
    },
    {
      "inputs": [
        {
          "internalType": "uint256",
          "name": "",
          "type": "uint256"
        }
      ],
      "name": "requests",
      "outputs": [
        {
          "internalType": "string",
          "name": "title",
          "type": "string"
        },
        {
          "internalType": "string",
          "name": "description",
          "type": "string"
        },
        {
          "internalType": "uint256",
          "name": "value",
          "type": "uint256"
        },
        {
          "internalType": "address payable",
          "name": "recipient",
          "type": "address"
        },
        {
          "internalType": "bool",
          "name": "complete",
          "type": "bool"
        },
        {
          "internalType": "uint256",
          "name": "approvalCount",
          "type": "uint256"
        }
      ],
      "stateMutability": "view",
      "type": "function"
    },
    {
      "inputs": [],
      "name": "summary",
      "outputs": [
        {
          "internalType": "uint256",
          "name": "",
          "type": "uint256"
        },
        {
          "internalType": "uint256",
          "name": "",
          "type": "uint256"
        },
        {
          "internalType": "uint256",
          "name": "",
          "type": "uint256"
        },
        {
          "internalType": "address",
          "name": "",
          "type": "address"
        },
        {
          "internalType": "string",
          "name": "",
          "type": "string"
        },
        {
          "internalType": "string",
          "name": "",
          "type": "string"
        },
        {
          "internalType": "string",
          "name": "",
          "type": "string"
        }
      ],
      "stateMutability": "view",
      "type": "function"
    },
    {
      "inputs": [],
      "name": "thumbnail",
      "outputs": [
        {
          "internalType": "string",
          "name": "",
          "type": "string"
        }
      ],
      "stateMutability": "view",
      "type": "function"
    }
  ],
  "bytecode": "0x60a06040523480156200001157600080fd5b5060405162001bf638038062001bf6833981810160405281019062000037919062000223565b8273ffffffffffffffffffffffffffffffffffffffff1660808173ffffffffffffffffffffffffffffffffffffffff1660601b81525050856005908051906020019062000086929190620000d3565b5081600690805190602001906200009f929190620000d3565b50836003819055508060079080519060200190620000bf929190620000d3565b5084600181905550505050505050620004e6565b828054620000e190620003d7565b90600052602060002090601f01602090048101928262000105576000855562000151565b82601f106200012057805160ff191683800117855562000151565b8280016001018555821562000151579182015b828111156200015057825182559160200191906001019062000133565b5b50905062000160919062000164565b5090565b5b808211156200017f57600081600090555060010162000165565b5090565b60006200019a62000194846200032d565b62000304565b905082815260208101848484011115620001b357600080fd5b620001c0848285620003a1565b509392505050565b600081519050620001d981620004b2565b92915050565b600082601f830112620001f157600080fd5b81516200020384826020860162000183565b91505092915050565b6000815190506200021d81620004cc565b92915050565b60008060008060008060c087890312156200023d57600080fd5b600087015167ffffffffffffffff8111156200025857600080fd5b6200026689828a01620001df565b96505060206200027989828a016200020c565b95505060406200028c89828a016200020c565b94505060606200029f89828a01620001c8565b935050608087015167ffffffffffffffff811115620002bd57600080fd5b620002cb89828a01620001df565b92505060a087015167ffffffffffffffff811115620002e957600080fd5b620002f789828a01620001df565b9150509295509295509295565b60006200031062000323565b90506200031e82826200040d565b919050565b6000604051905090565b600067ffffffffffffffff8211156200034b576200034a62000472565b5b6200035682620004a1565b9050602081019050919050565b6000620003708262000377565b9050919050565b600073ffffffffffffffffffffffffffffffffffffffff82169050919050565b6000819050919050565b60005b83811015620003c1578082015181840152602081019050620003a4565b83811115620003d1576000848401525b50505050565b60006002820490506001821680620003f057607f821691505b6020821081141562000407576200040662000443565b5b50919050565b6200041882620004a1565b810181811067ffffffffffffffff821117156200043a576200043962000472565b5b80604052505050565b7f4e487b7100000000000000000000000000000000000000000000000000000000600052602260045260246000fd5b7f4e487b7100000000000000000000000000000000000000000000000000000000600052604160045260246000fd5b6000601f19601f8301169050919050565b620004bd8162000363565b8114620004c957600080fd5b50565b620004d78162000397565b8114620004e357600080fd5b50565b60805160601c6116dc6200051a6000396000818161037c01528181610615015281816108f60152610ad801526116dc6000f3fe6080604052600436106100e85760003560e01c80637284e4161161008a578063c774126511610059578063c7741265146102f3578063d7bb99ba1461031c578063d7d1bbdb14610326578063da59cf761461034f576100e8565b80637284e4161461022a57806381d12c581461025557806382fde09314610297578063b16a867c146102c2576100e8565b80633410452a116100c65780633410452a1461017e57806340193883146101a9578063481c6a75146101d45780635afc2ab4146101ff576100e8565b806303441006146100ed57806306fdde03146101165780630a14439114610141575b600080fd5b3480156100f957600080fd5b50610114600480360381019061010f9190611052565b61037a565b005b34801561012257600080fd5b5061012b610553565b604051610138919061118f565b60405180910390f35b34801561014d57600080fd5b5061016860048036038101906101639190610f96565b6105e1565b6040516101759190611174565b60405180910390f35b34801561018a57600080fd5b50610193610601565b6040516101a09190611280565b60405180910390f35b3480156101b557600080fd5b506101be61060d565b6040516101cb9190611280565b60405180910390f35b3480156101e057600080fd5b506101e9610613565b6040516101f69190611159565b60405180910390f35b34801561020b57600080fd5b50610214610637565b604051610221919061118f565b60405180910390f35b34801561023657600080fd5b5061023f6106c5565b60405161024c919061118f565b60405180910390f35b34801561026157600080fd5b5061027c60048036038101906102779190611052565b610753565b60405161028e969594939291906111b1565b60405180910390f35b3480156102a357600080fd5b506102ac6108dc565b6040516102b99190611280565b60405180910390f35b3480156102ce57600080fd5b506102d76108e2565b6040516102ea979695949392919061129b565b60405180910390f35b3480156102ff57600080fd5b5061031a60048036038101906103159190610fbf565b610ad6565b005b610324610c33565b005b34801561033257600080fd5b5061034d60048036038101906103489190611052565b610ce9565b005b34801561035b57600080fd5b50610364610e5b565b6040516103719190611280565b60405180910390f35b7f000000000000000000000000000000000000000000000000000000000000000073ffffffffffffffffffffffffffffffffffffffff163373ffffffffffffffffffffffffffffffffffffffff1614610408576040517f08c379a00000000000000000000000000000000000000000000000000000000081526004016103ff90611220565b60405180910390fd5b6000808281548110610443577f4e487b7100000000000000000000000000000000000000000000000000000000600052603260045260246000fd5b9060005260206000209060060201905060026004546104629190611391565b8160040154116104a7576040517f08c379a000000000000000000000000000000000000000000000000000000000815260040161049e90611240565b60405180910390fd5b8060030160149054906101000a900460ff16156104c357600080fd5b8060030160009054906101000a900473ffffffffffffffffffffffffffffffffffffffff1673ffffffffffffffffffffffffffffffffffffffff166108fc82600201549081150290604051600060405180830381858888f19350505050158015610531573d6000803e3d6000fd5b5060018160030160146101000a81548160ff0219169083151502179055505050565b600580546105609061145e565b80601f016020809104026020016040519081016040528092919081815260200182805461058c9061145e565b80156105d95780601f106105ae576101008083540402835291602001916105d9565b820191906000526020600020905b8154815290600101906020018083116105bc57829003601f168201915b505050505081565b60026020528060005260406000206000915054906101000a900460ff1681565b60008080549050905090565b60035481565b7f000000000000000000000000000000000000000000000000000000000000000081565b600780546106449061145e565b80601f01602080910402602001604051908101604052809291908181526020018280546106709061145e565b80156106bd5780601f10610692576101008083540402835291602001916106bd565b820191906000526020600020905b8154815290600101906020018083116106a057829003601f168201915b505050505081565b600680546106d29061145e565b80601f01602080910402602001604051908101604052809291908181526020018280546106fe9061145e565b801561074b5780601f106107205761010080835404028352916020019161074b565b820191906000526020600020905b81548152906001019060200180831161072e57829003601f168201915b505050505081565b6000818154811061076357600080fd5b90600052602060002090600602016000915090508060000180546107869061145e565b80601f01602080910402602001604051908101604052809291908181526020018280546107b29061145e565b80156107ff5780601f106107d4576101008083540402835291602001916107ff565b820191906000526020600020905b8154815290600101906020018083116107e257829003601f168201915b5050505050908060010180546108149061145e565b80601f01602080910402602001604051908101604052809291908181526020018280546108409061145e565b801561088d5780601f106108625761010080835404028352916020019161088d565b820191906000526020600020905b81548152906001019060200180831161087057829003601f168201915b5050505050908060020154908060030160009054906101000a900473ffffffffffffffffffffffffffffffffffffffff16908060030160149054906101000a900460ff16908060040154905086565b60045481565b6000806000806060806060600154600354477f00000000000000000000000000000000000000000000000000000000000000006007600660058280546109279061145e565b80601f01602080910402602001604051908101604052809291908181526020018280546109539061145e565b80156109a05780601f10610975576101008083540402835291602001916109a0565b820191906000526020600020905b81548152906001019060200180831161098357829003601f168201915b505050505092508180546109b39061145e565b80601f01602080910402602001604051908101604052809291908181526020018280546109df9061145e565b8015610a2c5780601f10610a0157610100808354040283529160200191610a2c565b820191906000526020600020905b815481529060010190602001808311610a0f57829003601f168201915b50505050509150808054610a3f9061145e565b80601f0160208091040260200160405190810160405280929190818152602001828054610a6b9061145e565b8015610ab85780601f10610a8d57610100808354040283529160200191610ab8565b820191906000526020600020905b815481529060010190602001808311610a9b57829003601f168201915b50505050509050965096509650965096509650965090919293949596565b7f000000000000000000000000000000000000000000000000000000000000000073ffffffffffffffffffffffffffffffffffffffff163373ffffffffffffffffffffffffffffffffffffffff1614610b64576040517f08c379a0000000000000000000000000000000000000000000000000000000008152600401610b5b90611220565b60405180910390fd5b600080600181600181540180825580915050039060005260206000209060060201905084816000019080519060200190610b9f929190610e61565b5083816001019080519060200190610bb8929190610e61565b50828160020181905550818160030160006101000a81548173ffffffffffffffffffffffffffffffffffffffff021916908373ffffffffffffffffffffffffffffffffffffffff16021790555060008160030160146101000a81548160ff021916908315150217905550600081600401819055505050505050565b6001543411610c77576040517f08c379a0000000000000000000000000000000000000000000000000000000008152600401610c6e90611260565b60405180910390fd5b6001600260003373ffffffffffffffffffffffffffffffffffffffff1673ffffffffffffffffffffffffffffffffffffffff16815260200190815260200160002060006101000a81548160ff02191690831515021790555060046000815480929190610ce2906114c1565b9190505550565b6000808281548110610d24577f4e487b7100000000000000000000000000000000000000000000000000000000600052603260045260246000fd5b90600052602060002090600602019050600260003373ffffffffffffffffffffffffffffffffffffffff1673ffffffffffffffffffffffffffffffffffffffff16815260200190815260200160002060009054906101000a900460ff16610d8a57600080fd5b8060050160003373ffffffffffffffffffffffffffffffffffffffff1673ffffffffffffffffffffffffffffffffffffffff16815260200190815260200160002060009054906101000a900460ff1615610de357600080fd5b60018160050160003373ffffffffffffffffffffffffffffffffffffffff1673ffffffffffffffffffffffffffffffffffffffff16815260200190815260200160002060006101000a81548160ff021916908315150217905550806004016000815480929190610e52906114c1565b91905055505050565b60015481565b828054610e6d9061145e565b90600052602060002090601f016020900481019282610e8f5760008555610ed6565b82601f10610ea857805160ff1916838001178555610ed6565b82800160010185558215610ed6579182015b82811115610ed5578251825591602001919060010190610eba565b5b509050610ee39190610ee7565b5090565b5b80821115610f00576000816000905550600101610ee8565b5090565b6000610f17610f1284611344565b61131f565b905082815260208101848484011115610f2f57600080fd5b610f3a84828561141c565b509392505050565b600081359050610f5181611678565b92915050565b600082601f830112610f6857600080fd5b8135610f78848260208601610f04565b91505092915050565b600081359050610f908161168f565b92915050565b600060208284031215610fa857600080fd5b6000610fb684828501610f42565b91505092915050565b60008060008060808587031215610fd557600080fd5b600085013567ffffffffffffffff811115610fef57600080fd5b610ffb87828801610f57565b945050602085013567ffffffffffffffff81111561101857600080fd5b61102487828801610f57565b935050604061103587828801610f81565b925050606061104687828801610f42565b91505092959194509250565b60006020828403121561106457600080fd5b600061107284828501610f81565b91505092915050565b611084816113d4565b82525050565b611093816113c2565b82525050565b6110a2816113e6565b82525050565b60006110b382611375565b6110bd8185611380565b93506110cd81856020860161142b565b6110d6816115c6565b840191505092915050565b60006110ee601483611380565b91506110f9826115d7565b602082019050919050565b6000611111602c83611380565b915061111c82611600565b604082019050919050565b6000611134601c83611380565b915061113f8261164f565b602082019050919050565b61115381611412565b82525050565b600060208201905061116e600083018461108a565b92915050565b60006020820190506111896000830184611099565b92915050565b600060208201905081810360008301526111a981846110a8565b905092915050565b600060c08201905081810360008301526111cb81896110a8565b905081810360208301526111df81886110a8565b90506111ee604083018761114a565b6111fb606083018661107b565b6112086080830185611099565b61121560a083018461114a565b979650505050505050565b60006020820190508181036000830152611239816110e1565b9050919050565b6000602082019050818103600083015261125981611104565b9050919050565b6000602082019050818103600083015261127981611127565b9050919050565b6000602082019050611295600083018461114a565b92915050565b600060e0820190506112b0600083018a61114a565b6112bd602083018961114a565b6112ca604083018861114a565b6112d7606083018761108a565b81810360808301526112e981866110a8565b905081810360a08301526112fd81856110a8565b905081810360c083015261131181846110a8565b905098975050505050505050565b600061132961133a565b90506113358282611490565b919050565b6000604051905090565b600067ffffffffffffffff82111561135f5761135e611597565b5b611368826115c6565b9050602081019050919050565b600081519050919050565b600082825260208201905092915050565b600061139c82611412565b91506113a783611412565b9250826113b7576113b6611539565b5b828204905092915050565b60006113cd826113f2565b9050919050565b60006113df826113f2565b9050919050565b60008115159050919050565b600073ffffffffffffffffffffffffffffffffffffffff82169050919050565b6000819050919050565b82818337600083830152505050565b60005b8381101561144957808201518184015260208101905061142e565b83811115611458576000848401525b50505050565b6000600282049050600182168061147657607f821691505b6020821081141561148a57611489611568565b5b50919050565b611499826115c6565b810181811067ffffffffffffffff821117156114b8576114b7611597565b5b80604052505050565b60006114cc82611412565b91507fffffffffffffffffffffffffffffffffffffffffffffffffffffffffffffffff8214156114ff576114fe61150a565b5b600182019050919050565b7f4e487b7100000000000000000000000000000000000000000000000000000000600052601160045260246000fd5b7f4e487b7100000000000000000000000000000000000000000000000000000000600052601260045260246000fd5b7f4e487b7100000000000000000000000000000000000000000000000000000000600052602260045260246000fd5b7f4e487b7100000000000000000000000000000000000000000000000000000000600052604160045260246000fd5b6000601f19601f8301169050919050565b7f4f6e6c79206d616e6167657220616c6c6f776564000000000000000000000000600082015250565b7f4e6f7420656e6f7567682070656f706c65206861766520617070726f7665642060008201527f7468697320726571756573740000000000000000000000000000000000000000602082015250565b7f4d696e696d756d20636f6e747269627574696f6e206e6f74206d657400000000600082015250565b611681816113c2565b811461168c57600080fd5b50565b61169881611412565b81146116a357600080fd5b5056fea2646970667358221220835e462368a9a3c0fb184f67637f2ee1963f5a2feb8b08bd54d154566f7a8d0464736f6c63430008040033",
  "linkReferences": {},
  "deployedLinkReferences": {}
}