{
  "_format": "hh-sol-artifact-1",
  "contractName": "CampaignFactory",
  "sourceName": "contracts/Campaign.sol",
  "abi": [
    {
      "inputs": [
        {
          "internalType": "string",
          "name": "name",
          "type": "string"
        },
        {
          "internalType": "uint256",
          "name": "minimum",
          "type": "uint256"
        },
        {
          "internalType": "string",
          "name": "description",
          "type": "string"
        },
        {
          "internalType": "string",
          "name": "thumbnail",
          "type": "string"
        }
      ],
      "name": "createCampaign",
      "outputs": [],
      "stateMutability": "nonpayable",
      "type": "function"
    },
    {
      "inputs": [
        {
          "internalType": "uint256",
          "name": "",
          "type": "uint256"
        }
      ],
      "name": "deployedCampaigns",
      "outputs": [
        {
          "internalType": "address",
          "name": "",
          "type": "address"
        }
      ],
      "stateMutability": "view",
      "type": "function"
    },
    {
      "inputs": [],
      "name": "getDeployedCampaigns",
      "outputs": [
        {
          "internalType": "address[]",
          "name": "",
          "type": "address[]"
        }
      ],
      "stateMutability": "view",
      "type": "function"
    }
  ],
  "bytecode": "0x608060405234801561001057600080fd5b506122da806100206000396000f3fe60806040523480156200001157600080fd5b5060043610620000465760003560e01c8063339d50a5146200004b5780634acb9d4f146200008157806351b1f46314620000a3575b600080fd5b62000069600480360381019062000063919062000390565b620000c3565b604051620000789190620004b4565b60405180910390f35b6200008b62000103565b6040516200009a9190620004d1565b60405180910390f35b620000c16004803603810190620000bb9190620002d9565b62000193565b005b60008181548110620000d457600080fd5b906000526020600020016000915054906101000a900473ffffffffffffffffffffffffffffffffffffffff1681565b606060008054806020026020016040519081016040528092919081815260200182805480156200018957602002820191906000526020600020905b8160009054906101000a900473ffffffffffffffffffffffffffffffffffffffff1673ffffffffffffffffffffffffffffffffffffffff16815260200190600101908083116200013e575b5050505050905090565b60008484338585604051620001a89062000242565b620001b8959493929190620004f5565b604051809103906000f080158015620001d5573d6000803e3d6000fd5b5090506000819080600181540180825580915050600190039060005260206000200160009091909190916101000a81548173ffffffffffffffffffffffffffffffffffffffff021916908373ffffffffffffffffffffffffffffffffffffffff1602179055505050505050565b611b76806200072f83390190565b600062000267620002618462000590565b62000567565b9050828152602081018484840111156200028057600080fd5b6200028d84828562000659565b509392505050565b600082601f830112620002a757600080fd5b8135620002b984826020860162000250565b91505092915050565b600081359050620002d38162000714565b92915050565b60008060008060808587031215620002f057600080fd5b600085013567ffffffffffffffff8111156200030b57600080fd5b620003198782880162000295565b94505060206200032c87828801620002c2565b935050604085013567ffffffffffffffff8111156200034a57600080fd5b620003588782880162000295565b925050606085013567ffffffffffffffff8111156200037657600080fd5b620003848782880162000295565b91505092959194509250565b600060208284031215620003a357600080fd5b6000620003b384828501620002c2565b91505092915050565b6000620003ca8383620003d6565b60208301905092915050565b620003e1816200061b565b82525050565b620003f2816200061b565b82525050565b60006200040582620005d6565b620004118185620005f9565b93506200041e83620005c6565b8060005b8381101562000455578151620004398882620003bc565b97506200044683620005ec565b92505060018101905062000422565b5085935050505092915050565b60006200046f82620005e1565b6200047b81856200060a565b93506200048d81856020860162000668565b620004988162000703565b840191505092915050565b620004ae816200064f565b82525050565b6000602082019050620004cb6000830184620003e7565b92915050565b60006020820190508181036000830152620004ed8184620003f8565b905092915050565b600060a082019050818103600083015262000511818862000462565b9050620005226020830187620004a3565b620005316040830186620003e7565b818103606083015262000545818562000462565b905081810360808301526200055b818462000462565b90509695505050505050565b60006200057362000586565b90506200058182826200069e565b919050565b6000604051905090565b600067ffffffffffffffff821115620005ae57620005ad620006d4565b5b620005b98262000703565b9050602081019050919050565b6000819050602082019050919050565b600081519050919050565b600081519050919050565b6000602082019050919050565b600082825260208201905092915050565b600082825260208201905092915050565b600062000628826200062f565b9050919050565b600073ffffffffffffffffffffffffffffffffffffffff82169050919050565b6000819050919050565b82818337600083830152505050565b60005b83811015620006885780820151818401526020810190506200066b565b8381111562000698576000848401525b50505050565b620006a98262000703565b810181811067ffffffffffffffff82111715620006cb57620006ca620006d4565b5b80604052505050565b7f4e487b7100000000000000000000000000000000000000000000000000000000600052604160045260246000fd5b6000601f19601f8301169050919050565b6200071f816200064f565b81146200072b57600080fd5b5056fe60806040523480156200001157600080fd5b5060405162001b7638038062001b76833981810160405281019062000037919062000225565b82600160006101000a81548173ffffffffffffffffffffffffffffffffffffffff021916908373ffffffffffffffffffffffffffffffffffffffff160217905550846005908051906020019062000090929190620000d5565b508160069080519060200190620000a9929190620000d5565b508060079080519060200190620000c2929190620000d5565b50836002819055505050505050620004d4565b828054620000e390620003c5565b90600052602060002090601f01602090048101928262000107576000855562000153565b82601f106200012257805160ff191683800117855562000153565b8280016001018555821562000153579182015b828111156200015257825182559160200191906001019062000135565b5b50905062000162919062000166565b5090565b5b808211156200018157600081600090555060010162000167565b5090565b60006200019c62000196846200031b565b620002f2565b905082815260208101848484011115620001b557600080fd5b620001c28482856200038f565b509392505050565b600081519050620001db81620004a0565b92915050565b600082601f830112620001f357600080fd5b81516200020584826020860162000185565b91505092915050565b6000815190506200021f81620004ba565b92915050565b600080600080600060a086880312156200023e57600080fd5b600086015167ffffffffffffffff8111156200025957600080fd5b6200026788828901620001e1565b95505060206200027a888289016200020e565b94505060406200028d88828901620001ca565b935050606086015167ffffffffffffffff811115620002ab57600080fd5b620002b988828901620001e1565b925050608086015167ffffffffffffffff811115620002d757600080fd5b620002e588828901620001e1565b9150509295509295909350565b6000620002fe62000311565b90506200030c8282620003fb565b919050565b6000604051905090565b600067ffffffffffffffff82111562000339576200033862000460565b5b62000344826200048f565b9050602081019050919050565b60006200035e8262000365565b9050919050565b600073ffffffffffffffffffffffffffffffffffffffff82169050919050565b6000819050919050565b60005b83811015620003af57808201518184015260208101905062000392565b83811115620003bf576000848401525b50505050565b60006002820490506001821680620003de57607f821691505b60208210811415620003f557620003f462000431565b5b50919050565b62000406826200048f565b810181811067ffffffffffffffff8211171562000428576200042762000460565b5b80604052505050565b7f4e487b7100000000000000000000000000000000000000000000000000000000600052602260045260246000fd5b7f4e487b7100000000000000000000000000000000000000000000000000000000600052604160045260246000fd5b6000601f19601f8301169050919050565b620004ab8162000351565b8114620004b757600080fd5b50565b620004c58162000385565b8114620004d157600080fd5b50565b61169280620004e46000396000f3fe6080604052600436106100dd5760003560e01c806381d12c581161007f578063c774126511610059578063c7741265146102bc578063d7bb99ba146102e5578063d7d1bbdb146102ef578063da59cf7614610318576100dd565b806381d12c581461021f57806382fde09314610261578063b16a867c1461028c576100dd565b80633410452a116100bb5780633410452a14610173578063481c6a751461019e5780635afc2ab4146101c95780637284e416146101f4576100dd565b806303441006146100e257806306fdde031461010b5780630a14439114610136575b600080fd5b3480156100ee57600080fd5b5061010960048036038101906101049190611016565b610343565b005b34801561011757600080fd5b5061012061051e565b60405161012d9190611153565b60405180910390f35b34801561014257600080fd5b5061015d60048036038101906101589190610f5a565b6105ac565b60405161016a9190611138565b60405180910390f35b34801561017f57600080fd5b506101886105cc565b6040516101959190611244565b60405180910390f35b3480156101aa57600080fd5b506101b36105d8565b6040516101c0919061111d565b60405180910390f35b3480156101d557600080fd5b506101de6105fe565b6040516101eb9190611153565b60405180910390f35b34801561020057600080fd5b5061020961068c565b6040516102169190611153565b60405180910390f35b34801561022b57600080fd5b5061024660048036038101906102419190611016565b61071a565b60405161025896959493929190611175565b60405180910390f35b34801561026d57600080fd5b506102766108a3565b6040516102839190611244565b60405180910390f35b34801561029857600080fd5b506102a16108a9565b6040516102b39695949392919061125f565b60405180910390f35b3480156102c857600080fd5b506102e360048036038101906102de9190610f83565b610a98565b005b6102ed610bf7565b005b3480156102fb57600080fd5b5061031660048036038101906103119190611016565b610cad565b005b34801561032457600080fd5b5061032d610e1f565b60405161033a9190611244565b60405180910390f35b600160009054906101000a900473ffffffffffffffffffffffffffffffffffffffff1673ffffffffffffffffffffffffffffffffffffffff163373ffffffffffffffffffffffffffffffffffffffff16146103d3576040517f08c379a00000000000000000000000000000000000000000000000000000000081526004016103ca906111e4565b60405180910390fd5b600080828154811061040e577f4e487b7100000000000000000000000000000000000000000000000000000000600052603260045260246000fd5b90600052602060002090600602019050600260045461042d9190611347565b816004015411610472576040517f08c379a000000000000000000000000000000000000000000000000000000000815260040161046990611204565b60405180910390fd5b8060030160149054906101000a900460ff161561048e57600080fd5b8060030160009054906101000a900473ffffffffffffffffffffffffffffffffffffffff1673ffffffffffffffffffffffffffffffffffffffff166108fc82600201549081150290604051600060405180830381858888f193505050501580156104fc573d6000803e3d6000fd5b5060018160030160146101000a81548160ff0219169083151502179055505050565b6005805461052b90611414565b80601f016020809104026020016040519081016040528092919081815260200182805461055790611414565b80156105a45780601f10610579576101008083540402835291602001916105a4565b820191906000526020600020905b81548152906001019060200180831161058757829003601f168201915b505050505081565b60036020528060005260406000206000915054906101000a900460ff1681565b60008080549050905090565b600160009054906101000a900473ffffffffffffffffffffffffffffffffffffffff1681565b6007805461060b90611414565b80601f016020809104026020016040519081016040528092919081815260200182805461063790611414565b80156106845780601f1061065957610100808354040283529160200191610684565b820191906000526020600020905b81548152906001019060200180831161066757829003601f168201915b505050505081565b6006805461069990611414565b80601f01602080910402602001604051908101604052809291908181526020018280546106c590611414565b80156107125780601f106106e757610100808354040283529160200191610712565b820191906000526020600020905b8154815290600101906020018083116106f557829003601f168201915b505050505081565b6000818154811061072a57600080fd5b906000526020600020906006020160009150905080600001805461074d90611414565b80601f016020809104026020016040519081016040528092919081815260200182805461077990611414565b80156107c65780601f1061079b576101008083540402835291602001916107c6565b820191906000526020600020905b8154815290600101906020018083116107a957829003601f168201915b5050505050908060010180546107db90611414565b80601f016020809104026020016040519081016040528092919081815260200182805461080790611414565b80156108545780601f1061082957610100808354040283529160200191610854565b820191906000526020600020905b81548152906001019060200180831161083757829003601f168201915b5050505050908060020154908060030160009054906101000a900473ffffffffffffffffffffffffffffffffffffffff16908060030160149054906101000a900460ff16908060040154905086565b60045481565b6000806000606080606060025447600160009054906101000a900473ffffffffffffffffffffffffffffffffffffffff166007600660058280546108ec90611414565b80601f016020809104026020016040519081016040528092919081815260200182805461091890611414565b80156109655780601f1061093a57610100808354040283529160200191610965565b820191906000526020600020905b81548152906001019060200180831161094857829003601f168201915b5050505050925081805461097890611414565b80601f01602080910402602001604051908101604052809291908181526020018280546109a490611414565b80156109f15780601f106109c6576101008083540402835291602001916109f1565b820191906000526020600020905b8154815290600101906020018083116109d457829003601f168201915b50505050509150808054610a0490611414565b80601f0160208091040260200160405190810160405280929190818152602001828054610a3090611414565b8015610a7d5780601f10610a5257610100808354040283529160200191610a7d565b820191906000526020600020905b815481529060010190602001808311610a6057829003601f168201915b50505050509050955095509550955095509550909192939495565b600160009054906101000a900473ffffffffffffffffffffffffffffffffffffffff1673ffffffffffffffffffffffffffffffffffffffff163373ffffffffffffffffffffffffffffffffffffffff1614610b28576040517f08c379a0000000000000000000000000000000000000000000000000000000008152600401610b1f906111e4565b60405180910390fd5b600080600181600181540180825580915050039060005260206000209060060201905084816000019080519060200190610b63929190610e25565b5083816001019080519060200190610b7c929190610e25565b50828160020181905550818160030160006101000a81548173ffffffffffffffffffffffffffffffffffffffff021916908373ffffffffffffffffffffffffffffffffffffffff16021790555060008160030160146101000a81548160ff021916908315150217905550600081600401819055505050505050565b6002543411610c3b576040517f08c379a0000000000000000000000000000000000000000000000000000000008152600401610c3290611224565b60405180910390fd5b6001600360003373ffffffffffffffffffffffffffffffffffffffff1673ffffffffffffffffffffffffffffffffffffffff16815260200190815260200160002060006101000a81548160ff02191690831515021790555060046000815480929190610ca690611477565b9190505550565b6000808281548110610ce8577f4e487b7100000000000000000000000000000000000000000000000000000000600052603260045260246000fd5b90600052602060002090600602019050600360003373ffffffffffffffffffffffffffffffffffffffff1673ffffffffffffffffffffffffffffffffffffffff16815260200190815260200160002060009054906101000a900460ff16610d4e57600080fd5b8060050160003373ffffffffffffffffffffffffffffffffffffffff1673ffffffffffffffffffffffffffffffffffffffff16815260200190815260200160002060009054906101000a900460ff1615610da757600080fd5b60018160050160003373ffffffffffffffffffffffffffffffffffffffff1673ffffffffffffffffffffffffffffffffffffffff16815260200190815260200160002060006101000a81548160ff021916908315150217905550806004016000815480929190610e1690611477565b91905055505050565b60025481565b828054610e3190611414565b90600052602060002090601f016020900481019282610e535760008555610e9a565b82601f10610e6c57805160ff1916838001178555610e9a565b82800160010185558215610e9a579182015b82811115610e99578251825591602001919060010190610e7e565b5b509050610ea79190610eab565b5090565b5b80821115610ec4576000816000905550600101610eac565b5090565b6000610edb610ed6846112fa565b6112d5565b905082815260208101848484011115610ef357600080fd5b610efe8482856113d2565b509392505050565b600081359050610f158161162e565b92915050565b600082601f830112610f2c57600080fd5b8135610f3c848260208601610ec8565b91505092915050565b600081359050610f5481611645565b92915050565b600060208284031215610f6c57600080fd5b6000610f7a84828501610f06565b91505092915050565b60008060008060808587031215610f9957600080fd5b600085013567ffffffffffffffff811115610fb357600080fd5b610fbf87828801610f1b565b945050602085013567ffffffffffffffff811115610fdc57600080fd5b610fe887828801610f1b565b9350506040610ff987828801610f45565b925050606061100a87828801610f06565b91505092959194509250565b60006020828403121561102857600080fd5b600061103684828501610f45565b91505092915050565b6110488161138a565b82525050565b61105781611378565b82525050565b6110668161139c565b82525050565b60006110778261132b565b6110818185611336565b93506110918185602086016113e1565b61109a8161157c565b840191505092915050565b60006110b2601483611336565b91506110bd8261158d565b602082019050919050565b60006110d5602c83611336565b91506110e0826115b6565b604082019050919050565b60006110f8601c83611336565b915061110382611605565b602082019050919050565b611117816113c8565b82525050565b6000602082019050611132600083018461104e565b92915050565b600060208201905061114d600083018461105d565b92915050565b6000602082019050818103600083015261116d818461106c565b905092915050565b600060c082019050818103600083015261118f818961106c565b905081810360208301526111a3818861106c565b90506111b2604083018761110e565b6111bf606083018661103f565b6111cc608083018561105d565b6111d960a083018461110e565b979650505050505050565b600060208201905081810360008301526111fd816110a5565b9050919050565b6000602082019050818103600083015261121d816110c8565b9050919050565b6000602082019050818103600083015261123d816110eb565b9050919050565b6000602082019050611259600083018461110e565b92915050565b600060c082019050611274600083018961110e565b611281602083018861110e565b61128e604083018761104e565b81810360608301526112a0818661106c565b905081810360808301526112b4818561106c565b905081810360a08301526112c8818461106c565b9050979650505050505050565b60006112df6112f0565b90506112eb8282611446565b919050565b6000604051905090565b600067ffffffffffffffff8211156113155761131461154d565b5b61131e8261157c565b9050602081019050919050565b600081519050919050565b600082825260208201905092915050565b6000611352826113c8565b915061135d836113c8565b92508261136d5761136c6114ef565b5b828204905092915050565b6000611383826113a8565b9050919050565b6000611395826113a8565b9050919050565b60008115159050919050565b600073ffffffffffffffffffffffffffffffffffffffff82169050919050565b6000819050919050565b82818337600083830152505050565b60005b838110156113ff5780820151818401526020810190506113e4565b8381111561140e576000848401525b50505050565b6000600282049050600182168061142c57607f821691505b602082108114156114405761143f61151e565b5b50919050565b61144f8261157c565b810181811067ffffffffffffffff8211171561146e5761146d61154d565b5b80604052505050565b6000611482826113c8565b91507fffffffffffffffffffffffffffffffffffffffffffffffffffffffffffffffff8214156114b5576114b46114c0565b5b600182019050919050565b7f4e487b7100000000000000000000000000000000000000000000000000000000600052601160045260246000fd5b7f4e487b7100000000000000000000000000000000000000000000000000000000600052601260045260246000fd5b7f4e487b7100000000000000000000000000000000000000000000000000000000600052602260045260246000fd5b7f4e487b7100000000000000000000000000000000000000000000000000000000600052604160045260246000fd5b6000601f19601f8301169050919050565b7f4f6e6c79206d616e6167657220616c6c6f776564000000000000000000000000600082015250565b7f4e6f7420656e6f7567682070656f706c65206861766520617070726f7665642060008201527f7468697320726571756573740000000000000000000000000000000000000000602082015250565b7f4d696e696d756d20636f6e747269627574696f6e206e6f74206d657400000000600082015250565b61163781611378565b811461164257600080fd5b50565b61164e816113c8565b811461165957600080fd5b5056fea2646970667358221220a76bc3cc93c7a5ef42dce2fb9652867f0982629c0bee4610ce1da6b72af337d564736f6c63430008040033a2646970667358221220d34bbe778311e92e9080cba997f37e0aff1500d027ed03c035684c99945606bd64736f6c63430008040033",
  "linkReferences": {},
  "deployedLinkReferences": {}
}