{
  "_format": "hh-sol-artifact-1",
  "contractName": "Campaign",
  "sourceName": "contracts/Campaign.sol",
  "abi": [
    {
      "inputs": [
        {
          "internalType": "string",
          "name": "_name",
          "type": "string"
        },
        {
          "internalType": "uint256",
          "name": "_minimum",
          "type": "uint256"
        },
        {
          "internalType": "uint256",
          "name": "_goal",
          "type": "uint256"
        },
        {
          "internalType": "address",
          "name": "creator",
          "type": "address"
        },
        {
          "internalType": "string",
          "name": "_description",
          "type": "string"
        },
        {
          "internalType": "string",
          "name": "_thumbnail",
          "type": "string"
        }
      ],
      "stateMutability": "nonpayable",
      "type": "constructor"
    },
    {
      "inputs": [
        {
          "internalType": "uint256",
          "name": "index",
          "type": "uint256"
        }
      ],
      "name": "approveRequest",
      "outputs": [],
      "stateMutability": "nonpayable",
      "type": "function"
    },
    {
      "inputs": [
        {
          "internalType": "address",
          "name": "",
          "type": "address"
        }
      ],
      "name": "approvers",
      "outputs": [
        {
          "internalType": "bool",
          "name": "",
          "type": "bool"
        }
      ],
      "stateMutability": "view",
      "type": "function"
    },
    {
      "inputs": [],
      "name": "approversCount",
      "outputs": [
        {
          "internalType": "uint256",
          "name": "",
          "type": "uint256"
        }
      ],
      "stateMutability": "view",
      "type": "function"
    },
    {
      "inputs": [],
      "name": "contribute",
      "outputs": [],
      "stateMutability": "payable",
      "type": "function"
    },
    {
      "inputs": [
        {
          "internalType": "string",
          "name": "_title",
          "type": "string"
        },
        {
          "internalType": "string",
          "name": "_description",
          "type": "string"
        },
        {
          "internalType": "uint256",
          "name": "_value",
          "type": "uint256"
        },
        {
          "internalType": "address",
          "name": "_recipient",
          "type": "address"
        }
      ],
      "name": "createRequest",
      "outputs": [],
      "stateMutability": "nonpayable",
      "type": "function"
    },
    {
      "inputs": [
        {
          "internalType": "uint256",
          "name": "index",
          "type": "uint256"
        }
      ],
      "name": "denyRequest",
      "outputs": [],
      "stateMutability": "nonpayable",
      "type": "function"
    },
    {
      "inputs": [],
      "name": "description",
      "outputs": [
        {
          "internalType": "string",
          "name": "",
          "type": "string"
        }
      ],
      "stateMutability": "view",
      "type": "function"
    },
    {
      "inputs": [
        {
          "internalType": "uint256",
          "name": "index",
          "type": "uint256"
        }
      ],
      "name": "finalizeRequest",
      "outputs": [],
      "stateMutability": "nonpayable",
      "type": "function"
    },
    {
      "inputs": [],
      "name": "getRequestsCount",
      "outputs": [
        {
          "internalType": "uint256",
          "name": "",
          "type": "uint256"
        }
      ],
      "stateMutability": "view",
      "type": "function"
    },
    {
      "inputs": [],
      "name": "goal",
      "outputs": [
        {
          "internalType": "uint256",
          "name": "",
          "type": "uint256"
        }
      ],
      "stateMutability": "view",
      "type": "function"
    },
    {
      "inputs": [],
      "name": "manager",
      "outputs": [
        {
          "internalType": "address",
          "name": "",
          "type": "address"
        }
      ],
      "stateMutability": "view",
      "type": "function"
    },
    {
      "inputs": [],
      "name": "minimum_contribution",
      "outputs": [
        {
          "internalType": "uint256",
          "name": "",
          "type": "uint256"
        }
      ],
      "stateMutability": "view",
      "type": "function"
    },
    {
      "inputs": [],
      "name": "name",
      "outputs": [
        {
          "internalType": "string",
          "name": "",
          "type": "string"
        }
      ],
      "stateMutability": "view",
      "type": "function"
    },
    {
      "inputs": [
        {
          "internalType": "uint256",
          "name": "",
          "type": "uint256"
        }
      ],
      "name": "requests",
      "outputs": [
        {
          "internalType": "string",
          "name": "title",
          "type": "string"
        },
        {
          "internalType": "string",
          "name": "description",
          "type": "string"
        },
        {
          "internalType": "uint256",
          "name": "value",
          "type": "uint256"
        },
        {
          "internalType": "address payable",
          "name": "recipient",
          "type": "address"
        },
        {
          "internalType": "bool",
          "name": "complete",
          "type": "bool"
        },
        {
          "internalType": "uint256",
          "name": "approvalCount",
          "type": "uint256"
        }
      ],
      "stateMutability": "view",
      "type": "function"
    },
    {
      "inputs": [],
      "name": "summary",
      "outputs": [
        {
          "internalType": "uint256",
          "name": "",
          "type": "uint256"
        },
        {
          "internalType": "uint256",
          "name": "",
          "type": "uint256"
        },
        {
          "internalType": "uint256",
          "name": "",
          "type": "uint256"
        },
        {
          "internalType": "address",
          "name": "",
          "type": "address"
        },
        {
          "internalType": "string",
          "name": "",
          "type": "string"
        },
        {
          "internalType": "string",
          "name": "",
          "type": "string"
        },
        {
          "internalType": "string",
          "name": "",
          "type": "string"
        }
      ],
      "stateMutability": "view",
      "type": "function"
    },
    {
      "inputs": [],
      "name": "thumbnail",
      "outputs": [
        {
          "internalType": "string",
          "name": "",
          "type": "string"
        }
      ],
      "stateMutability": "view",
      "type": "function"
    }
  ],
  "bytecode": "0x60a06040523480156200001157600080fd5b5060405162001d8238038062001d82833981810160405281019062000037919062000223565b8273ffffffffffffffffffffffffffffffffffffffff1660808173ffffffffffffffffffffffffffffffffffffffff1660601b81525050856005908051906020019062000086929190620000d3565b5081600690805190602001906200009f929190620000d3565b50836003819055508060079080519060200190620000bf929190620000d3565b5084600181905550505050505050620004e6565b828054620000e190620003d7565b90600052602060002090601f01602090048101928262000105576000855562000151565b82601f106200012057805160ff191683800117855562000151565b8280016001018555821562000151579182015b828111156200015057825182559160200191906001019062000133565b5b50905062000160919062000164565b5090565b5b808211156200017f57600081600090555060010162000165565b5090565b60006200019a62000194846200032d565b62000304565b905082815260208101848484011115620001b357600080fd5b620001c0848285620003a1565b509392505050565b600081519050620001d981620004b2565b92915050565b600082601f830112620001f157600080fd5b81516200020384826020860162000183565b91505092915050565b6000815190506200021d81620004cc565b92915050565b60008060008060008060c087890312156200023d57600080fd5b600087015167ffffffffffffffff8111156200025857600080fd5b6200026689828a01620001df565b96505060206200027989828a016200020c565b95505060406200028c89828a016200020c565b94505060606200029f89828a01620001c8565b935050608087015167ffffffffffffffff811115620002bd57600080fd5b620002cb89828a01620001df565b92505060a087015167ffffffffffffffff811115620002e957600080fd5b620002f789828a01620001df565b9150509295509295509295565b60006200031062000323565b90506200031e82826200040d565b919050565b6000604051905090565b600067ffffffffffffffff8211156200034b576200034a62000472565b5b6200035682620004a1565b9050602081019050919050565b6000620003708262000377565b9050919050565b600073ffffffffffffffffffffffffffffffffffffffff82169050919050565b6000819050919050565b60005b83811015620003c1578082015181840152602081019050620003a4565b83811115620003d1576000848401525b50505050565b60006002820490506001821680620003f057607f821691505b6020821081141562000407576200040662000443565b5b50919050565b6200041882620004a1565b810181811067ffffffffffffffff821117156200043a576200043962000472565b5b80604052505050565b7f4e487b7100000000000000000000000000000000000000000000000000000000600052602260045260246000fd5b7f4e487b7100000000000000000000000000000000000000000000000000000000600052604160045260246000fd5b6000601f19601f8301169050919050565b620004bd8162000363565b8114620004c957600080fd5b50565b620004d78162000397565b8114620004e357600080fd5b50565b60805160601c6118686200051a600039600081816103b00152818161064901528181610a820152610c6401526118686000f3fe6080604052600436106100f35760003560e01c806379f96c571161008a578063c774126511610059578063c774126514610327578063d7bb99ba14610350578063d7d1bbdb1461035a578063da59cf7614610383576100f3565b806379f96c571461026057806381d12c581461028957806382fde093146102cb578063b16a867c146102f6576100f3565b806340193883116100c657806340193883146101b4578063481c6a75146101df5780635afc2ab41461020a5780637284e41614610235576100f3565b806303441006146100f857806306fdde03146101215780630a1443911461014c5780633410452a14610189575b600080fd5b34801561010457600080fd5b5061011f600480360381019061011a91906111de565b6103ae565b005b34801561012d57600080fd5b50610136610587565b604051610143919061131b565b60405180910390f35b34801561015857600080fd5b50610173600480360381019061016e9190611122565b610615565b6040516101809190611300565b60405180910390f35b34801561019557600080fd5b5061019e610635565b6040516101ab919061140c565b60405180910390f35b3480156101c057600080fd5b506101c9610641565b6040516101d6919061140c565b60405180910390f35b3480156101eb57600080fd5b506101f4610647565b60405161020191906112e5565b60405180910390f35b34801561021657600080fd5b5061021f61066b565b60405161022c919061131b565b60405180910390f35b34801561024157600080fd5b5061024a6106f9565b604051610257919061131b565b60405180910390f35b34801561026c57600080fd5b50610287600480360381019061028291906111de565b610787565b005b34801561029557600080fd5b506102b060048036038101906102ab91906111de565b6108df565b6040516102c29695949392919061133d565b60405180910390f35b3480156102d757600080fd5b506102e0610a68565b6040516102ed919061140c565b60405180910390f35b34801561030257600080fd5b5061030b610a6e565b60405161031e9796959493929190611427565b60405180910390f35b34801561033357600080fd5b5061034e6004803603810190610349919061114b565b610c62565b005b610358610dbf565b005b34801561036657600080fd5b50610381600480360381019061037c91906111de565b610e75565b005b34801561038f57600080fd5b50610398610fe7565b6040516103a5919061140c565b60405180910390f35b7f000000000000000000000000000000000000000000000000000000000000000073ffffffffffffffffffffffffffffffffffffffff163373ffffffffffffffffffffffffffffffffffffffff161461043c576040517f08c379a0000000000000000000000000000000000000000000000000000000008152600401610433906113ac565b60405180910390fd5b6000808281548110610477577f4e487b7100000000000000000000000000000000000000000000000000000000600052603260045260246000fd5b906000526020600020906007020190506002600454610496919061151d565b8160040154116104db576040517f08c379a00000000000000000000000000000000000000000000000000000000081526004016104d2906113cc565b60405180910390fd5b8060030160149054906101000a900460ff16156104f757600080fd5b8060030160009054906101000a900473ffffffffffffffffffffffffffffffffffffffff1673ffffffffffffffffffffffffffffffffffffffff166108fc82600201549081150290604051600060405180830381858888f19350505050158015610565573d6000803e3d6000fd5b5060018160030160146101000a81548160ff0219169083151502179055505050565b60058054610594906115ea565b80601f01602080910402602001604051908101604052809291908181526020018280546105c0906115ea565b801561060d5780601f106105e25761010080835404028352916020019161060d565b820191906000526020600020905b8154815290600101906020018083116105f057829003601f168201915b505050505081565b60026020528060005260406000206000915054906101000a900460ff1681565b60008080549050905090565b60035481565b7f000000000000000000000000000000000000000000000000000000000000000081565b60078054610678906115ea565b80601f01602080910402602001604051908101604052809291908181526020018280546106a4906115ea565b80156106f15780601f106106c6576101008083540402835291602001916106f1565b820191906000526020600020905b8154815290600101906020018083116106d457829003601f168201915b505050505081565b60068054610706906115ea565b80601f0160208091040260200160405190810160405280929190818152602001828054610732906115ea565b801561077f5780601f106107545761010080835404028352916020019161077f565b820191906000526020600020905b81548152906001019060200180831161076257829003601f168201915b505050505081565b60008082815481106107c2577f4e487b7100000000000000000000000000000000000000000000000000000000600052603260045260246000fd5b90600052602060002090600702019050600260003373ffffffffffffffffffffffffffffffffffffffff1673ffffffffffffffffffffffffffffffffffffffff16815260200190815260200160002060009054906101000a900460ff1661082857600080fd5b8060060160003373ffffffffffffffffffffffffffffffffffffffff1673ffffffffffffffffffffffffffffffffffffffff16815260200190815260200160002060009054906101000a900460ff161561088157600080fd5b60018160060160003373ffffffffffffffffffffffffffffffffffffffff1673ffffffffffffffffffffffffffffffffffffffff16815260200190815260200160002060006101000a81548160ff0219169083151502179055505050565b600081815481106108ef57600080fd5b9060005260206000209060070201600091509050806000018054610912906115ea565b80601f016020809104026020016040519081016040528092919081815260200182805461093e906115ea565b801561098b5780601f106109605761010080835404028352916020019161098b565b820191906000526020600020905b81548152906001019060200180831161096e57829003601f168201915b5050505050908060010180546109a0906115ea565b80601f01602080910402602001604051908101604052809291908181526020018280546109cc906115ea565b8015610a195780601f106109ee57610100808354040283529160200191610a19565b820191906000526020600020905b8154815290600101906020018083116109fc57829003601f168201915b5050505050908060020154908060030160009054906101000a900473ffffffffffffffffffffffffffffffffffffffff16908060030160149054906101000a900460ff16908060040154905086565b60045481565b6000806000806060806060600154600354477f0000000000000000000000000000000000000000000000000000000000000000600760066005828054610ab3906115ea565b80601f0160208091040260200160405190810160405280929190818152602001828054610adf906115ea565b8015610b2c5780601f10610b0157610100808354040283529160200191610b2c565b820191906000526020600020905b815481529060010190602001808311610b0f57829003601f168201915b50505050509250818054610b3f906115ea565b80601f0160208091040260200160405190810160405280929190818152602001828054610b6b906115ea565b8015610bb85780601f10610b8d57610100808354040283529160200191610bb8565b820191906000526020600020905b815481529060010190602001808311610b9b57829003601f168201915b50505050509150808054610bcb906115ea565b80601f0160208091040260200160405190810160405280929190818152602001828054610bf7906115ea565b8015610c445780601f10610c1957610100808354040283529160200191610c44565b820191906000526020600020905b815481529060010190602001808311610c2757829003601f168201915b50505050509050965096509650965096509650965090919293949596565b7f000000000000000000000000000000000000000000000000000000000000000073ffffffffffffffffffffffffffffffffffffffff163373ffffffffffffffffffffffffffffffffffffffff1614610cf0576040517f08c379a0000000000000000000000000000000000000000000000000000000008152600401610ce7906113ac565b60405180910390fd5b600080600181600181540180825580915050039060005260206000209060070201905084816000019080519060200190610d2b929190610fed565b5083816001019080519060200190610d44929190610fed565b50828160020181905550818160030160006101000a81548173ffffffffffffffffffffffffffffffffffffffff021916908373ffffffffffffffffffffffffffffffffffffffff16021790555060008160030160146101000a81548160ff021916908315150217905550600081600401819055505050505050565b6001543411610e03576040517f08c379a0000000000000000000000000000000000000000000000000000000008152600401610dfa906113ec565b60405180910390fd5b6001600260003373ffffffffffffffffffffffffffffffffffffffff1673ffffffffffffffffffffffffffffffffffffffff16815260200190815260200160002060006101000a81548160ff02191690831515021790555060046000815480929190610e6e9061164d565b9190505550565b6000808281548110610eb0577f4e487b7100000000000000000000000000000000000000000000000000000000600052603260045260246000fd5b90600052602060002090600702019050600260003373ffffffffffffffffffffffffffffffffffffffff1673ffffffffffffffffffffffffffffffffffffffff16815260200190815260200160002060009054906101000a900460ff16610f1657600080fd5b8060050160003373ffffffffffffffffffffffffffffffffffffffff1673ffffffffffffffffffffffffffffffffffffffff16815260200190815260200160002060009054906101000a900460ff1615610f6f57600080fd5b60018160050160003373ffffffffffffffffffffffffffffffffffffffff1673ffffffffffffffffffffffffffffffffffffffff16815260200190815260200160002060006101000a81548160ff021916908315150217905550806004016000815480929190610fde9061164d565b91905055505050565b60015481565b828054610ff9906115ea565b90600052602060002090601f01602090048101928261101b5760008555611062565b82601f1061103457805160ff1916838001178555611062565b82800160010185558215611062579182015b82811115611061578251825591602001919060010190611046565b5b50905061106f9190611073565b5090565b5b8082111561108c576000816000905550600101611074565b5090565b60006110a361109e846114d0565b6114ab565b9050828152602081018484840111156110bb57600080fd5b6110c68482856115a8565b509392505050565b6000813590506110dd81611804565b92915050565b600082601f8301126110f457600080fd5b8135611104848260208601611090565b91505092915050565b60008135905061111c8161181b565b92915050565b60006020828403121561113457600080fd5b6000611142848285016110ce565b91505092915050565b6000806000806080858703121561116157600080fd5b600085013567ffffffffffffffff81111561117b57600080fd5b611187878288016110e3565b945050602085013567ffffffffffffffff8111156111a457600080fd5b6111b0878288016110e3565b93505060406111c18782880161110d565b92505060606111d2878288016110ce565b91505092959194509250565b6000602082840312156111f057600080fd5b60006111fe8482850161110d565b91505092915050565b61121081611560565b82525050565b61121f8161154e565b82525050565b61122e81611572565b82525050565b600061123f82611501565b611249818561150c565b93506112598185602086016115b7565b61126281611752565b840191505092915050565b600061127a60148361150c565b915061128582611763565b602082019050919050565b600061129d602c8361150c565b91506112a88261178c565b604082019050919050565b60006112c0601c8361150c565b91506112cb826117db565b602082019050919050565b6112df8161159e565b82525050565b60006020820190506112fa6000830184611216565b92915050565b60006020820190506113156000830184611225565b92915050565b600060208201905081810360008301526113358184611234565b905092915050565b600060c08201905081810360008301526113578189611234565b9050818103602083015261136b8188611234565b905061137a60408301876112d6565b6113876060830186611207565b6113946080830185611225565b6113a160a08301846112d6565b979650505050505050565b600060208201905081810360008301526113c58161126d565b9050919050565b600060208201905081810360008301526113e581611290565b9050919050565b60006020820190508181036000830152611405816112b3565b9050919050565b600060208201905061142160008301846112d6565b92915050565b600060e08201905061143c600083018a6112d6565b61144960208301896112d6565b61145660408301886112d6565b6114636060830187611216565b81810360808301526114758186611234565b905081810360a08301526114898185611234565b905081810360c083015261149d8184611234565b905098975050505050505050565b60006114b56114c6565b90506114c1828261161c565b919050565b6000604051905090565b600067ffffffffffffffff8211156114eb576114ea611723565b5b6114f482611752565b9050602081019050919050565b600081519050919050565b600082825260208201905092915050565b60006115288261159e565b91506115338361159e565b925082611543576115426116c5565b5b828204905092915050565b60006115598261157e565b9050919050565b600061156b8261157e565b9050919050565b60008115159050919050565b600073ffffffffffffffffffffffffffffffffffffffff82169050919050565b6000819050919050565b82818337600083830152505050565b60005b838110156115d55780820151818401526020810190506115ba565b838111156115e4576000848401525b50505050565b6000600282049050600182168061160257607f821691505b60208210811415611616576116156116f4565b5b50919050565b61162582611752565b810181811067ffffffffffffffff8211171561164457611643611723565b5b80604052505050565b60006116588261159e565b91507fffffffffffffffffffffffffffffffffffffffffffffffffffffffffffffffff82141561168b5761168a611696565b5b600182019050919050565b7f4e487b7100000000000000000000000000000000000000000000000000000000600052601160045260246000fd5b7f4e487b7100000000000000000000000000000000000000000000000000000000600052601260045260246000fd5b7f4e487b7100000000000000000000000000000000000000000000000000000000600052602260045260246000fd5b7f4e487b7100000000000000000000000000000000000000000000000000000000600052604160045260246000fd5b6000601f19601f8301169050919050565b7f4f6e6c79206d616e6167657220616c6c6f776564000000000000000000000000600082015250565b7f4e6f7420656e6f7567682070656f706c65206861766520617070726f7665642060008201527f7468697320726571756573740000000000000000000000000000000000000000602082015250565b7f4d696e696d756d20636f6e747269627574696f6e206e6f74206d657400000000600082015250565b61180d8161154e565b811461181857600080fd5b50565b6118248161159e565b811461182f57600080fd5b5056fea2646970667358221220bf8114012d30faabf15e5e277ebbf33c5b6bce93b118fc256278f2a0dc31a9e664736f6c63430008040033",
  "linkReferences": {},
  "deployedLinkReferences": {}
}