{
  "_format": "hh-sol-artifact-1",
  "contractName": "Campaign",
  "sourceName": "contracts/Campaign.sol",
  "abi": [
    {
      "inputs": [
        {
          "internalType": "string",
          "name": "_name",
          "type": "string"
        },
        {
          "internalType": "uint256",
          "name": "_minimum",
          "type": "uint256"
        },
        {
          "internalType": "address",
          "name": "creator",
          "type": "address"
        },
        {
          "internalType": "string",
          "name": "_description",
          "type": "string"
        },
        {
          "internalType": "string",
          "name": "_thumbnail",
          "type": "string"
        }
      ],
      "stateMutability": "nonpayable",
      "type": "constructor"
    },
    {
      "inputs": [
        {
          "internalType": "uint256",
          "name": "index",
          "type": "uint256"
        }
      ],
      "name": "approveRequest",
      "outputs": [],
      "stateMutability": "nonpayable",
      "type": "function"
    },
    {
      "inputs": [
        {
          "internalType": "address",
          "name": "",
          "type": "address"
        }
      ],
      "name": "approvers",
      "outputs": [
        {
          "internalType": "bool",
          "name": "",
          "type": "bool"
        }
      ],
      "stateMutability": "view",
      "type": "function"
    },
    {
      "inputs": [],
      "name": "approversCount",
      "outputs": [
        {
          "internalType": "uint256",
          "name": "",
          "type": "uint256"
        }
      ],
      "stateMutability": "view",
      "type": "function"
    },
    {
      "inputs": [],
      "name": "contribute",
      "outputs": [],
      "stateMutability": "payable",
      "type": "function"
    },
    {
      "inputs": [
        {
          "internalType": "string",
          "name": "_title",
          "type": "string"
        },
        {
          "internalType": "string",
          "name": "_description",
          "type": "string"
        },
        {
          "internalType": "uint256",
          "name": "_value",
          "type": "uint256"
        },
        {
          "internalType": "address",
          "name": "_recipient",
          "type": "address"
        }
      ],
      "name": "createRequest",
      "outputs": [],
      "stateMutability": "nonpayable",
      "type": "function"
    },
    {
      "inputs": [],
      "name": "description",
      "outputs": [
        {
          "internalType": "string",
          "name": "",
          "type": "string"
        }
      ],
      "stateMutability": "view",
      "type": "function"
    },
    {
      "inputs": [
        {
          "internalType": "uint256",
          "name": "index",
          "type": "uint256"
        }
      ],
      "name": "finalizeRequest",
      "outputs": [],
      "stateMutability": "nonpayable",
      "type": "function"
    },
    {
      "inputs": [],
      "name": "getRequestsCount",
      "outputs": [
        {
          "internalType": "uint256",
          "name": "",
          "type": "uint256"
        }
      ],
      "stateMutability": "view",
      "type": "function"
    },
    {
      "inputs": [],
      "name": "manager",
      "outputs": [
        {
          "internalType": "address",
          "name": "",
          "type": "address"
        }
      ],
      "stateMutability": "view",
      "type": "function"
    },
    {
      "inputs": [],
      "name": "minimum_contribution",
      "outputs": [
        {
          "internalType": "uint256",
          "name": "",
          "type": "uint256"
        }
      ],
      "stateMutability": "view",
      "type": "function"
    },
    {
      "inputs": [],
      "name": "name",
      "outputs": [
        {
          "internalType": "string",
          "name": "",
          "type": "string"
        }
      ],
      "stateMutability": "view",
      "type": "function"
    },
    {
      "inputs": [
        {
          "internalType": "uint256",
          "name": "",
          "type": "uint256"
        }
      ],
      "name": "requests",
      "outputs": [
        {
          "internalType": "string",
          "name": "title",
          "type": "string"
        },
        {
          "internalType": "string",
          "name": "description",
          "type": "string"
        },
        {
          "internalType": "uint256",
          "name": "value",
          "type": "uint256"
        },
        {
          "internalType": "address payable",
          "name": "recipient",
          "type": "address"
        },
        {
          "internalType": "bool",
          "name": "complete",
          "type": "bool"
        },
        {
          "internalType": "uint256",
          "name": "approvalCount",
          "type": "uint256"
        }
      ],
      "stateMutability": "view",
      "type": "function"
    },
    {
      "inputs": [],
      "name": "summary",
      "outputs": [
        {
          "internalType": "uint256",
          "name": "",
          "type": "uint256"
        },
        {
          "internalType": "uint256",
          "name": "",
          "type": "uint256"
        },
        {
          "internalType": "address",
          "name": "",
          "type": "address"
        },
        {
          "internalType": "string",
          "name": "",
          "type": "string"
        },
        {
          "internalType": "string",
          "name": "",
          "type": "string"
        },
        {
          "internalType": "string",
          "name": "",
          "type": "string"
        }
      ],
      "stateMutability": "view",
      "type": "function"
    },
    {
      "inputs": [],
      "name": "thumbnail",
      "outputs": [
        {
          "internalType": "string",
          "name": "",
          "type": "string"
        }
      ],
      "stateMutability": "view",
      "type": "function"
    }
  ],
  "bytecode": "0x60a06040523480156200001157600080fd5b5060405162001b8838038062001b8883398181016040528101906200003791906200021b565b8273ffffffffffffffffffffffffffffffffffffffff1660808173ffffffffffffffffffffffffffffffffffffffff1660601b81525050846004908051906020019062000086929190620000cb565b5081600590805190602001906200009f929190620000cb565b508060069080519060200190620000b8929190620000cb565b50836001819055505050505050620004ca565b828054620000d990620003bb565b90600052602060002090601f016020900481019282620000fd576000855562000149565b82601f106200011857805160ff191683800117855562000149565b8280016001018555821562000149579182015b82811115620001485782518255916020019190600101906200012b565b5b5090506200015891906200015c565b5090565b5b80821115620001775760008160009055506001016200015d565b5090565b6000620001926200018c8462000311565b620002e8565b905082815260208101848484011115620001ab57600080fd5b620001b884828562000385565b509392505050565b600081519050620001d18162000496565b92915050565b600082601f830112620001e957600080fd5b8151620001fb8482602086016200017b565b91505092915050565b6000815190506200021581620004b0565b92915050565b600080600080600060a086880312156200023457600080fd5b600086015167ffffffffffffffff8111156200024f57600080fd5b6200025d88828901620001d7565b9550506020620002708882890162000204565b94505060406200028388828901620001c0565b935050606086015167ffffffffffffffff811115620002a157600080fd5b620002af88828901620001d7565b925050608086015167ffffffffffffffff811115620002cd57600080fd5b620002db88828901620001d7565b9150509295509295909350565b6000620002f462000307565b9050620003028282620003f1565b919050565b6000604051905090565b600067ffffffffffffffff8211156200032f576200032e62000456565b5b6200033a8262000485565b9050602081019050919050565b600062000354826200035b565b9050919050565b600073ffffffffffffffffffffffffffffffffffffffff82169050919050565b6000819050919050565b60005b83811015620003a557808201518184015260208101905062000388565b83811115620003b5576000848401525b50505050565b60006002820490506001821680620003d457607f821691505b60208210811415620003eb57620003ea62000427565b5b50919050565b620003fc8262000485565b810181811067ffffffffffffffff821117156200041e576200041d62000456565b5b80604052505050565b7f4e487b7100000000000000000000000000000000000000000000000000000000600052602260045260246000fd5b7f4e487b7100000000000000000000000000000000000000000000000000000000600052604160045260246000fd5b6000601f19601f8301169050919050565b620004a18162000347565b8114620004ad57600080fd5b50565b620004bb816200037b565b8114620004c757600080fd5b50565b60805160601c61168a620004fe60003960008181610345015281816105d8015281816108b50152610a94015261168a6000f3fe6080604052600436106100dd5760003560e01c806381d12c581161007f578063c774126511610059578063c7741265146102bc578063d7bb99ba146102e5578063d7d1bbdb146102ef578063da59cf7614610318576100dd565b806381d12c581461021f57806382fde09314610261578063b16a867c1461028c576100dd565b80633410452a116100bb5780633410452a14610173578063481c6a751461019e5780635afc2ab4146101c95780637284e416146101f4576100dd565b806303441006146100e257806306fdde031461010b5780630a14439114610136575b600080fd5b3480156100ee57600080fd5b506101096004803603810190610104919061100e565b610343565b005b34801561011757600080fd5b5061012061051c565b60405161012d919061114b565b60405180910390f35b34801561014257600080fd5b5061015d60048036038101906101589190610f52565b6105aa565b60405161016a9190611130565b60405180910390f35b34801561017f57600080fd5b506101886105ca565b604051610195919061123c565b60405180910390f35b3480156101aa57600080fd5b506101b36105d6565b6040516101c09190611115565b60405180910390f35b3480156101d557600080fd5b506101de6105fa565b6040516101eb919061114b565b60405180910390f35b34801561020057600080fd5b50610209610688565b604051610216919061114b565b60405180910390f35b34801561022b57600080fd5b506102466004803603810190610241919061100e565b610716565b6040516102589695949392919061116d565b60405180910390f35b34801561026d57600080fd5b5061027661089f565b604051610283919061123c565b60405180910390f35b34801561029857600080fd5b506102a16108a5565b6040516102b396959493929190611257565b60405180910390f35b3480156102c857600080fd5b506102e360048036038101906102de9190610f7b565b610a92565b005b6102ed610bef565b005b3480156102fb57600080fd5b506103166004803603810190610311919061100e565b610ca5565b005b34801561032457600080fd5b5061032d610e17565b60405161033a919061123c565b60405180910390f35b7f000000000000000000000000000000000000000000000000000000000000000073ffffffffffffffffffffffffffffffffffffffff163373ffffffffffffffffffffffffffffffffffffffff16146103d1576040517f08c379a00000000000000000000000000000000000000000000000000000000081526004016103c8906111dc565b60405180910390fd5b600080828154811061040c577f4e487b7100000000000000000000000000000000000000000000000000000000600052603260045260246000fd5b90600052602060002090600602019050600260035461042b919061133f565b816004015411610470576040517f08c379a0000000000000000000000000000000000000000000000000000000008152600401610467906111fc565b60405180910390fd5b8060030160149054906101000a900460ff161561048c57600080fd5b8060030160009054906101000a900473ffffffffffffffffffffffffffffffffffffffff1673ffffffffffffffffffffffffffffffffffffffff166108fc82600201549081150290604051600060405180830381858888f193505050501580156104fa573d6000803e3d6000fd5b5060018160030160146101000a81548160ff0219169083151502179055505050565b600480546105299061140c565b80601f01602080910402602001604051908101604052809291908181526020018280546105559061140c565b80156105a25780601f10610577576101008083540402835291602001916105a2565b820191906000526020600020905b81548152906001019060200180831161058557829003601f168201915b505050505081565b60026020528060005260406000206000915054906101000a900460ff1681565b60008080549050905090565b7f000000000000000000000000000000000000000000000000000000000000000081565b600680546106079061140c565b80601f01602080910402602001604051908101604052809291908181526020018280546106339061140c565b80156106805780601f1061065557610100808354040283529160200191610680565b820191906000526020600020905b81548152906001019060200180831161066357829003601f168201915b505050505081565b600580546106959061140c565b80601f01602080910402602001604051908101604052809291908181526020018280546106c19061140c565b801561070e5780601f106106e35761010080835404028352916020019161070e565b820191906000526020600020905b8154815290600101906020018083116106f157829003601f168201915b505050505081565b6000818154811061072657600080fd5b90600052602060002090600602016000915090508060000180546107499061140c565b80601f01602080910402602001604051908101604052809291908181526020018280546107759061140c565b80156107c25780601f10610797576101008083540402835291602001916107c2565b820191906000526020600020905b8154815290600101906020018083116107a557829003601f168201915b5050505050908060010180546107d79061140c565b80601f01602080910402602001604051908101604052809291908181526020018280546108039061140c565b80156108505780601f1061082557610100808354040283529160200191610850565b820191906000526020600020905b81548152906001019060200180831161083357829003601f168201915b5050505050908060020154908060030160009054906101000a900473ffffffffffffffffffffffffffffffffffffffff16908060030160149054906101000a900460ff16908060040154905086565b60035481565b60008060006060806060600154477f00000000000000000000000000000000000000000000000000000000000000006006600560048280546108e69061140c565b80601f01602080910402602001604051908101604052809291908181526020018280546109129061140c565b801561095f5780601f106109345761010080835404028352916020019161095f565b820191906000526020600020905b81548152906001019060200180831161094257829003601f168201915b505050505092508180546109729061140c565b80601f016020809104026020016040519081016040528092919081815260200182805461099e9061140c565b80156109eb5780601f106109c0576101008083540402835291602001916109eb565b820191906000526020600020905b8154815290600101906020018083116109ce57829003601f168201915b505050505091508080546109fe9061140c565b80601f0160208091040260200160405190810160405280929190818152602001828054610a2a9061140c565b8015610a775780601f10610a4c57610100808354040283529160200191610a77565b820191906000526020600020905b815481529060010190602001808311610a5a57829003601f168201915b50505050509050955095509550955095509550909192939495565b7f000000000000000000000000000000000000000000000000000000000000000073ffffffffffffffffffffffffffffffffffffffff163373ffffffffffffffffffffffffffffffffffffffff1614610b20576040517f08c379a0000000000000000000000000000000000000000000000000000000008152600401610b17906111dc565b60405180910390fd5b600080600181600181540180825580915050039060005260206000209060060201905084816000019080519060200190610b5b929190610e1d565b5083816001019080519060200190610b74929190610e1d565b50828160020181905550818160030160006101000a81548173ffffffffffffffffffffffffffffffffffffffff021916908373ffffffffffffffffffffffffffffffffffffffff16021790555060008160030160146101000a81548160ff021916908315150217905550600081600401819055505050505050565b6001543411610c33576040517f08c379a0000000000000000000000000000000000000000000000000000000008152600401610c2a9061121c565b60405180910390fd5b6001600260003373ffffffffffffffffffffffffffffffffffffffff1673ffffffffffffffffffffffffffffffffffffffff16815260200190815260200160002060006101000a81548160ff02191690831515021790555060036000815480929190610c9e9061146f565b9190505550565b6000808281548110610ce0577f4e487b7100000000000000000000000000000000000000000000000000000000600052603260045260246000fd5b90600052602060002090600602019050600260003373ffffffffffffffffffffffffffffffffffffffff1673ffffffffffffffffffffffffffffffffffffffff16815260200190815260200160002060009054906101000a900460ff16610d4657600080fd5b8060050160003373ffffffffffffffffffffffffffffffffffffffff1673ffffffffffffffffffffffffffffffffffffffff16815260200190815260200160002060009054906101000a900460ff1615610d9f57600080fd5b60018160050160003373ffffffffffffffffffffffffffffffffffffffff1673ffffffffffffffffffffffffffffffffffffffff16815260200190815260200160002060006101000a81548160ff021916908315150217905550806004016000815480929190610e0e9061146f565b91905055505050565b60015481565b828054610e299061140c565b90600052602060002090601f016020900481019282610e4b5760008555610e92565b82601f10610e6457805160ff1916838001178555610e92565b82800160010185558215610e92579182015b82811115610e91578251825591602001919060010190610e76565b5b509050610e9f9190610ea3565b5090565b5b80821115610ebc576000816000905550600101610ea4565b5090565b6000610ed3610ece846112f2565b6112cd565b905082815260208101848484011115610eeb57600080fd5b610ef68482856113ca565b509392505050565b600081359050610f0d81611626565b92915050565b600082601f830112610f2457600080fd5b8135610f34848260208601610ec0565b91505092915050565b600081359050610f4c8161163d565b92915050565b600060208284031215610f6457600080fd5b6000610f7284828501610efe565b91505092915050565b60008060008060808587031215610f9157600080fd5b600085013567ffffffffffffffff811115610fab57600080fd5b610fb787828801610f13565b945050602085013567ffffffffffffffff811115610fd457600080fd5b610fe087828801610f13565b9350506040610ff187828801610f3d565b925050606061100287828801610efe565b91505092959194509250565b60006020828403121561102057600080fd5b600061102e84828501610f3d565b91505092915050565b61104081611382565b82525050565b61104f81611370565b82525050565b61105e81611394565b82525050565b600061106f82611323565b611079818561132e565b93506110898185602086016113d9565b61109281611574565b840191505092915050565b60006110aa60148361132e565b91506110b582611585565b602082019050919050565b60006110cd602c8361132e565b91506110d8826115ae565b604082019050919050565b60006110f0601c8361132e565b91506110fb826115fd565b602082019050919050565b61110f816113c0565b82525050565b600060208201905061112a6000830184611046565b92915050565b60006020820190506111456000830184611055565b92915050565b600060208201905081810360008301526111658184611064565b905092915050565b600060c08201905081810360008301526111878189611064565b9050818103602083015261119b8188611064565b90506111aa6040830187611106565b6111b76060830186611037565b6111c46080830185611055565b6111d160a0830184611106565b979650505050505050565b600060208201905081810360008301526111f58161109d565b9050919050565b60006020820190508181036000830152611215816110c0565b9050919050565b60006020820190508181036000830152611235816110e3565b9050919050565b60006020820190506112516000830184611106565b92915050565b600060c08201905061126c6000830189611106565b6112796020830188611106565b6112866040830187611046565b81810360608301526112988186611064565b905081810360808301526112ac8185611064565b905081810360a08301526112c08184611064565b9050979650505050505050565b60006112d76112e8565b90506112e3828261143e565b919050565b6000604051905090565b600067ffffffffffffffff82111561130d5761130c611545565b5b61131682611574565b9050602081019050919050565b600081519050919050565b600082825260208201905092915050565b600061134a826113c0565b9150611355836113c0565b925082611365576113646114e7565b5b828204905092915050565b600061137b826113a0565b9050919050565b600061138d826113a0565b9050919050565b60008115159050919050565b600073ffffffffffffffffffffffffffffffffffffffff82169050919050565b6000819050919050565b82818337600083830152505050565b60005b838110156113f75780820151818401526020810190506113dc565b83811115611406576000848401525b50505050565b6000600282049050600182168061142457607f821691505b6020821081141561143857611437611516565b5b50919050565b61144782611574565b810181811067ffffffffffffffff8211171561146657611465611545565b5b80604052505050565b600061147a826113c0565b91507fffffffffffffffffffffffffffffffffffffffffffffffffffffffffffffffff8214156114ad576114ac6114b8565b5b600182019050919050565b7f4e487b7100000000000000000000000000000000000000000000000000000000600052601160045260246000fd5b7f4e487b7100000000000000000000000000000000000000000000000000000000600052601260045260246000fd5b7f4e487b7100000000000000000000000000000000000000000000000000000000600052602260045260246000fd5b7f4e487b7100000000000000000000000000000000000000000000000000000000600052604160045260246000fd5b6000601f19601f8301169050919050565b7f4f6e6c79206d616e6167657220616c6c6f776564000000000000000000000000600082015250565b7f4e6f7420656e6f7567682070656f706c65206861766520617070726f7665642060008201527f7468697320726571756573740000000000000000000000000000000000000000602082015250565b7f4d696e696d756d20636f6e747269627574696f6e206e6f74206d657400000000600082015250565b61162f81611370565b811461163a57600080fd5b50565b611646816113c0565b811461165157600080fd5b5056fea2646970667358221220ac04b3c1559286847f9d7f7d4af1e014538c8946c64707f97e37b67570681c4564736f6c63430008040033",
  "linkReferences": {},
  "deployedLinkReferences": {}
}