{
  "_format": "hh-sol-artifact-1",
  "contractName": "Campaign",
  "sourceName": "contracts/Campaign.sol",
  "abi": [
    {
      "inputs": [
        {
          "internalType": "string",
          "name": "_name",
          "type": "string"
        },
        {
          "internalType": "uint256",
          "name": "_minimum",
          "type": "uint256"
        },
        {
          "internalType": "address",
          "name": "creator",
          "type": "address"
        },
        {
          "internalType": "string",
          "name": "_description",
          "type": "string"
        },
        {
          "internalType": "string",
          "name": "_thumbnail",
          "type": "string"
        }
      ],
      "stateMutability": "nonpayable",
      "type": "constructor"
    },
    {
      "inputs": [
        {
          "internalType": "uint256",
          "name": "index",
          "type": "uint256"
        }
      ],
      "name": "approveRequest",
      "outputs": [],
      "stateMutability": "nonpayable",
      "type": "function"
    },
    {
      "inputs": [
        {
          "internalType": "address",
          "name": "",
          "type": "address"
        }
      ],
      "name": "approvers",
      "outputs": [
        {
          "internalType": "bool",
          "name": "",
          "type": "bool"
        }
      ],
      "stateMutability": "view",
      "type": "function"
    },
    {
      "inputs": [],
      "name": "approversCount",
      "outputs": [
        {
          "internalType": "uint256",
          "name": "",
          "type": "uint256"
        }
      ],
      "stateMutability": "view",
      "type": "function"
    },
    {
      "inputs": [],
      "name": "contribute",
      "outputs": [],
      "stateMutability": "payable",
      "type": "function"
    },
    {
      "inputs": [
        {
          "internalType": "string",
          "name": "_title",
          "type": "string"
        },
        {
          "internalType": "string",
          "name": "_description",
          "type": "string"
        },
        {
          "internalType": "uint256",
          "name": "_value",
          "type": "uint256"
        },
        {
          "internalType": "address",
          "name": "_recipient",
          "type": "address"
        }
      ],
      "name": "createRequest",
      "outputs": [],
      "stateMutability": "nonpayable",
      "type": "function"
    },
    {
      "inputs": [],
      "name": "description",
      "outputs": [
        {
          "internalType": "string",
          "name": "",
          "type": "string"
        }
      ],
      "stateMutability": "view",
      "type": "function"
    },
    {
      "inputs": [
        {
          "internalType": "uint256",
          "name": "index",
          "type": "uint256"
        }
      ],
      "name": "finalizeRequest",
      "outputs": [],
      "stateMutability": "nonpayable",
      "type": "function"
    },
    {
      "inputs": [],
      "name": "getRequestsCount",
      "outputs": [
        {
          "internalType": "uint256",
          "name": "",
          "type": "uint256"
        }
      ],
      "stateMutability": "view",
      "type": "function"
    },
    {
      "inputs": [],
      "name": "manager",
      "outputs": [
        {
          "internalType": "address",
          "name": "",
          "type": "address"
        }
      ],
      "stateMutability": "view",
      "type": "function"
    },
    {
      "inputs": [],
      "name": "minimum_contribution",
      "outputs": [
        {
          "internalType": "uint256",
          "name": "",
          "type": "uint256"
        }
      ],
      "stateMutability": "view",
      "type": "function"
    },
    {
      "inputs": [],
      "name": "name",
      "outputs": [
        {
          "internalType": "string",
          "name": "",
          "type": "string"
        }
      ],
      "stateMutability": "view",
      "type": "function"
    },
    {
      "inputs": [
        {
          "internalType": "uint256",
          "name": "",
          "type": "uint256"
        }
      ],
      "name": "requests",
      "outputs": [
        {
          "internalType": "string",
          "name": "title",
          "type": "string"
        },
        {
          "internalType": "string",
          "name": "description",
          "type": "string"
        },
        {
          "internalType": "uint256",
          "name": "value",
          "type": "uint256"
        },
        {
          "internalType": "address payable",
          "name": "recipient",
          "type": "address"
        },
        {
          "internalType": "bool",
          "name": "complete",
          "type": "bool"
        },
        {
          "internalType": "uint256",
          "name": "approvalCount",
          "type": "uint256"
        }
      ],
      "stateMutability": "view",
      "type": "function"
    },
    {
      "inputs": [],
      "name": "thumbnail",
      "outputs": [
        {
          "internalType": "string",
          "name": "",
          "type": "string"
        }
      ],
      "stateMutability": "view",
      "type": "function"
    }
  ],
  "bytecode": "0x60806040523480156200001157600080fd5b50604051620018c6380380620018c6833981810160405281019062000037919062000225565b82600160006101000a81548173ffffffffffffffffffffffffffffffffffffffff021916908373ffffffffffffffffffffffffffffffffffffffff160217905550846005908051906020019062000090929190620000d5565b508160069080519060200190620000a9929190620000d5565b508060079080519060200190620000c2929190620000d5565b50836002819055505050505050620004d4565b828054620000e390620003c5565b90600052602060002090601f01602090048101928262000107576000855562000153565b82601f106200012257805160ff191683800117855562000153565b8280016001018555821562000153579182015b828111156200015257825182559160200191906001019062000135565b5b50905062000162919062000166565b5090565b5b808211156200018157600081600090555060010162000167565b5090565b60006200019c62000196846200031b565b620002f2565b905082815260208101848484011115620001b557600080fd5b620001c28482856200038f565b509392505050565b600081519050620001db81620004a0565b92915050565b600082601f830112620001f357600080fd5b81516200020584826020860162000185565b91505092915050565b6000815190506200021f81620004ba565b92915050565b600080600080600060a086880312156200023e57600080fd5b600086015167ffffffffffffffff8111156200025957600080fd5b6200026788828901620001e1565b95505060206200027a888289016200020e565b94505060406200028d88828901620001ca565b935050606086015167ffffffffffffffff811115620002ab57600080fd5b620002b988828901620001e1565b925050608086015167ffffffffffffffff811115620002d757600080fd5b620002e588828901620001e1565b9150509295509295909350565b6000620002fe62000311565b90506200030c8282620003fb565b919050565b6000604051905090565b600067ffffffffffffffff82111562000339576200033862000460565b5b62000344826200048f565b9050602081019050919050565b60006200035e8262000365565b9050919050565b600073ffffffffffffffffffffffffffffffffffffffff82169050919050565b6000819050919050565b60005b83811015620003af57808201518184015260208101905062000392565b83811115620003bf576000848401525b50505050565b60006002820490506001821680620003de57607f821691505b60208210811415620003f557620003f462000431565b5b50919050565b62000406826200048f565b810181811067ffffffffffffffff8211171562000428576200042762000460565b5b80604052505050565b7f4e487b7100000000000000000000000000000000000000000000000000000000600052602260045260246000fd5b7f4e487b7100000000000000000000000000000000000000000000000000000000600052604160045260246000fd5b6000601f19601f8301169050919050565b620004ab8162000351565b8114620004b757600080fd5b50565b620004c58162000385565b8114620004d157600080fd5b50565b6113e280620004e46000396000f3fe6080604052600436106100c25760003560e01c80637284e4161161007f578063c774126511610059578063c774126514610271578063d7bb99ba1461029a578063d7d1bbdb146102a4578063da59cf76146102cd576100c2565b80637284e416146101d957806381d12c581461020457806382fde09314610246576100c2565b806303441006146100c757806306fdde03146100f05780630a1443911461011b5780633410452a14610158578063481c6a75146101835780635afc2ab4146101ae575b600080fd5b3480156100d357600080fd5b506100ee60048036038101906100e99190610ddc565b6102f8565b005b3480156100fc57600080fd5b506101056104d3565b6040516101129190610f19565b60405180910390f35b34801561012757600080fd5b50610142600480360381019061013d9190610d20565b610561565b60405161014f9190610efe565b60405180910390f35b34801561016457600080fd5b5061016d610581565b60405161017a919061100a565b60405180910390f35b34801561018f57600080fd5b5061019861058d565b6040516101a59190610ee3565b60405180910390f35b3480156101ba57600080fd5b506101c36105b3565b6040516101d09190610f19565b60405180910390f35b3480156101e557600080fd5b506101ee610641565b6040516101fb9190610f19565b60405180910390f35b34801561021057600080fd5b5061022b60048036038101906102269190610ddc565b6106cf565b60405161023d96959493929190610f3b565b60405180910390f35b34801561025257600080fd5b5061025b610858565b604051610268919061100a565b60405180910390f35b34801561027d57600080fd5b5061029860048036038101906102939190610d49565b61085e565b005b6102a26109bd565b005b3480156102b057600080fd5b506102cb60048036038101906102c69190610ddc565b610a73565b005b3480156102d957600080fd5b506102e2610be5565b6040516102ef919061100a565b60405180910390f35b600160009054906101000a900473ffffffffffffffffffffffffffffffffffffffff1673ffffffffffffffffffffffffffffffffffffffff163373ffffffffffffffffffffffffffffffffffffffff1614610388576040517f08c379a000000000000000000000000000000000000000000000000000000000815260040161037f90610faa565b60405180910390fd5b60008082815481106103c3577f4e487b7100000000000000000000000000000000000000000000000000000000600052603260045260246000fd5b9060005260206000209060060201905060026004546103e29190611097565b816004015411610427576040517f08c379a000000000000000000000000000000000000000000000000000000000815260040161041e90610fca565b60405180910390fd5b8060030160149054906101000a900460ff161561044357600080fd5b8060030160009054906101000a900473ffffffffffffffffffffffffffffffffffffffff1673ffffffffffffffffffffffffffffffffffffffff166108fc82600201549081150290604051600060405180830381858888f193505050501580156104b1573d6000803e3d6000fd5b5060018160030160146101000a81548160ff0219169083151502179055505050565b600580546104e090611164565b80601f016020809104026020016040519081016040528092919081815260200182805461050c90611164565b80156105595780601f1061052e57610100808354040283529160200191610559565b820191906000526020600020905b81548152906001019060200180831161053c57829003601f168201915b505050505081565b60036020528060005260406000206000915054906101000a900460ff1681565b60008080549050905090565b600160009054906101000a900473ffffffffffffffffffffffffffffffffffffffff1681565b600780546105c090611164565b80601f01602080910402602001604051908101604052809291908181526020018280546105ec90611164565b80156106395780601f1061060e57610100808354040283529160200191610639565b820191906000526020600020905b81548152906001019060200180831161061c57829003601f168201915b505050505081565b6006805461064e90611164565b80601f016020809104026020016040519081016040528092919081815260200182805461067a90611164565b80156106c75780601f1061069c576101008083540402835291602001916106c7565b820191906000526020600020905b8154815290600101906020018083116106aa57829003601f168201915b505050505081565b600081815481106106df57600080fd5b906000526020600020906006020160009150905080600001805461070290611164565b80601f016020809104026020016040519081016040528092919081815260200182805461072e90611164565b801561077b5780601f106107505761010080835404028352916020019161077b565b820191906000526020600020905b81548152906001019060200180831161075e57829003601f168201915b50505050509080600101805461079090611164565b80601f01602080910402602001604051908101604052809291908181526020018280546107bc90611164565b80156108095780601f106107de57610100808354040283529160200191610809565b820191906000526020600020905b8154815290600101906020018083116107ec57829003601f168201915b5050505050908060020154908060030160009054906101000a900473ffffffffffffffffffffffffffffffffffffffff16908060030160149054906101000a900460ff16908060040154905086565b60045481565b600160009054906101000a900473ffffffffffffffffffffffffffffffffffffffff1673ffffffffffffffffffffffffffffffffffffffff163373ffffffffffffffffffffffffffffffffffffffff16146108ee576040517f08c379a00000000000000000000000000000000000000000000000000000000081526004016108e590610faa565b60405180910390fd5b600080600181600181540180825580915050039060005260206000209060060201905084816000019080519060200190610929929190610beb565b5083816001019080519060200190610942929190610beb565b50828160020181905550818160030160006101000a81548173ffffffffffffffffffffffffffffffffffffffff021916908373ffffffffffffffffffffffffffffffffffffffff16021790555060008160030160146101000a81548160ff021916908315150217905550600081600401819055505050505050565b6002543411610a01576040517f08c379a00000000000000000000000000000000000000000000000000000000081526004016109f890610fea565b60405180910390fd5b6001600360003373ffffffffffffffffffffffffffffffffffffffff1673ffffffffffffffffffffffffffffffffffffffff16815260200190815260200160002060006101000a81548160ff02191690831515021790555060046000815480929190610a6c906111c7565b9190505550565b6000808281548110610aae577f4e487b7100000000000000000000000000000000000000000000000000000000600052603260045260246000fd5b90600052602060002090600602019050600360003373ffffffffffffffffffffffffffffffffffffffff1673ffffffffffffffffffffffffffffffffffffffff16815260200190815260200160002060009054906101000a900460ff16610b1457600080fd5b8060050160003373ffffffffffffffffffffffffffffffffffffffff1673ffffffffffffffffffffffffffffffffffffffff16815260200190815260200160002060009054906101000a900460ff1615610b6d57600080fd5b60018160050160003373ffffffffffffffffffffffffffffffffffffffff1673ffffffffffffffffffffffffffffffffffffffff16815260200190815260200160002060006101000a81548160ff021916908315150217905550806004016000815480929190610bdc906111c7565b91905055505050565b60025481565b828054610bf790611164565b90600052602060002090601f016020900481019282610c195760008555610c60565b82601f10610c3257805160ff1916838001178555610c60565b82800160010185558215610c60579182015b82811115610c5f578251825591602001919060010190610c44565b5b509050610c6d9190610c71565b5090565b5b80821115610c8a576000816000905550600101610c72565b5090565b6000610ca1610c9c8461104a565b611025565b905082815260208101848484011115610cb957600080fd5b610cc4848285611122565b509392505050565b600081359050610cdb8161137e565b92915050565b600082601f830112610cf257600080fd5b8135610d02848260208601610c8e565b91505092915050565b600081359050610d1a81611395565b92915050565b600060208284031215610d3257600080fd5b6000610d4084828501610ccc565b91505092915050565b60008060008060808587031215610d5f57600080fd5b600085013567ffffffffffffffff811115610d7957600080fd5b610d8587828801610ce1565b945050602085013567ffffffffffffffff811115610da257600080fd5b610dae87828801610ce1565b9350506040610dbf87828801610d0b565b9250506060610dd087828801610ccc565b91505092959194509250565b600060208284031215610dee57600080fd5b6000610dfc84828501610d0b565b91505092915050565b610e0e816110da565b82525050565b610e1d816110c8565b82525050565b610e2c816110ec565b82525050565b6000610e3d8261107b565b610e478185611086565b9350610e57818560208601611131565b610e60816112cc565b840191505092915050565b6000610e78601483611086565b9150610e83826112dd565b602082019050919050565b6000610e9b602c83611086565b9150610ea682611306565b604082019050919050565b6000610ebe601c83611086565b9150610ec982611355565b602082019050919050565b610edd81611118565b82525050565b6000602082019050610ef86000830184610e14565b92915050565b6000602082019050610f136000830184610e23565b92915050565b60006020820190508181036000830152610f338184610e32565b905092915050565b600060c0820190508181036000830152610f558189610e32565b90508181036020830152610f698188610e32565b9050610f786040830187610ed4565b610f856060830186610e05565b610f926080830185610e23565b610f9f60a0830184610ed4565b979650505050505050565b60006020820190508181036000830152610fc381610e6b565b9050919050565b60006020820190508181036000830152610fe381610e8e565b9050919050565b6000602082019050818103600083015261100381610eb1565b9050919050565b600060208201905061101f6000830184610ed4565b92915050565b600061102f611040565b905061103b8282611196565b919050565b6000604051905090565b600067ffffffffffffffff8211156110655761106461129d565b5b61106e826112cc565b9050602081019050919050565b600081519050919050565b600082825260208201905092915050565b60006110a282611118565b91506110ad83611118565b9250826110bd576110bc61123f565b5b828204905092915050565b60006110d3826110f8565b9050919050565b60006110e5826110f8565b9050919050565b60008115159050919050565b600073ffffffffffffffffffffffffffffffffffffffff82169050919050565b6000819050919050565b82818337600083830152505050565b60005b8381101561114f578082015181840152602081019050611134565b8381111561115e576000848401525b50505050565b6000600282049050600182168061117c57607f821691505b602082108114156111905761118f61126e565b5b50919050565b61119f826112cc565b810181811067ffffffffffffffff821117156111be576111bd61129d565b5b80604052505050565b60006111d282611118565b91507fffffffffffffffffffffffffffffffffffffffffffffffffffffffffffffffff82141561120557611204611210565b5b600182019050919050565b7f4e487b7100000000000000000000000000000000000000000000000000000000600052601160045260246000fd5b7f4e487b7100000000000000000000000000000000000000000000000000000000600052601260045260246000fd5b7f4e487b7100000000000000000000000000000000000000000000000000000000600052602260045260246000fd5b7f4e487b7100000000000000000000000000000000000000000000000000000000600052604160045260246000fd5b6000601f19601f8301169050919050565b7f4f6e6c79206d616e6167657220616c6c6f776564000000000000000000000000600082015250565b7f4e6f7420656e6f7567682070656f706c65206861766520617070726f7665642060008201527f7468697320726571756573740000000000000000000000000000000000000000602082015250565b7f4d696e696d756d20636f6e747269627574696f6e206e6f74206d657400000000600082015250565b611387816110c8565b811461139257600080fd5b50565b61139e81611118565b81146113a957600080fd5b5056fea26469706673582212209a862ff35dfd3fab0ab888b617914bc3d031192de6be0657636a9a5873b5b66f64736f6c63430008040033",
  "linkReferences": {},
  "deployedLinkReferences": {}
}