{
  "_format": "hh-sol-artifact-1",
  "contractName": "Campaign",
  "sourceName": "contracts/Campaign.sol",
  "abi": [
    {
      "inputs": [
        {
          "internalType": "string",
          "name": "_name",
          "type": "string"
        },
        {
          "internalType": "uint256",
          "name": "_minimum",
          "type": "uint256"
        },
        {
          "internalType": "uint256",
          "name": "_goal",
          "type": "uint256"
        },
        {
          "internalType": "address",
          "name": "creator",
          "type": "address"
        },
        {
          "internalType": "string",
          "name": "_description",
          "type": "string"
        },
        {
          "internalType": "string",
          "name": "_thumbnail",
          "type": "string"
        }
      ],
      "stateMutability": "nonpayable",
      "type": "constructor"
    },
    {
      "inputs": [
        {
          "internalType": "uint256",
          "name": "index",
          "type": "uint256"
        }
      ],
      "name": "answeredRequest",
      "outputs": [
        {
          "internalType": "bool",
          "name": "",
          "type": "bool"
        },
        {
          "internalType": "bool",
          "name": "",
          "type": "bool"
        }
      ],
      "stateMutability": "view",
      "type": "function"
    },
    {
      "inputs": [
        {
          "internalType": "uint256",
          "name": "index",
          "type": "uint256"
        }
      ],
      "name": "approveRequest",
      "outputs": [],
      "stateMutability": "nonpayable",
      "type": "function"
    },
    {
      "inputs": [
        {
          "internalType": "address",
          "name": "",
          "type": "address"
        }
      ],
      "name": "approvers",
      "outputs": [
        {
          "internalType": "bool",
          "name": "",
          "type": "bool"
        }
      ],
      "stateMutability": "view",
      "type": "function"
    },
    {
      "inputs": [],
      "name": "approversCount",
      "outputs": [
        {
          "internalType": "uint256",
          "name": "",
          "type": "uint256"
        }
      ],
      "stateMutability": "view",
      "type": "function"
    },
    {
      "inputs": [],
      "name": "contribute",
      "outputs": [],
      "stateMutability": "payable",
      "type": "function"
    },
    {
      "inputs": [
        {
          "internalType": "string",
          "name": "_title",
          "type": "string"
        },
        {
          "internalType": "string",
          "name": "_description",
          "type": "string"
        },
        {
          "internalType": "uint256",
          "name": "_value",
          "type": "uint256"
        },
        {
          "internalType": "address",
          "name": "_recipient",
          "type": "address"
        }
      ],
      "name": "createRequest",
      "outputs": [],
      "stateMutability": "nonpayable",
      "type": "function"
    },
    {
      "inputs": [
        {
          "internalType": "uint256",
          "name": "index",
          "type": "uint256"
        }
      ],
      "name": "denyRequest",
      "outputs": [],
      "stateMutability": "nonpayable",
      "type": "function"
    },
    {
      "inputs": [],
      "name": "description",
      "outputs": [
        {
          "internalType": "string",
          "name": "",
          "type": "string"
        }
      ],
      "stateMutability": "view",
      "type": "function"
    },
    {
      "inputs": [
        {
          "internalType": "uint256",
          "name": "index",
          "type": "uint256"
        }
      ],
      "name": "finalizeRequest",
      "outputs": [],
      "stateMutability": "nonpayable",
      "type": "function"
    },
    {
      "inputs": [],
      "name": "getRequestsCount",
      "outputs": [
        {
          "internalType": "uint256",
          "name": "",
          "type": "uint256"
        }
      ],
      "stateMutability": "view",
      "type": "function"
    },
    {
      "inputs": [],
      "name": "i_goal",
      "outputs": [
        {
          "internalType": "uint256",
          "name": "",
          "type": "uint256"
        }
      ],
      "stateMutability": "view",
      "type": "function"
    },
    {
      "inputs": [],
      "name": "i_manager",
      "outputs": [
        {
          "internalType": "address",
          "name": "",
          "type": "address"
        }
      ],
      "stateMutability": "view",
      "type": "function"
    },
    {
      "inputs": [],
      "name": "i_minimum_contribution",
      "outputs": [
        {
          "internalType": "uint256",
          "name": "",
          "type": "uint256"
        }
      ],
      "stateMutability": "view",
      "type": "function"
    },
    {
      "inputs": [],
      "name": "name",
      "outputs": [
        {
          "internalType": "string",
          "name": "",
          "type": "string"
        }
      ],
      "stateMutability": "view",
      "type": "function"
    },
    {
      "inputs": [
        {
          "internalType": "uint256",
          "name": "",
          "type": "uint256"
        }
      ],
      "name": "requests",
      "outputs": [
        {
          "internalType": "string",
          "name": "title",
          "type": "string"
        },
        {
          "internalType": "string",
          "name": "description",
          "type": "string"
        },
        {
          "internalType": "uint256",
          "name": "value",
          "type": "uint256"
        },
        {
          "internalType": "address payable",
          "name": "recipient",
          "type": "address"
        },
        {
          "internalType": "bool",
          "name": "complete",
          "type": "bool"
        },
        {
          "internalType": "uint256",
          "name": "approvalCount",
          "type": "uint256"
        }
      ],
      "stateMutability": "view",
      "type": "function"
    },
    {
      "inputs": [],
      "name": "summary",
      "outputs": [
        {
          "internalType": "uint256",
          "name": "",
          "type": "uint256"
        },
        {
          "internalType": "uint256",
          "name": "",
          "type": "uint256"
        },
        {
          "internalType": "uint256",
          "name": "",
          "type": "uint256"
        },
        {
          "internalType": "address",
          "name": "",
          "type": "address"
        },
        {
          "internalType": "string",
          "name": "",
          "type": "string"
        },
        {
          "internalType": "string",
          "name": "",
          "type": "string"
        },
        {
          "internalType": "string",
          "name": "",
          "type": "string"
        }
      ],
      "stateMutability": "view",
      "type": "function"
    },
    {
      "inputs": [],
      "name": "thumbnail",
      "outputs": [
        {
          "internalType": "string",
          "name": "",
          "type": "string"
        }
      ],
      "stateMutability": "view",
      "type": "function"
    }
  ],
  "bytecode": "0x60e06040523480156200001157600080fd5b50604051620020f7380380620020f7833981810160405281019062000037919062000225565b8273ffffffffffffffffffffffffffffffffffffffff1660808173ffffffffffffffffffffffffffffffffffffffff1660601b81525050856003908051906020019062000086929190620000d5565b5081600490805190602001906200009f929190620000d5565b508360c081815250508060059080519060200190620000c0929190620000d5565b508460a08181525050505050505050620004e8565b828054620000e390620003d9565b90600052602060002090601f01602090048101928262000107576000855562000153565b82601f106200012257805160ff191683800117855562000153565b8280016001018555821562000153579182015b828111156200015257825182559160200191906001019062000135565b5b50905062000162919062000166565b5090565b5b808211156200018157600081600090555060010162000167565b5090565b60006200019c62000196846200032f565b62000306565b905082815260208101848484011115620001b557600080fd5b620001c2848285620003a3565b509392505050565b600081519050620001db81620004b4565b92915050565b600082601f830112620001f357600080fd5b81516200020584826020860162000185565b91505092915050565b6000815190506200021f81620004ce565b92915050565b60008060008060008060c087890312156200023f57600080fd5b600087015167ffffffffffffffff8111156200025a57600080fd5b6200026889828a01620001e1565b96505060206200027b89828a016200020e565b95505060406200028e89828a016200020e565b9450506060620002a189828a01620001ca565b935050608087015167ffffffffffffffff811115620002bf57600080fd5b620002cd89828a01620001e1565b92505060a087015167ffffffffffffffff811115620002eb57600080fd5b620002f989828a01620001e1565b9150509295509295509295565b60006200031262000325565b90506200032082826200040f565b919050565b6000604051905090565b600067ffffffffffffffff8211156200034d576200034c62000474565b5b6200035882620004a3565b9050602081019050919050565b6000620003728262000379565b9050919050565b600073ffffffffffffffffffffffffffffffffffffffff82169050919050565b6000819050919050565b60005b83811015620003c3578082015181840152602081019050620003a6565b83811115620003d3576000848401525b50505050565b60006002820490506001821680620003f257607f821691505b6020821081141562000409576200040862000445565b5b50919050565b6200041a82620004a3565b810181811067ffffffffffffffff821117156200043c576200043b62000474565b5b80604052505050565b7f4e487b7100000000000000000000000000000000000000000000000000000000600052602260045260246000fd5b7f4e487b7100000000000000000000000000000000000000000000000000000000600052604160045260246000fd5b6000601f19601f8301169050919050565b620004bf8162000365565b8114620004cb57600080fd5b50565b620004d98162000399565b8114620004e557600080fd5b50565b60805160601c60a05160c051611bb26200054560003960008181610c730152610cc3015260008181610b5901528181610ca201526110240152600081816103f90152818161071901528181610ce50152610ec70152611bb26000f3fe6080604052600436106100fe5760003560e01c806381d12c5811610095578063a67e30cb11610064578063a67e30cb1461033f578063b16a867c1461036a578063c77412651461039b578063d7bb99ba146103c4578063d7d1bbdb146103ce576100fe565b806381d12c581461026957806382fde093146102ab57806391dbac08146102d6578063a3f2a56c14610301576100fe565b80635afc2ab4116100d15780635afc2ab4146101bf5780635bc08981146101ea5780637284e4161461021557806379f96c5714610240576100fe565b8063034410061461010357806306fdde031461012c5780630a144391146101575780633410452a14610194575b600080fd5b34801561010f57600080fd5b5061012a600480360381019061012591906114ff565b6103f7565b005b34801561013857600080fd5b506101416105cf565b60405161014e9190611665565b60405180910390f35b34801561016357600080fd5b5061017e60048036038101906101799190611443565b61065d565b60405161018b9190611621565b60405180910390f35b3480156101a057600080fd5b506101a961067d565b6040516101b69190611756565b60405180910390f35b3480156101cb57600080fd5b506101d4610689565b6040516101e19190611665565b60405180910390f35b3480156101f657600080fd5b506101ff610717565b60405161020c9190611606565b60405180910390f35b34801561022157600080fd5b5061022a61073b565b6040516102379190611665565b60405180910390f35b34801561024c57600080fd5b50610267600480360381019061026291906114ff565b6107c9565b005b34801561027557600080fd5b50610290600480360381019061028b91906114ff565b6109c8565b6040516102a296959493929190611687565b60405180910390f35b3480156102b757600080fd5b506102c0610b51565b6040516102cd9190611756565b60405180910390f35b3480156102e257600080fd5b506102eb610b57565b6040516102f89190611756565b60405180910390f35b34801561030d57600080fd5b50610328600480360381019061032391906114ff565b610b7b565b60405161033692919061163c565b60405180910390f35b34801561034b57600080fd5b50610354610c71565b6040516103619190611756565b60405180910390f35b34801561037657600080fd5b5061037f610c95565b6040516103929796959493929190611771565b60405180910390f35b3480156103a757600080fd5b506103c260048036038101906103bd919061146c565b610ec5565b005b6103cc611022565b005b3480156103da57600080fd5b506103f560048036038101906103f091906114ff565b6110f5565b005b7f000000000000000000000000000000000000000000000000000000000000000073ffffffffffffffffffffffffffffffffffffffff163373ffffffffffffffffffffffffffffffffffffffff1614610485576040517f08c379a000000000000000000000000000000000000000000000000000000000815260040161047c906116f6565b60405180910390fd5b60008082815481106104c0577f4e487b7100000000000000000000000000000000000000000000000000000000600052603260045260246000fd5b90600052602060002090600702019050600280546104de9190611867565b816004015411610523576040517f08c379a000000000000000000000000000000000000000000000000000000000815260040161051a90611716565b60405180910390fd5b8060030160149054906101000a900460ff161561053f57600080fd5b8060030160009054906101000a900473ffffffffffffffffffffffffffffffffffffffff1673ffffffffffffffffffffffffffffffffffffffff166108fc82600201549081150290604051600060405180830381858888f193505050501580156105ad573d6000803e3d6000fd5b5060018160030160146101000a81548160ff0219169083151502179055505050565b600380546105dc90611934565b80601f016020809104026020016040519081016040528092919081815260200182805461060890611934565b80156106555780601f1061062a57610100808354040283529160200191610655565b820191906000526020600020905b81548152906001019060200180831161063857829003601f168201915b505050505081565b60016020528060005260406000206000915054906101000a900460ff1681565b60008080549050905090565b6005805461069690611934565b80601f01602080910402602001604051908101604052809291908181526020018280546106c290611934565b801561070f5780601f106106e45761010080835404028352916020019161070f565b820191906000526020600020905b8154815290600101906020018083116106f257829003601f168201915b505050505081565b7f000000000000000000000000000000000000000000000000000000000000000081565b6004805461074890611934565b80601f016020809104026020016040519081016040528092919081815260200182805461077490611934565b80156107c15780601f10610796576101008083540402835291602001916107c1565b820191906000526020600020905b8154815290600101906020018083116107a457829003601f168201915b505050505081565b806000808281548110610805577f4e487b7100000000000000000000000000000000000000000000000000000000600052603260045260246000fd5b90600052602060002090600702019050600160003373ffffffffffffffffffffffffffffffffffffffff1673ffffffffffffffffffffffffffffffffffffffff16815260200190815260200160002060009054906101000a900460ff1661086b57600080fd5b8060050160003373ffffffffffffffffffffffffffffffffffffffff1673ffffffffffffffffffffffffffffffffffffffff16815260200190815260200160002060009054906101000a900460ff16156108c457600080fd5b8060060160003373ffffffffffffffffffffffffffffffffffffffff1673ffffffffffffffffffffffffffffffffffffffff16815260200190815260200160002060009054906101000a900460ff161561091d57600080fd5b6000808481548110610958577f4e487b7100000000000000000000000000000000000000000000000000000000600052603260045260246000fd5b9060005260206000209060070201905060018160060160003373ffffffffffffffffffffffffffffffffffffffff1673ffffffffffffffffffffffffffffffffffffffff16815260200190815260200160002060006101000a81548160ff02191690831515021790555050505050565b600081815481106109d857600080fd5b90600052602060002090600702016000915090508060000180546109fb90611934565b80601f0160208091040260200160405190810160405280929190818152602001828054610a2790611934565b8015610a745780601f10610a4957610100808354040283529160200191610a74565b820191906000526020600020905b815481529060010190602001808311610a5757829003601f168201915b505050505090806001018054610a8990611934565b80601f0160208091040260200160405190810160405280929190818152602001828054610ab590611934565b8015610b025780601f10610ad757610100808354040283529160200191610b02565b820191906000526020600020905b815481529060010190602001808311610ae557829003601f168201915b5050505050908060020154908060030160009054906101000a900473ffffffffffffffffffffffffffffffffffffffff16908060030160149054906101000a900460ff16908060040154905086565b60025481565b7f000000000000000000000000000000000000000000000000000000000000000081565b6000806000808481548110610bb9577f4e487b7100000000000000000000000000000000000000000000000000000000600052603260045260246000fd5b906000526020600020906007020190508060050160003373ffffffffffffffffffffffffffffffffffffffff1673ffffffffffffffffffffffffffffffffffffffff16815260200190815260200160002060009054906101000a900460ff168160060160003373ffffffffffffffffffffffffffffffffffffffff1673ffffffffffffffffffffffffffffffffffffffff16815260200190815260200160002060009054906101000a900460ff169250925050915091565b7f000000000000000000000000000000000000000000000000000000000000000081565b60008060008060608060607f00000000000000000000000000000000000000000000000000000000000000007f0000000000000000000000000000000000000000000000000000000000000000477f0000000000000000000000000000000000000000000000000000000000000000600560046003828054610d1690611934565b80601f0160208091040260200160405190810160405280929190818152602001828054610d4290611934565b8015610d8f5780601f10610d6457610100808354040283529160200191610d8f565b820191906000526020600020905b815481529060010190602001808311610d7257829003601f168201915b50505050509250818054610da290611934565b80601f0160208091040260200160405190810160405280929190818152602001828054610dce90611934565b8015610e1b5780601f10610df057610100808354040283529160200191610e1b565b820191906000526020600020905b815481529060010190602001808311610dfe57829003601f168201915b50505050509150808054610e2e90611934565b80601f0160208091040260200160405190810160405280929190818152602001828054610e5a90611934565b8015610ea75780601f10610e7c57610100808354040283529160200191610ea7565b820191906000526020600020905b815481529060010190602001808311610e8a57829003601f168201915b50505050509050965096509650965096509650965090919293949596565b7f000000000000000000000000000000000000000000000000000000000000000073ffffffffffffffffffffffffffffffffffffffff163373ffffffffffffffffffffffffffffffffffffffff1614610f53576040517f08c379a0000000000000000000000000000000000000000000000000000000008152600401610f4a906116f6565b60405180910390fd5b600080600181600181540180825580915050039060005260206000209060070201905084816000019080519060200190610f8e92919061130e565b5083816001019080519060200190610fa792919061130e565b50828160020181905550818160030160006101000a81548173ffffffffffffffffffffffffffffffffffffffff021916908373ffffffffffffffffffffffffffffffffffffffff16021790555060008160030160146101000a81548160ff021916908315150217905550600081600401819055505050505050565b7f00000000000000000000000000000000000000000000000000000000000000003411611084576040517f08c379a000000000000000000000000000000000000000000000000000000000815260040161107b90611736565b60405180910390fd5b60018060003373ffffffffffffffffffffffffffffffffffffffff1673ffffffffffffffffffffffffffffffffffffffff16815260200190815260200160002060006101000a81548160ff021916908315150217905550600260008154809291906110ee90611997565b9190505550565b806000808281548110611131577f4e487b7100000000000000000000000000000000000000000000000000000000600052603260045260246000fd5b90600052602060002090600702019050600160003373ffffffffffffffffffffffffffffffffffffffff1673ffffffffffffffffffffffffffffffffffffffff16815260200190815260200160002060009054906101000a900460ff1661119757600080fd5b8060050160003373ffffffffffffffffffffffffffffffffffffffff1673ffffffffffffffffffffffffffffffffffffffff16815260200190815260200160002060009054906101000a900460ff16156111f057600080fd5b8060060160003373ffffffffffffffffffffffffffffffffffffffff1673ffffffffffffffffffffffffffffffffffffffff16815260200190815260200160002060009054906101000a900460ff161561124957600080fd5b6000808481548110611284577f4e487b7100000000000000000000000000000000000000000000000000000000600052603260045260246000fd5b9060005260206000209060070201905060018160050160003373ffffffffffffffffffffffffffffffffffffffff1673ffffffffffffffffffffffffffffffffffffffff16815260200190815260200160002060006101000a81548160ff02191690831515021790555080600401600081548092919061130390611997565b919050555050505050565b82805461131a90611934565b90600052602060002090601f01602090048101928261133c5760008555611383565b82601f1061135557805160ff1916838001178555611383565b82800160010185558215611383579182015b82811115611382578251825591602001919060010190611367565b5b5090506113909190611394565b5090565b5b808211156113ad576000816000905550600101611395565b5090565b60006113c46113bf8461181a565b6117f5565b9050828152602081018484840111156113dc57600080fd5b6113e78482856118f2565b509392505050565b6000813590506113fe81611b4e565b92915050565b600082601f83011261141557600080fd5b81356114258482602086016113b1565b91505092915050565b60008135905061143d81611b65565b92915050565b60006020828403121561145557600080fd5b6000611463848285016113ef565b91505092915050565b6000806000806080858703121561148257600080fd5b600085013567ffffffffffffffff81111561149c57600080fd5b6114a887828801611404565b945050602085013567ffffffffffffffff8111156114c557600080fd5b6114d187828801611404565b93505060406114e28782880161142e565b92505060606114f3878288016113ef565b91505092959194509250565b60006020828403121561151157600080fd5b600061151f8482850161142e565b91505092915050565b611531816118aa565b82525050565b61154081611898565b82525050565b61154f816118bc565b82525050565b60006115608261184b565b61156a8185611856565b935061157a818560208601611901565b61158381611a9c565b840191505092915050565b600061159b601483611856565b91506115a682611aad565b602082019050919050565b60006115be602c83611856565b91506115c982611ad6565b604082019050919050565b60006115e1601c83611856565b91506115ec82611b25565b602082019050919050565b611600816118e8565b82525050565b600060208201905061161b6000830184611537565b92915050565b60006020820190506116366000830184611546565b92915050565b60006040820190506116516000830185611546565b61165e6020830184611546565b9392505050565b6000602082019050818103600083015261167f8184611555565b905092915050565b600060c08201905081810360008301526116a18189611555565b905081810360208301526116b58188611555565b90506116c460408301876115f7565b6116d16060830186611528565b6116de6080830185611546565b6116eb60a08301846115f7565b979650505050505050565b6000602082019050818103600083015261170f8161158e565b9050919050565b6000602082019050818103600083015261172f816115b1565b9050919050565b6000602082019050818103600083015261174f816115d4565b9050919050565b600060208201905061176b60008301846115f7565b92915050565b600060e082019050611786600083018a6115f7565b61179360208301896115f7565b6117a060408301886115f7565b6117ad6060830187611537565b81810360808301526117bf8186611555565b905081810360a08301526117d38185611555565b905081810360c08301526117e78184611555565b905098975050505050505050565b60006117ff611810565b905061180b8282611966565b919050565b6000604051905090565b600067ffffffffffffffff82111561183557611834611a6d565b5b61183e82611a9c565b9050602081019050919050565b600081519050919050565b600082825260208201905092915050565b6000611872826118e8565b915061187d836118e8565b92508261188d5761188c611a0f565b5b828204905092915050565b60006118a3826118c8565b9050919050565b60006118b5826118c8565b9050919050565b60008115159050919050565b600073ffffffffffffffffffffffffffffffffffffffff82169050919050565b6000819050919050565b82818337600083830152505050565b60005b8381101561191f578082015181840152602081019050611904565b8381111561192e576000848401525b50505050565b6000600282049050600182168061194c57607f821691505b602082108114156119605761195f611a3e565b5b50919050565b61196f82611a9c565b810181811067ffffffffffffffff8211171561198e5761198d611a6d565b5b80604052505050565b60006119a2826118e8565b91507fffffffffffffffffffffffffffffffffffffffffffffffffffffffffffffffff8214156119d5576119d46119e0565b5b600182019050919050565b7f4e487b7100000000000000000000000000000000000000000000000000000000600052601160045260246000fd5b7f4e487b7100000000000000000000000000000000000000000000000000000000600052601260045260246000fd5b7f4e487b7100000000000000000000000000000000000000000000000000000000600052602260045260246000fd5b7f4e487b7100000000000000000000000000000000000000000000000000000000600052604160045260246000fd5b6000601f19601f8301169050919050565b7f4f6e6c79206d616e6167657220616c6c6f776564000000000000000000000000600082015250565b7f4e6f7420656e6f7567682070656f706c65206861766520617070726f7665642060008201527f7468697320726571756573740000000000000000000000000000000000000000602082015250565b7f4d696e696d756d20636f6e747269627574696f6e206e6f74206d657400000000600082015250565b611b5781611898565b8114611b6257600080fd5b50565b611b6e816118e8565b8114611b7957600080fd5b5056fea2646970667358221220a32bf464f63d89d622b0a0d3cb534b0932a07f7541ccfab5a46b53587d8c626064736f6c63430008040033",
  "linkReferences": {},
  "deployedLinkReferences": {}
}