{
  "_format": "hh-sol-artifact-1",
  "contractName": "CampaignFactory",
  "sourceName": "contracts/Campaign.sol",
  "abi": [
    {
      "inputs": [
        {
          "internalType": "string",
          "name": "name",
          "type": "string"
        },
        {
          "internalType": "uint256",
          "name": "minimum",
          "type": "uint256"
        },
        {
          "internalType": "uint256",
          "name": "goal",
          "type": "uint256"
        },
        {
          "internalType": "string",
          "name": "description",
          "type": "string"
        },
        {
          "internalType": "string",
          "name": "thumbnail",
          "type": "string"
        }
      ],
      "name": "createCampaign",
      "outputs": [],
      "stateMutability": "nonpayable",
      "type": "function"
    },
    {
      "inputs": [
        {
          "internalType": "uint256",
          "name": "",
          "type": "uint256"
        }
      ],
      "name": "deployedCampaigns",
      "outputs": [
        {
          "internalType": "address",
          "name": "",
          "type": "address"
        }
      ],
      "stateMutability": "view",
      "type": "function"
    },
    {
      "inputs": [],
      "name": "getDeployedCampaigns",
      "outputs": [
        {
          "internalType": "address[]",
          "name": "",
          "type": "address[]"
        }
      ],
      "stateMutability": "view",
      "type": "function"
    }
  ],
  "bytecode": "0x608060405234801561001057600080fd5b5061236d806100206000396000f3fe60806040523480156200001157600080fd5b5060043610620000465760003560e01c8063339d50a5146200004b5780634acb9d4f14620000815780634b2aafcc14620000a3575b600080fd5b620000696004803603810190620000639190620003a9565b620000c3565b604051620000789190620004cd565b60405180910390f35b6200008b62000103565b6040516200009a9190620004ea565b60405180910390f35b620000c16004803603810190620000bb9190620002dc565b62000193565b005b60008181548110620000d457600080fd5b906000526020600020016000915054906101000a900473ffffffffffffffffffffffffffffffffffffffff1681565b606060008054806020026020016040519081016040528092919081815260200182805480156200018957602002820191906000526020600020905b8160009054906101000a900473ffffffffffffffffffffffffffffffffffffffff1673ffffffffffffffffffffffffffffffffffffffff16815260200190600101908083116200013e575b5050505050905090565b6000858585338686604051620001a99062000245565b620001ba969594939291906200050e565b604051809103906000f080158015620001d7573d6000803e3d6000fd5b5090506000819080600181540180825580915050600190039060005260206000200160009091909190916101000a81548173ffffffffffffffffffffffffffffffffffffffff021916908373ffffffffffffffffffffffffffffffffffffffff160217905550505050505050565b611be0806200075883390190565b60006200026a6200026484620005b9565b62000590565b9050828152602081018484840111156200028357600080fd5b6200029084828562000682565b509392505050565b600082601f830112620002aa57600080fd5b8135620002bc84826020860162000253565b91505092915050565b600081359050620002d6816200073d565b92915050565b600080600080600060a08688031215620002f557600080fd5b600086013567ffffffffffffffff8111156200031057600080fd5b6200031e8882890162000298565b95505060206200033188828901620002c5565b94505060406200034488828901620002c5565b935050606086013567ffffffffffffffff8111156200036257600080fd5b620003708882890162000298565b925050608086013567ffffffffffffffff8111156200038e57600080fd5b6200039c8882890162000298565b9150509295509295909350565b600060208284031215620003bc57600080fd5b6000620003cc84828501620002c5565b91505092915050565b6000620003e38383620003ef565b60208301905092915050565b620003fa8162000644565b82525050565b6200040b8162000644565b82525050565b60006200041e82620005ff565b6200042a818562000622565b93506200043783620005ef565b8060005b838110156200046e578151620004528882620003d5565b97506200045f8362000615565b9250506001810190506200043b565b5085935050505092915050565b600062000488826200060a565b62000494818562000633565b9350620004a681856020860162000691565b620004b1816200072c565b840191505092915050565b620004c78162000678565b82525050565b6000602082019050620004e4600083018462000400565b92915050565b6000602082019050818103600083015262000506818462000411565b905092915050565b600060c08201905081810360008301526200052a81896200047b565b90506200053b6020830188620004bc565b6200054a6040830187620004bc565b62000559606083018662000400565b81810360808301526200056d81856200047b565b905081810360a08301526200058381846200047b565b9050979650505050505050565b60006200059c620005af565b9050620005aa8282620006c7565b919050565b6000604051905090565b600067ffffffffffffffff821115620005d757620005d6620006fd565b5b620005e2826200072c565b9050602081019050919050565b6000819050602082019050919050565b600081519050919050565b600081519050919050565b6000602082019050919050565b600082825260208201905092915050565b600082825260208201905092915050565b6000620006518262000658565b9050919050565b600073ffffffffffffffffffffffffffffffffffffffff82169050919050565b6000819050919050565b82818337600083830152505050565b60005b83811015620006b157808201518184015260208101905062000694565b83811115620006c1576000848401525b50505050565b620006d2826200072c565b810181811067ffffffffffffffff82111715620006f457620006f3620006fd565b5b80604052505050565b7f4e487b7100000000000000000000000000000000000000000000000000000000600052604160045260246000fd5b6000601f19601f8301169050919050565b620007488162000678565b81146200075457600080fd5b5056fe60a06040523480156200001157600080fd5b5060405162001be038038062001be0833981810160405281019062000037919062000223565b8273ffffffffffffffffffffffffffffffffffffffff1660808173ffffffffffffffffffffffffffffffffffffffff1660601b81525050856005908051906020019062000086929190620000d3565b5081600690805190602001906200009f929190620000d3565b50836003819055508060079080519060200190620000bf929190620000d3565b5084600181905550505050505050620004e6565b828054620000e190620003d7565b90600052602060002090601f01602090048101928262000105576000855562000151565b82601f106200012057805160ff191683800117855562000151565b8280016001018555821562000151579182015b828111156200015057825182559160200191906001019062000133565b5b50905062000160919062000164565b5090565b5b808211156200017f57600081600090555060010162000165565b5090565b60006200019a62000194846200032d565b62000304565b905082815260208101848484011115620001b357600080fd5b620001c0848285620003a1565b509392505050565b600081519050620001d981620004b2565b92915050565b600082601f830112620001f157600080fd5b81516200020384826020860162000183565b91505092915050565b6000815190506200021d81620004cc565b92915050565b60008060008060008060c087890312156200023d57600080fd5b600087015167ffffffffffffffff8111156200025857600080fd5b6200026689828a01620001df565b96505060206200027989828a016200020c565b95505060406200028c89828a016200020c565b94505060606200029f89828a01620001c8565b935050608087015167ffffffffffffffff811115620002bd57600080fd5b620002cb89828a01620001df565b92505060a087015167ffffffffffffffff811115620002e957600080fd5b620002f789828a01620001df565b9150509295509295509295565b60006200031062000323565b90506200031e82826200040d565b919050565b6000604051905090565b600067ffffffffffffffff8211156200034b576200034a62000472565b5b6200035682620004a1565b9050602081019050919050565b6000620003708262000377565b9050919050565b600073ffffffffffffffffffffffffffffffffffffffff82169050919050565b6000819050919050565b60005b83811015620003c1578082015181840152602081019050620003a4565b83811115620003d1576000848401525b50505050565b60006002820490506001821680620003f057607f821691505b6020821081141562000407576200040662000443565b5b50919050565b6200041882620004a1565b810181811067ffffffffffffffff821117156200043a576200043962000472565b5b80604052505050565b7f4e487b7100000000000000000000000000000000000000000000000000000000600052602260045260246000fd5b7f4e487b7100000000000000000000000000000000000000000000000000000000600052604160045260246000fd5b6000601f19601f8301169050919050565b620004bd8162000363565b8114620004c957600080fd5b50565b620004d78162000397565b8114620004e357600080fd5b50565b60805160601c6116c66200051a6000396000818161037b01528181610614015281816108f10152610ad001526116c66000f3fe6080604052600436106100e85760003560e01c80637284e4161161008a578063c774126511610059578063c7741265146102f2578063d7bb99ba1461031b578063d7d1bbdb14610325578063da59cf761461034e576100e8565b80637284e4161461022a57806381d12c581461025557806382fde09314610297578063b16a867c146102c2576100e8565b80633410452a116100c65780633410452a1461017e57806340193883146101a9578063481c6a75146101d45780635afc2ab4146101ff576100e8565b806303441006146100ed57806306fdde03146101165780630a14439114610141575b600080fd5b3480156100f957600080fd5b50610114600480360381019061010f919061104a565b610379565b005b34801561012257600080fd5b5061012b610552565b6040516101389190611187565b60405180910390f35b34801561014d57600080fd5b5061016860048036038101906101639190610f8e565b6105e0565b604051610175919061116c565b60405180910390f35b34801561018a57600080fd5b50610193610600565b6040516101a09190611278565b60405180910390f35b3480156101b557600080fd5b506101be61060c565b6040516101cb9190611278565b60405180910390f35b3480156101e057600080fd5b506101e9610612565b6040516101f69190611151565b60405180910390f35b34801561020b57600080fd5b50610214610636565b6040516102219190611187565b60405180910390f35b34801561023657600080fd5b5061023f6106c4565b60405161024c9190611187565b60405180910390f35b34801561026157600080fd5b5061027c6004803603810190610277919061104a565b610752565b60405161028e969594939291906111a9565b60405180910390f35b3480156102a357600080fd5b506102ac6108db565b6040516102b99190611278565b60405180910390f35b3480156102ce57600080fd5b506102d76108e1565b6040516102e996959493929190611293565b60405180910390f35b3480156102fe57600080fd5b5061031960048036038101906103149190610fb7565b610ace565b005b610323610c2b565b005b34801561033157600080fd5b5061034c6004803603810190610347919061104a565b610ce1565b005b34801561035a57600080fd5b50610363610e53565b6040516103709190611278565b60405180910390f35b7f000000000000000000000000000000000000000000000000000000000000000073ffffffffffffffffffffffffffffffffffffffff163373ffffffffffffffffffffffffffffffffffffffff1614610407576040517f08c379a00000000000000000000000000000000000000000000000000000000081526004016103fe90611218565b60405180910390fd5b6000808281548110610442577f4e487b7100000000000000000000000000000000000000000000000000000000600052603260045260246000fd5b906000526020600020906006020190506002600454610461919061137b565b8160040154116104a6576040517f08c379a000000000000000000000000000000000000000000000000000000000815260040161049d90611238565b60405180910390fd5b8060030160149054906101000a900460ff16156104c257600080fd5b8060030160009054906101000a900473ffffffffffffffffffffffffffffffffffffffff1673ffffffffffffffffffffffffffffffffffffffff166108fc82600201549081150290604051600060405180830381858888f19350505050158015610530573d6000803e3d6000fd5b5060018160030160146101000a81548160ff0219169083151502179055505050565b6005805461055f90611448565b80601f016020809104026020016040519081016040528092919081815260200182805461058b90611448565b80156105d85780601f106105ad576101008083540402835291602001916105d8565b820191906000526020600020905b8154815290600101906020018083116105bb57829003601f168201915b505050505081565b60026020528060005260406000206000915054906101000a900460ff1681565b60008080549050905090565b60035481565b7f000000000000000000000000000000000000000000000000000000000000000081565b6007805461064390611448565b80601f016020809104026020016040519081016040528092919081815260200182805461066f90611448565b80156106bc5780601f10610691576101008083540402835291602001916106bc565b820191906000526020600020905b81548152906001019060200180831161069f57829003601f168201915b505050505081565b600680546106d190611448565b80601f01602080910402602001604051908101604052809291908181526020018280546106fd90611448565b801561074a5780601f1061071f5761010080835404028352916020019161074a565b820191906000526020600020905b81548152906001019060200180831161072d57829003601f168201915b505050505081565b6000818154811061076257600080fd5b906000526020600020906006020160009150905080600001805461078590611448565b80601f01602080910402602001604051908101604052809291908181526020018280546107b190611448565b80156107fe5780601f106107d3576101008083540402835291602001916107fe565b820191906000526020600020905b8154815290600101906020018083116107e157829003601f168201915b50505050509080600101805461081390611448565b80601f016020809104026020016040519081016040528092919081815260200182805461083f90611448565b801561088c5780601f106108615761010080835404028352916020019161088c565b820191906000526020600020905b81548152906001019060200180831161086f57829003601f168201915b5050505050908060020154908060030160009054906101000a900473ffffffffffffffffffffffffffffffffffffffff16908060030160149054906101000a900460ff16908060040154905086565b60045481565b60008060006060806060600154477f000000000000000000000000000000000000000000000000000000000000000060076006600582805461092290611448565b80601f016020809104026020016040519081016040528092919081815260200182805461094e90611448565b801561099b5780601f106109705761010080835404028352916020019161099b565b820191906000526020600020905b81548152906001019060200180831161097e57829003601f168201915b505050505092508180546109ae90611448565b80601f01602080910402602001604051908101604052809291908181526020018280546109da90611448565b8015610a275780601f106109fc57610100808354040283529160200191610a27565b820191906000526020600020905b815481529060010190602001808311610a0a57829003601f168201915b50505050509150808054610a3a90611448565b80601f0160208091040260200160405190810160405280929190818152602001828054610a6690611448565b8015610ab35780601f10610a8857610100808354040283529160200191610ab3565b820191906000526020600020905b815481529060010190602001808311610a9657829003601f168201915b50505050509050955095509550955095509550909192939495565b7f000000000000000000000000000000000000000000000000000000000000000073ffffffffffffffffffffffffffffffffffffffff163373ffffffffffffffffffffffffffffffffffffffff1614610b5c576040517f08c379a0000000000000000000000000000000000000000000000000000000008152600401610b5390611218565b60405180910390fd5b600080600181600181540180825580915050039060005260206000209060060201905084816000019080519060200190610b97929190610e59565b5083816001019080519060200190610bb0929190610e59565b50828160020181905550818160030160006101000a81548173ffffffffffffffffffffffffffffffffffffffff021916908373ffffffffffffffffffffffffffffffffffffffff16021790555060008160030160146101000a81548160ff021916908315150217905550600081600401819055505050505050565b6001543411610c6f576040517f08c379a0000000000000000000000000000000000000000000000000000000008152600401610c6690611258565b60405180910390fd5b6001600260003373ffffffffffffffffffffffffffffffffffffffff1673ffffffffffffffffffffffffffffffffffffffff16815260200190815260200160002060006101000a81548160ff02191690831515021790555060046000815480929190610cda906114ab565b9190505550565b6000808281548110610d1c577f4e487b7100000000000000000000000000000000000000000000000000000000600052603260045260246000fd5b90600052602060002090600602019050600260003373ffffffffffffffffffffffffffffffffffffffff1673ffffffffffffffffffffffffffffffffffffffff16815260200190815260200160002060009054906101000a900460ff16610d8257600080fd5b8060050160003373ffffffffffffffffffffffffffffffffffffffff1673ffffffffffffffffffffffffffffffffffffffff16815260200190815260200160002060009054906101000a900460ff1615610ddb57600080fd5b60018160050160003373ffffffffffffffffffffffffffffffffffffffff1673ffffffffffffffffffffffffffffffffffffffff16815260200190815260200160002060006101000a81548160ff021916908315150217905550806004016000815480929190610e4a906114ab565b91905055505050565b60015481565b828054610e6590611448565b90600052602060002090601f016020900481019282610e875760008555610ece565b82601f10610ea057805160ff1916838001178555610ece565b82800160010185558215610ece579182015b82811115610ecd578251825591602001919060010190610eb2565b5b509050610edb9190610edf565b5090565b5b80821115610ef8576000816000905550600101610ee0565b5090565b6000610f0f610f0a8461132e565b611309565b905082815260208101848484011115610f2757600080fd5b610f32848285611406565b509392505050565b600081359050610f4981611662565b92915050565b600082601f830112610f6057600080fd5b8135610f70848260208601610efc565b91505092915050565b600081359050610f8881611679565b92915050565b600060208284031215610fa057600080fd5b6000610fae84828501610f3a565b91505092915050565b60008060008060808587031215610fcd57600080fd5b600085013567ffffffffffffffff811115610fe757600080fd5b610ff387828801610f4f565b945050602085013567ffffffffffffffff81111561101057600080fd5b61101c87828801610f4f565b935050604061102d87828801610f79565b925050606061103e87828801610f3a565b91505092959194509250565b60006020828403121561105c57600080fd5b600061106a84828501610f79565b91505092915050565b61107c816113be565b82525050565b61108b816113ac565b82525050565b61109a816113d0565b82525050565b60006110ab8261135f565b6110b5818561136a565b93506110c5818560208601611415565b6110ce816115b0565b840191505092915050565b60006110e660148361136a565b91506110f1826115c1565b602082019050919050565b6000611109602c8361136a565b9150611114826115ea565b604082019050919050565b600061112c601c8361136a565b915061113782611639565b602082019050919050565b61114b816113fc565b82525050565b60006020820190506111666000830184611082565b92915050565b60006020820190506111816000830184611091565b92915050565b600060208201905081810360008301526111a181846110a0565b905092915050565b600060c08201905081810360008301526111c381896110a0565b905081810360208301526111d781886110a0565b90506111e66040830187611142565b6111f36060830186611073565b6112006080830185611091565b61120d60a0830184611142565b979650505050505050565b60006020820190508181036000830152611231816110d9565b9050919050565b60006020820190508181036000830152611251816110fc565b9050919050565b600060208201905081810360008301526112718161111f565b9050919050565b600060208201905061128d6000830184611142565b92915050565b600060c0820190506112a86000830189611142565b6112b56020830188611142565b6112c26040830187611082565b81810360608301526112d481866110a0565b905081810360808301526112e881856110a0565b905081810360a08301526112fc81846110a0565b9050979650505050505050565b6000611313611324565b905061131f828261147a565b919050565b6000604051905090565b600067ffffffffffffffff82111561134957611348611581565b5b611352826115b0565b9050602081019050919050565b600081519050919050565b600082825260208201905092915050565b6000611386826113fc565b9150611391836113fc565b9250826113a1576113a0611523565b5b828204905092915050565b60006113b7826113dc565b9050919050565b60006113c9826113dc565b9050919050565b60008115159050919050565b600073ffffffffffffffffffffffffffffffffffffffff82169050919050565b6000819050919050565b82818337600083830152505050565b60005b83811015611433578082015181840152602081019050611418565b83811115611442576000848401525b50505050565b6000600282049050600182168061146057607f821691505b6020821081141561147457611473611552565b5b50919050565b611483826115b0565b810181811067ffffffffffffffff821117156114a2576114a1611581565b5b80604052505050565b60006114b6826113fc565b91507fffffffffffffffffffffffffffffffffffffffffffffffffffffffffffffffff8214156114e9576114e86114f4565b5b600182019050919050565b7f4e487b7100000000000000000000000000000000000000000000000000000000600052601160045260246000fd5b7f4e487b7100000000000000000000000000000000000000000000000000000000600052601260045260246000fd5b7f4e487b7100000000000000000000000000000000000000000000000000000000600052602260045260246000fd5b7f4e487b7100000000000000000000000000000000000000000000000000000000600052604160045260246000fd5b6000601f19601f8301169050919050565b7f4f6e6c79206d616e6167657220616c6c6f776564000000000000000000000000600082015250565b7f4e6f7420656e6f7567682070656f706c65206861766520617070726f7665642060008201527f7468697320726571756573740000000000000000000000000000000000000000602082015250565b7f4d696e696d756d20636f6e747269627574696f6e206e6f74206d657400000000600082015250565b61166b816113ac565b811461167657600080fd5b50565b611682816113fc565b811461168d57600080fd5b5056fea2646970667358221220c2640d69537ad75f258a045cc512646c71269486016e96e1be33594508a0050464736f6c63430008040033a264697066735822122082082842af5c4c0e962fb561419f0767de485e6b07b6be9bf2d92254be0c1d9c64736f6c63430008040033",
  "linkReferences": {},
  "deployedLinkReferences": {}
}