{
  "_format": "hh-sol-artifact-1",
  "contractName": "CampaignFactory",
  "sourceName": "contracts/Campaign.sol",
  "abi": [
    {
      "inputs": [
        {
          "internalType": "string",
          "name": "name",
          "type": "string"
        },
        {
          "internalType": "uint256",
          "name": "minimum",
          "type": "uint256"
        },
        {
          "internalType": "uint256",
          "name": "goal",
          "type": "uint256"
        },
        {
          "internalType": "string",
          "name": "description",
          "type": "string"
        },
        {
          "internalType": "string",
          "name": "thumbnail",
          "type": "string"
        }
      ],
      "name": "createCampaign",
      "outputs": [],
      "stateMutability": "nonpayable",
      "type": "function"
    },
    {
      "inputs": [
        {
          "internalType": "uint256",
          "name": "",
          "type": "uint256"
        }
      ],
      "name": "deployedCampaigns",
      "outputs": [
        {
          "internalType": "address",
          "name": "",
          "type": "address"
        }
      ],
      "stateMutability": "view",
      "type": "function"
    },
    {
      "inputs": [],
      "name": "getDeployedCampaigns",
      "outputs": [
        {
          "internalType": "address[]",
          "name": "",
          "type": "address[]"
        }
      ],
      "stateMutability": "view",
      "type": "function"
    }
  ],
  "bytecode": "0x608060405234801561001057600080fd5b506127c5806100206000396000f3fe60806040523480156200001157600080fd5b5060043610620000465760003560e01c8063339d50a5146200004b5780634acb9d4f14620000815780634b2aafcc14620000a3575b600080fd5b620000696004803603810190620000639190620003a9565b620000c3565b604051620000789190620004cd565b60405180910390f35b6200008b62000103565b6040516200009a9190620004ea565b60405180910390f35b620000c16004803603810190620000bb9190620002dc565b62000193565b005b60008181548110620000d457600080fd5b906000526020600020016000915054906101000a900473ffffffffffffffffffffffffffffffffffffffff1681565b606060008054806020026020016040519081016040528092919081815260200182805480156200018957602002820191906000526020600020905b8160009054906101000a900473ffffffffffffffffffffffffffffffffffffffff1673ffffffffffffffffffffffffffffffffffffffff16815260200190600101908083116200013e575b5050505050905090565b6000858585338686604051620001a99062000245565b620001ba969594939291906200050e565b604051809103906000f080158015620001d7573d6000803e3d6000fd5b5090506000819080600181540180825580915050600190039060005260206000200160009091909190916101000a81548173ffffffffffffffffffffffffffffffffffffffff021916908373ffffffffffffffffffffffffffffffffffffffff160217905550505050505050565b612038806200075883390190565b60006200026a6200026484620005b9565b62000590565b9050828152602081018484840111156200028357600080fd5b6200029084828562000682565b509392505050565b600082601f830112620002aa57600080fd5b8135620002bc84826020860162000253565b91505092915050565b600081359050620002d6816200073d565b92915050565b600080600080600060a08688031215620002f557600080fd5b600086013567ffffffffffffffff8111156200031057600080fd5b6200031e8882890162000298565b95505060206200033188828901620002c5565b94505060406200034488828901620002c5565b935050606086013567ffffffffffffffff8111156200036257600080fd5b620003708882890162000298565b925050608086013567ffffffffffffffff8111156200038e57600080fd5b6200039c8882890162000298565b9150509295509295909350565b600060208284031215620003bc57600080fd5b6000620003cc84828501620002c5565b91505092915050565b6000620003e38383620003ef565b60208301905092915050565b620003fa8162000644565b82525050565b6200040b8162000644565b82525050565b60006200041e82620005ff565b6200042a818562000622565b93506200043783620005ef565b8060005b838110156200046e578151620004528882620003d5565b97506200045f8362000615565b9250506001810190506200043b565b5085935050505092915050565b600062000488826200060a565b62000494818562000633565b9350620004a681856020860162000691565b620004b1816200072c565b840191505092915050565b620004c78162000678565b82525050565b6000602082019050620004e4600083018462000400565b92915050565b6000602082019050818103600083015262000506818462000411565b905092915050565b600060c08201905081810360008301526200052a81896200047b565b90506200053b6020830188620004bc565b6200054a6040830187620004bc565b62000559606083018662000400565b81810360808301526200056d81856200047b565b905081810360a08301526200058381846200047b565b9050979650505050505050565b60006200059c620005af565b9050620005aa8282620006c7565b919050565b6000604051905090565b600067ffffffffffffffff821115620005d757620005d6620006fd565b5b620005e2826200072c565b9050602081019050919050565b6000819050602082019050919050565b600081519050919050565b600081519050919050565b6000602082019050919050565b600082825260208201905092915050565b600082825260208201905092915050565b6000620006518262000658565b9050919050565b600073ffffffffffffffffffffffffffffffffffffffff82169050919050565b6000819050919050565b82818337600083830152505050565b60005b83811015620006b157808201518184015260208101905062000694565b83811115620006c1576000848401525b50505050565b620006d2826200072c565b810181811067ffffffffffffffff82111715620006f457620006f3620006fd565b5b80604052505050565b7f4e487b7100000000000000000000000000000000000000000000000000000000600052604160045260246000fd5b6000601f19601f8301169050919050565b620007488162000678565b81146200075457600080fd5b5056fe60a06040523480156200001157600080fd5b506040516200203838038062002038833981810160405281019062000037919062000223565b8273ffffffffffffffffffffffffffffffffffffffff1660808173ffffffffffffffffffffffffffffffffffffffff1660601b81525050856005908051906020019062000086929190620000d3565b5081600690805190602001906200009f929190620000d3565b50836003819055508060079080519060200190620000bf929190620000d3565b5084600181905550505050505050620004e6565b828054620000e190620003d7565b90600052602060002090601f01602090048101928262000105576000855562000151565b82601f106200012057805160ff191683800117855562000151565b8280016001018555821562000151579182015b828111156200015057825182559160200191906001019062000133565b5b50905062000160919062000164565b5090565b5b808211156200017f57600081600090555060010162000165565b5090565b60006200019a62000194846200032d565b62000304565b905082815260208101848484011115620001b357600080fd5b620001c0848285620003a1565b509392505050565b600081519050620001d981620004b2565b92915050565b600082601f830112620001f157600080fd5b81516200020384826020860162000183565b91505092915050565b6000815190506200021d81620004cc565b92915050565b60008060008060008060c087890312156200023d57600080fd5b600087015167ffffffffffffffff8111156200025857600080fd5b6200026689828a01620001df565b96505060206200027989828a016200020c565b95505060406200028c89828a016200020c565b94505060606200029f89828a01620001c8565b935050608087015167ffffffffffffffff811115620002bd57600080fd5b620002cb89828a01620001df565b92505060a087015167ffffffffffffffff811115620002e957600080fd5b620002f789828a01620001df565b9150509295509295509295565b60006200031062000323565b90506200031e82826200040d565b919050565b6000604051905090565b600067ffffffffffffffff8211156200034b576200034a62000472565b5b6200035682620004a1565b9050602081019050919050565b6000620003708262000377565b9050919050565b600073ffffffffffffffffffffffffffffffffffffffff82169050919050565b6000819050919050565b60005b83811015620003c1578082015181840152602081019050620003a4565b83811115620003d1576000848401525b50505050565b60006002820490506001821680620003f057607f821691505b6020821081141562000407576200040662000443565b5b50919050565b6200041882620004a1565b810181811067ffffffffffffffff821117156200043a576200043962000472565b5b80604052505050565b7f4e487b7100000000000000000000000000000000000000000000000000000000600052602260045260246000fd5b7f4e487b7100000000000000000000000000000000000000000000000000000000600052604160045260246000fd5b6000601f19601f8301169050919050565b620004bd8162000363565b8114620004c957600080fd5b50565b620004d78162000397565b8114620004e357600080fd5b50565b60805160601c611b1e6200051a600039600081816103f90152818161069201528181610c680152610e4a0152611b1e6000f3fe6080604052600436106100fe5760003560e01c806379f96c5711610095578063b16a867c11610064578063b16a867c1461033f578063c774126514610370578063d7bb99ba14610399578063d7d1bbdb146103a3578063da59cf76146103cc576100fe565b806379f96c571461026b57806381d12c581461029457806382fde093146102d6578063a3f2a56c14610301576100fe565b806340193883116100d157806340193883146101bf578063481c6a75146101ea5780635afc2ab4146102155780637284e41614610240576100fe565b8063034410061461010357806306fdde031461012c5780630a144391146101575780633410452a14610194575b600080fd5b34801561010f57600080fd5b5061012a6004803603810190610125919061146b565b6103f7565b005b34801561013857600080fd5b506101416105d0565b60405161014e91906115d1565b60405180910390f35b34801561016357600080fd5b5061017e600480360381019061017991906113af565b61065e565b60405161018b919061158d565b60405180910390f35b3480156101a057600080fd5b506101a961067e565b6040516101b691906116c2565b60405180910390f35b3480156101cb57600080fd5b506101d461068a565b6040516101e191906116c2565b60405180910390f35b3480156101f657600080fd5b506101ff610690565b60405161020c9190611572565b60405180910390f35b34801561022157600080fd5b5061022a6106b4565b60405161023791906115d1565b60405180910390f35b34801561024c57600080fd5b50610255610742565b60405161026291906115d1565b60405180910390f35b34801561027757600080fd5b50610292600480360381019061028d919061146b565b6107d0565b005b3480156102a057600080fd5b506102bb60048036038101906102b6919061146b565b6109cf565b6040516102cd969594939291906115f3565b60405180910390f35b3480156102e257600080fd5b506102eb610b58565b6040516102f891906116c2565b60405180910390f35b34801561030d57600080fd5b506103286004803603810190610323919061146b565b610b5e565b6040516103369291906115a8565b60405180910390f35b34801561034b57600080fd5b50610354610c54565b60405161036797969594939291906116dd565b60405180910390f35b34801561037c57600080fd5b50610397600480360381019061039291906113d8565b610e48565b005b6103a1610fa5565b005b3480156103af57600080fd5b506103ca60048036038101906103c5919061146b565b61105b565b005b3480156103d857600080fd5b506103e1611274565b6040516103ee91906116c2565b60405180910390f35b7f000000000000000000000000000000000000000000000000000000000000000073ffffffffffffffffffffffffffffffffffffffff163373ffffffffffffffffffffffffffffffffffffffff1614610485576040517f08c379a000000000000000000000000000000000000000000000000000000000815260040161047c90611662565b60405180910390fd5b60008082815481106104c0577f4e487b7100000000000000000000000000000000000000000000000000000000600052603260045260246000fd5b9060005260206000209060070201905060026004546104df91906117d3565b816004015411610524576040517f08c379a000000000000000000000000000000000000000000000000000000000815260040161051b90611682565b60405180910390fd5b8060030160149054906101000a900460ff161561054057600080fd5b8060030160009054906101000a900473ffffffffffffffffffffffffffffffffffffffff1673ffffffffffffffffffffffffffffffffffffffff166108fc82600201549081150290604051600060405180830381858888f193505050501580156105ae573d6000803e3d6000fd5b5060018160030160146101000a81548160ff0219169083151502179055505050565b600580546105dd906118a0565b80601f0160208091040260200160405190810160405280929190818152602001828054610609906118a0565b80156106565780601f1061062b57610100808354040283529160200191610656565b820191906000526020600020905b81548152906001019060200180831161063957829003601f168201915b505050505081565b60026020528060005260406000206000915054906101000a900460ff1681565b60008080549050905090565b60035481565b7f000000000000000000000000000000000000000000000000000000000000000081565b600780546106c1906118a0565b80601f01602080910402602001604051908101604052809291908181526020018280546106ed906118a0565b801561073a5780601f1061070f5761010080835404028352916020019161073a565b820191906000526020600020905b81548152906001019060200180831161071d57829003601f168201915b505050505081565b6006805461074f906118a0565b80601f016020809104026020016040519081016040528092919081815260200182805461077b906118a0565b80156107c85780601f1061079d576101008083540402835291602001916107c8565b820191906000526020600020905b8154815290600101906020018083116107ab57829003601f168201915b505050505081565b80600080828154811061080c577f4e487b7100000000000000000000000000000000000000000000000000000000600052603260045260246000fd5b90600052602060002090600702019050600260003373ffffffffffffffffffffffffffffffffffffffff1673ffffffffffffffffffffffffffffffffffffffff16815260200190815260200160002060009054906101000a900460ff1661087257600080fd5b8060050160003373ffffffffffffffffffffffffffffffffffffffff1673ffffffffffffffffffffffffffffffffffffffff16815260200190815260200160002060009054906101000a900460ff16156108cb57600080fd5b8060060160003373ffffffffffffffffffffffffffffffffffffffff1673ffffffffffffffffffffffffffffffffffffffff16815260200190815260200160002060009054906101000a900460ff161561092457600080fd5b600080848154811061095f577f4e487b7100000000000000000000000000000000000000000000000000000000600052603260045260246000fd5b9060005260206000209060070201905060018160060160003373ffffffffffffffffffffffffffffffffffffffff1673ffffffffffffffffffffffffffffffffffffffff16815260200190815260200160002060006101000a81548160ff02191690831515021790555050505050565b600081815481106109df57600080fd5b9060005260206000209060070201600091509050806000018054610a02906118a0565b80601f0160208091040260200160405190810160405280929190818152602001828054610a2e906118a0565b8015610a7b5780601f10610a5057610100808354040283529160200191610a7b565b820191906000526020600020905b815481529060010190602001808311610a5e57829003601f168201915b505050505090806001018054610a90906118a0565b80601f0160208091040260200160405190810160405280929190818152602001828054610abc906118a0565b8015610b095780601f10610ade57610100808354040283529160200191610b09565b820191906000526020600020905b815481529060010190602001808311610aec57829003601f168201915b5050505050908060020154908060030160009054906101000a900473ffffffffffffffffffffffffffffffffffffffff16908060030160149054906101000a900460ff16908060040154905086565b60045481565b6000806000808481548110610b9c577f4e487b7100000000000000000000000000000000000000000000000000000000600052603260045260246000fd5b906000526020600020906007020190508060050160003373ffffffffffffffffffffffffffffffffffffffff1673ffffffffffffffffffffffffffffffffffffffff16815260200190815260200160002060009054906101000a900460ff168160060160003373ffffffffffffffffffffffffffffffffffffffff1673ffffffffffffffffffffffffffffffffffffffff16815260200190815260200160002060009054906101000a900460ff169250925050915091565b6000806000806060806060600154600354477f0000000000000000000000000000000000000000000000000000000000000000600760066005828054610c99906118a0565b80601f0160208091040260200160405190810160405280929190818152602001828054610cc5906118a0565b8015610d125780601f10610ce757610100808354040283529160200191610d12565b820191906000526020600020905b815481529060010190602001808311610cf557829003601f168201915b50505050509250818054610d25906118a0565b80601f0160208091040260200160405190810160405280929190818152602001828054610d51906118a0565b8015610d9e5780601f10610d7357610100808354040283529160200191610d9e565b820191906000526020600020905b815481529060010190602001808311610d8157829003601f168201915b50505050509150808054610db1906118a0565b80601f0160208091040260200160405190810160405280929190818152602001828054610ddd906118a0565b8015610e2a5780601f10610dff57610100808354040283529160200191610e2a565b820191906000526020600020905b815481529060010190602001808311610e0d57829003601f168201915b50505050509050965096509650965096509650965090919293949596565b7f000000000000000000000000000000000000000000000000000000000000000073ffffffffffffffffffffffffffffffffffffffff163373ffffffffffffffffffffffffffffffffffffffff1614610ed6576040517f08c379a0000000000000000000000000000000000000000000000000000000008152600401610ecd90611662565b60405180910390fd5b600080600181600181540180825580915050039060005260206000209060070201905084816000019080519060200190610f1192919061127a565b5083816001019080519060200190610f2a92919061127a565b50828160020181905550818160030160006101000a81548173ffffffffffffffffffffffffffffffffffffffff021916908373ffffffffffffffffffffffffffffffffffffffff16021790555060008160030160146101000a81548160ff021916908315150217905550600081600401819055505050505050565b6001543411610fe9576040517f08c379a0000000000000000000000000000000000000000000000000000000008152600401610fe0906116a2565b60405180910390fd5b6001600260003373ffffffffffffffffffffffffffffffffffffffff1673ffffffffffffffffffffffffffffffffffffffff16815260200190815260200160002060006101000a81548160ff0219169083151502179055506004600081548092919061105490611903565b9190505550565b806000808281548110611097577f4e487b7100000000000000000000000000000000000000000000000000000000600052603260045260246000fd5b90600052602060002090600702019050600260003373ffffffffffffffffffffffffffffffffffffffff1673ffffffffffffffffffffffffffffffffffffffff16815260200190815260200160002060009054906101000a900460ff166110fd57600080fd5b8060050160003373ffffffffffffffffffffffffffffffffffffffff1673ffffffffffffffffffffffffffffffffffffffff16815260200190815260200160002060009054906101000a900460ff161561115657600080fd5b8060060160003373ffffffffffffffffffffffffffffffffffffffff1673ffffffffffffffffffffffffffffffffffffffff16815260200190815260200160002060009054906101000a900460ff16156111af57600080fd5b60008084815481106111ea577f4e487b7100000000000000000000000000000000000000000000000000000000600052603260045260246000fd5b9060005260206000209060070201905060018160050160003373ffffffffffffffffffffffffffffffffffffffff1673ffffffffffffffffffffffffffffffffffffffff16815260200190815260200160002060006101000a81548160ff02191690831515021790555080600401600081548092919061126990611903565b919050555050505050565b60015481565b828054611286906118a0565b90600052602060002090601f0160209004810192826112a857600085556112ef565b82601f106112c157805160ff19168380011785556112ef565b828001600101855582156112ef579182015b828111156112ee5782518255916020019190600101906112d3565b5b5090506112fc9190611300565b5090565b5b80821115611319576000816000905550600101611301565b5090565b600061133061132b84611786565b611761565b90508281526020810184848401111561134857600080fd5b61135384828561185e565b509392505050565b60008135905061136a81611aba565b92915050565b600082601f83011261138157600080fd5b813561139184826020860161131d565b91505092915050565b6000813590506113a981611ad1565b92915050565b6000602082840312156113c157600080fd5b60006113cf8482850161135b565b91505092915050565b600080600080608085870312156113ee57600080fd5b600085013567ffffffffffffffff81111561140857600080fd5b61141487828801611370565b945050602085013567ffffffffffffffff81111561143157600080fd5b61143d87828801611370565b935050604061144e8782880161139a565b925050606061145f8782880161135b565b91505092959194509250565b60006020828403121561147d57600080fd5b600061148b8482850161139a565b91505092915050565b61149d81611816565b82525050565b6114ac81611804565b82525050565b6114bb81611828565b82525050565b60006114cc826117b7565b6114d681856117c2565b93506114e681856020860161186d565b6114ef81611a08565b840191505092915050565b60006115076014836117c2565b915061151282611a19565b602082019050919050565b600061152a602c836117c2565b915061153582611a42565b604082019050919050565b600061154d601c836117c2565b915061155882611a91565b602082019050919050565b61156c81611854565b82525050565b600060208201905061158760008301846114a3565b92915050565b60006020820190506115a260008301846114b2565b92915050565b60006040820190506115bd60008301856114b2565b6115ca60208301846114b2565b9392505050565b600060208201905081810360008301526115eb81846114c1565b905092915050565b600060c082019050818103600083015261160d81896114c1565b9050818103602083015261162181886114c1565b90506116306040830187611563565b61163d6060830186611494565b61164a60808301856114b2565b61165760a0830184611563565b979650505050505050565b6000602082019050818103600083015261167b816114fa565b9050919050565b6000602082019050818103600083015261169b8161151d565b9050919050565b600060208201905081810360008301526116bb81611540565b9050919050565b60006020820190506116d76000830184611563565b92915050565b600060e0820190506116f2600083018a611563565b6116ff6020830189611563565b61170c6040830188611563565b61171960608301876114a3565b818103608083015261172b81866114c1565b905081810360a083015261173f81856114c1565b905081810360c083015261175381846114c1565b905098975050505050505050565b600061176b61177c565b905061177782826118d2565b919050565b6000604051905090565b600067ffffffffffffffff8211156117a1576117a06119d9565b5b6117aa82611a08565b9050602081019050919050565b600081519050919050565b600082825260208201905092915050565b60006117de82611854565b91506117e983611854565b9250826117f9576117f861197b565b5b828204905092915050565b600061180f82611834565b9050919050565b600061182182611834565b9050919050565b60008115159050919050565b600073ffffffffffffffffffffffffffffffffffffffff82169050919050565b6000819050919050565b82818337600083830152505050565b60005b8381101561188b578082015181840152602081019050611870565b8381111561189a576000848401525b50505050565b600060028204905060018216806118b857607f821691505b602082108114156118cc576118cb6119aa565b5b50919050565b6118db82611a08565b810181811067ffffffffffffffff821117156118fa576118f96119d9565b5b80604052505050565b600061190e82611854565b91507fffffffffffffffffffffffffffffffffffffffffffffffffffffffffffffffff8214156119415761194061194c565b5b600182019050919050565b7f4e487b7100000000000000000000000000000000000000000000000000000000600052601160045260246000fd5b7f4e487b7100000000000000000000000000000000000000000000000000000000600052601260045260246000fd5b7f4e487b7100000000000000000000000000000000000000000000000000000000600052602260045260246000fd5b7f4e487b7100000000000000000000000000000000000000000000000000000000600052604160045260246000fd5b6000601f19601f8301169050919050565b7f4f6e6c79206d616e6167657220616c6c6f776564000000000000000000000000600082015250565b7f4e6f7420656e6f7567682070656f706c65206861766520617070726f7665642060008201527f7468697320726571756573740000000000000000000000000000000000000000602082015250565b7f4d696e696d756d20636f6e747269627574696f6e206e6f74206d657400000000600082015250565b611ac381611804565b8114611ace57600080fd5b50565b611ada81611854565b8114611ae557600080fd5b5056fea264697066735822122021b0c8bbb702f09f22ae78c7cc53dc6775f83989718fd52aece08d7fa90f1da564736f6c63430008040033a26469706673582212208f825f020464e2d81520930b08f52428a1508a4eaa023c1b473c0f501cbfca9d64736f6c63430008040033",
  "linkReferences": {},
  "deployedLinkReferences": {}
}