{
  "_format": "hh-sol-artifact-1",
  "contractName": "Lottery",
  "sourceName": "contracts/Lottery.sol",
  "abi": [
    {
      "inputs": [
        {
          "internalType": "uint256",
          "name": "_minimum",
          "type": "uint256"
        }
      ],
      "stateMutability": "nonpayable",
      "type": "constructor"
    },
    {
      "anonymous": false,
      "inputs": [
        {
          "indexed": false,
          "internalType": "address",
          "name": "entee",
          "type": "address"
        }
      ],
      "name": "NewEntered",
      "type": "event"
    },
    {
      "anonymous": false,
      "inputs": [
        {
          "indexed": false,
          "internalType": "address",
          "name": "winner",
          "type": "address"
        }
      ],
      "name": "WinnerIs",
      "type": "event"
    },
    {
      "inputs": [
        {
          "internalType": "address",
          "name": "",
          "type": "address"
        }
      ],
      "name": "enteesFees",
      "outputs": [
        {
          "internalType": "uint256",
          "name": "",
          "type": "uint256"
        }
      ],
      "stateMutability": "view",
      "type": "function"
    },
    {
      "inputs": [],
      "name": "enter",
      "outputs": [],
      "stateMutability": "payable",
      "type": "function"
    },
    {
      "inputs": [],
      "name": "getPlayers",
      "outputs": [
        {
          "internalType": "address[]",
          "name": "",
          "type": "address[]"
        }
      ],
      "stateMutability": "view",
      "type": "function"
    },
    {
      "inputs": [],
      "name": "haveIWon",
      "outputs": [
        {
          "internalType": "bool",
          "name": "",
          "type": "bool"
        }
      ],
      "stateMutability": "view",
      "type": "function"
    },
    {
      "inputs": [],
      "name": "isManager",
      "outputs": [
        {
          "internalType": "bool",
          "name": "",
          "type": "bool"
        }
      ],
      "stateMutability": "view",
      "type": "function"
    },
    {
      "inputs": [],
      "name": "manager",
      "outputs": [
        {
          "internalType": "address",
          "name": "",
          "type": "address"
        }
      ],
      "stateMutability": "view",
      "type": "function"
    },
    {
      "inputs": [],
      "name": "minimum",
      "outputs": [
        {
          "internalType": "uint256",
          "name": "",
          "type": "uint256"
        }
      ],
      "stateMutability": "view",
      "type": "function"
    },
    {
      "inputs": [],
      "name": "pickWinner",
      "outputs": [],
      "stateMutability": "nonpayable",
      "type": "function"
    },
    {
      "inputs": [
        {
          "internalType": "uint256",
          "name": "",
          "type": "uint256"
        }
      ],
      "name": "players",
      "outputs": [
        {
          "internalType": "address payable",
          "name": "",
          "type": "address"
        }
      ],
      "stateMutability": "view",
      "type": "function"
    },
    {
      "inputs": [],
      "name": "random",
      "outputs": [
        {
          "internalType": "uint256",
          "name": "",
          "type": "uint256"
        }
      ],
      "stateMutability": "view",
      "type": "function"
    }
  ],
  "bytecode": "0x608060405234801561001057600080fd5b5060405161122038038061122083398181016040528101906100329190610094565b336000806101000a81548173ffffffffffffffffffffffffffffffffffffffff021916908373ffffffffffffffffffffffffffffffffffffffff16021790555080600381905550506100de565b60008151905061008e816100c7565b92915050565b6000602082840312156100a657600080fd5b60006100b48482850161007f565b91505092915050565b6000819050919050565b6100d0816100bd565b81146100db57600080fd5b50565b611133806100ed6000396000f3fe6080604052600436106100915760003560e01c8063a2fbe98c11610059578063a2fbe98c14610159578063b789715b14610184578063c56a3e88146101c1578063e97dcb62146101ec578063f71d96cb146101f657610091565b8063481c6a751461009657806352d6804d146100c15780635d495aea146100ec5780635ec01e4d146101035780638b5b9ccc1461012e575b600080fd5b3480156100a257600080fd5b506100ab610233565b6040516100b89190610d46565b60405180910390f35b3480156100cd57600080fd5b506100d6610257565b6040516100e39190610e14565b60405180910390f35b3480156100f857600080fd5b5061010161025d565b005b34801561010f57600080fd5b5061011861064e565b6040516101259190610e14565b60405180910390f35b34801561013a57600080fd5b50610143610684565b6040516101509190610d97565b60405180910390f35b34801561016557600080fd5b5061016e610807565b60405161017b9190610db9565b60405180910390f35b34801561019057600080fd5b506101ab60048036038101906101a69190610b02565b61085f565b6040516101b89190610e14565b60405180910390f35b3480156101cd57600080fd5b506101d6610877565b6040516101e39190610db9565b60405180910390f35b6101f46108ce565b005b34801561020257600080fd5b5061021d60048036038101906102189190610b2b565b6109f2565b60405161022a9190610d7c565b60405180910390f35b60008054906101000a900473ffffffffffffffffffffffffffffffffffffffff1681565b60035481565b60008054906101000a900473ffffffffffffffffffffffffffffffffffffffff1673ffffffffffffffffffffffffffffffffffffffff163373ffffffffffffffffffffffffffffffffffffffff16146102eb576040517f08c379a00000000000000000000000000000000000000000000000000000000081526004016102e290610dd4565b60405180910390fd5b60006001805490506102fb61064e565b6103059190610fce565b905060018181548110610341577f4e487b7100000000000000000000000000000000000000000000000000000000600052603260045260246000fd5b9060005260206000200160009054906101000a900473ffffffffffffffffffffffffffffffffffffffff1673ffffffffffffffffffffffffffffffffffffffff166108fc479081150290604051600060405180830381858888f193505050501580156103b1573d6000803e3d6000fd5b50600181815481106103ec577f4e487b7100000000000000000000000000000000000000000000000000000000600052603260045260246000fd5b9060005260206000200160009054906101000a900473ffffffffffffffffffffffffffffffffffffffff16600460006101000a81548173ffffffffffffffffffffffffffffffffffffffff021916908373ffffffffffffffffffffffffffffffffffffffff1602179055507fd821567381ed9cd7f0191ec035fe54019b4bbeb0f03a499172692febdeacb1f4600182815481106104b2577f4e487b7100000000000000000000000000000000000000000000000000000000600052603260045260246000fd5b9060005260206000200160009054906101000a900473ffffffffffffffffffffffffffffffffffffffff166040516104ea9190610d61565b60405180910390a160005b6001805490508110156105c45760006001828154811061053e577f4e487b7100000000000000000000000000000000000000000000000000000000600052603260045260246000fd5b9060005260206000200160009054906101000a900473ffffffffffffffffffffffffffffffffffffffff1690506000600260008373ffffffffffffffffffffffffffffffffffffffff1673ffffffffffffffffffffffffffffffffffffffff168152602001908152602001600020819055505080806105bc90610f7b565b9150506104f5565b50600067ffffffffffffffff811115610606577f4e487b7100000000000000000000000000000000000000000000000000000000600052604160045260246000fd5b6040519080825280602002602001820160405280156106345781602001602082028036833780820191505090505b506001908051906020019061064a929190610a31565b5050565b60004442600160405160200161066693929190610d0d565b6040516020818303038152906040528051906020012060001c905090565b6060600060018054905067ffffffffffffffff8111156106cd577f4e487b7100000000000000000000000000000000000000000000000000000000600052604160045260246000fd5b6040519080825280602002602001820160405280156106fb5781602001602082028036833780820191505090505b50905060005b6001805490508110156107ff5760006001828154811061074a577f4e487b7100000000000000000000000000000000000000000000000000000000600052603260045260246000fd5b9060005260206000200160009054906101000a900473ffffffffffffffffffffffffffffffffffffffff169050808383815181106107b1577f4e487b7100000000000000000000000000000000000000000000000000000000600052603260045260246000fd5b602002602001019073ffffffffffffffffffffffffffffffffffffffff16908173ffffffffffffffffffffffffffffffffffffffff16815250505080806107f790610f7b565b915050610701565b508091505090565b6000600460009054906101000a900473ffffffffffffffffffffffffffffffffffffffff1673ffffffffffffffffffffffffffffffffffffffff163373ffffffffffffffffffffffffffffffffffffffff1614905090565b60026020528060005260406000206000915090505481565b60008060009054906101000a900473ffffffffffffffffffffffffffffffffffffffff1673ffffffffffffffffffffffffffffffffffffffff163373ffffffffffffffffffffffffffffffffffffffff1614905090565b6003543411610912576040517f08c379a000000000000000000000000000000000000000000000000000000000815260040161090990610df4565b60405180910390fd5b6001339080600181540180825580915050600190039060005260206000200160009091909190916101000a81548173ffffffffffffffffffffffffffffffffffffffff021916908373ffffffffffffffffffffffffffffffffffffffff16021790555034600260003373ffffffffffffffffffffffffffffffffffffffff1673ffffffffffffffffffffffffffffffffffffffff168152602001908152602001600020819055507f5d5d6fc2924ab14813f755bca250becad4f1092940be4d4138c02e50f0810b42336040516109e89190610d46565b60405180910390a1565b60018181548110610a0257600080fd5b906000526020600020016000915054906101000a900473ffffffffffffffffffffffffffffffffffffffff1681565b828054828255906000526020600020908101928215610aaa579160200282015b82811115610aa95782518260006101000a81548173ffffffffffffffffffffffffffffffffffffffff021916908373ffffffffffffffffffffffffffffffffffffffff16021790555091602001919060010190610a51565b5b509050610ab79190610abb565b5090565b5b80821115610ad4576000816000905550600101610abc565b5090565b600081359050610ae7816110cf565b92915050565b600081359050610afc816110e6565b92915050565b600060208284031215610b1457600080fd5b6000610b2284828501610ad8565b91505092915050565b600060208284031215610b3d57600080fd5b6000610b4b84828501610aed565b91505092915050565b6000610b608383610ba2565b60208301905092915050565b6000610b788383610bb1565b60208301905092915050565b610b8d81610f2b565b82525050565b610b9c81610ee3565b82525050565b610bab81610ee3565b82525050565b610bba81610ed1565b82525050565b610bc981610ed1565b82525050565b6000610bda82610e54565b610be48185610e84565b9350610bef83610e2f565b8060005b83811015610c20578151610c078882610b6c565b9750610c1283610e6a565b925050600181019050610bf3565b5085935050505092915050565b6000610c3882610e5f565b610c428185610e95565b9350610c4d83610e3f565b8060005b83811015610c8557610c628261105d565b610c6c8882610b54565b9750610c7783610e77565b925050600181019050610c51565b5085935050505092915050565b610c9b81610ef5565b82525050565b6000610cae601883610ea0565b9150610cb98261107d565b602082019050919050565b6000610cd1601883610ea0565b9150610cdc826110a6565b602082019050919050565b610cf081610f21565b82525050565b610d07610d0282610f21565b610fc4565b82525050565b6000610d198286610cf6565b602082019150610d298285610cf6565b602082019150610d398284610c2d565b9150819050949350505050565b6000602082019050610d5b6000830184610bc0565b92915050565b6000602082019050610d766000830184610b84565b92915050565b6000602082019050610d916000830184610b93565b92915050565b60006020820190508181036000830152610db18184610bcf565b905092915050565b6000602082019050610dce6000830184610c92565b92915050565b60006020820190508181036000830152610ded81610ca1565b9050919050565b60006020820190508181036000830152610e0d81610cc4565b9050919050565b6000602082019050610e296000830184610ce7565b92915050565b6000819050602082019050919050565b60008190508160005260206000209050919050565b600081519050919050565b600081549050919050565b6000602082019050919050565b6000600182019050919050565b600082825260208201905092915050565b600081905092915050565b600082825260208201905092915050565b600073ffffffffffffffffffffffffffffffffffffffff82169050919050565b6000610edc82610f01565b9050919050565b6000610eee82610f01565b9050919050565b60008115159050919050565b600073ffffffffffffffffffffffffffffffffffffffff82169050919050565b6000819050919050565b6000610f3682610f3d565b9050919050565b6000610f4882610f4f565b9050919050565b6000610f5a82610f01565b9050919050565b6000610f74610f6f83611070565b610eb1565b9050919050565b6000610f8682610f21565b91507fffffffffffffffffffffffffffffffffffffffffffffffffffffffffffffffff821415610fb957610fb8610fff565b5b600182019050919050565b6000819050919050565b6000610fd982610f21565b9150610fe483610f21565b925082610ff457610ff361102e565b5b828206905092915050565b7f4e487b7100000000000000000000000000000000000000000000000000000000600052601160045260246000fd5b7f4e487b7100000000000000000000000000000000000000000000000000000000600052601260045260246000fd5b60006110698254610f61565b9050919050565b60008160001c9050919050565b7f4f6e6c79206d616e616765722063616e20646f20746869730000000000000000600082015250565b7f446f65736e74206d65742074686520656e746572206665650000000000000000600082015250565b6110d881610ed1565b81146110e357600080fd5b50565b6110ef81610f21565b81146110fa57600080fd5b5056fea264697066735822122049b136baaf55e25a2d1b8a7d53c3fdc0187dee2e9125cff101fc2396e369889464736f6c63430008040033",
  "linkReferences": {},
  "deployedLinkReferences": {}
}