{
  "_format": "hh-sol-artifact-1",
  "contractName": "Lottery",
  "sourceName": "contracts/Lottery.sol",
  "abi": [
    {
      "inputs": [
        {
          "internalType": "uint256",
          "name": "_minimum",
          "type": "uint256"
        }
      ],
      "stateMutability": "nonpayable",
      "type": "constructor"
    },
    {
      "anonymous": false,
      "inputs": [
        {
          "indexed": false,
          "internalType": "address",
          "name": "winner",
          "type": "address"
        }
      ],
      "name": "WinnerIs",
      "type": "event"
    },
    {
      "inputs": [
        {
          "internalType": "address",
          "name": "",
          "type": "address"
        }
      ],
      "name": "entees",
      "outputs": [
        {
          "internalType": "uint256",
          "name": "",
          "type": "uint256"
        }
      ],
      "stateMutability": "view",
      "type": "function"
    },
    {
      "inputs": [],
      "name": "enter",
      "outputs": [],
      "stateMutability": "payable",
      "type": "function"
    },
    {
      "inputs": [],
      "name": "getPlayers",
      "outputs": [
        {
          "internalType": "address[]",
          "name": "",
          "type": "address[]"
        }
      ],
      "stateMutability": "view",
      "type": "function"
    },
    {
      "inputs": [],
      "name": "manager",
      "outputs": [
        {
          "internalType": "address",
          "name": "",
          "type": "address"
        }
      ],
      "stateMutability": "view",
      "type": "function"
    },
    {
      "inputs": [],
      "name": "minimum",
      "outputs": [
        {
          "internalType": "uint256",
          "name": "",
          "type": "uint256"
        }
      ],
      "stateMutability": "view",
      "type": "function"
    },
    {
      "inputs": [],
      "name": "pickWinner",
      "outputs": [],
      "stateMutability": "nonpayable",
      "type": "function"
    },
    {
      "inputs": [
        {
          "internalType": "uint256",
          "name": "",
          "type": "uint256"
        }
      ],
      "name": "players",
      "outputs": [
        {
          "internalType": "address payable",
          "name": "",
          "type": "address"
        }
      ],
      "stateMutability": "view",
      "type": "function"
    },
    {
      "inputs": [],
      "name": "random",
      "outputs": [
        {
          "internalType": "uint256",
          "name": "",
          "type": "uint256"
        }
      ],
      "stateMutability": "view",
      "type": "function"
    }
  ],
  "bytecode": "0x608060405234801561001057600080fd5b50604051610f20380380610f2083398181016040528101906100329190610094565b336000806101000a81548173ffffffffffffffffffffffffffffffffffffffff021916908373ffffffffffffffffffffffffffffffffffffffff16021790555080600381905550506100de565b60008151905061008e816100c7565b92915050565b6000602082840312156100a657600080fd5b60006100b48482850161007f565b91505092915050565b6000819050919050565b6100d0816100bd565b81146100db57600080fd5b50565b610e33806100ed6000396000f3fe60806040526004361061007b5760003560e01c80636da88b6f1161004e5780636da88b6f146101185780638b5b9ccc14610155578063e97dcb6214610180578063f71d96cb1461018a5761007b565b8063481c6a751461008057806352d6804d146100ab5780635d495aea146100d65780635ec01e4d146100ed575b600080fd5b34801561008c57600080fd5b506100956101c7565b6040516100a29190610a6d565b60405180910390f35b3480156100b757600080fd5b506100c06101eb565b6040516100cd9190610b20565b60405180910390f35b3480156100e257600080fd5b506100eb6101f1565b005b3480156100f957600080fd5b5061010261046a565b60405161010f9190610b20565b60405180910390f35b34801561012457600080fd5b5061013f600480360381019061013a9190610838565b6104a0565b60405161014c9190610b20565b60405180910390f35b34801561016157600080fd5b5061016a6104b8565b6040516101779190610abe565b60405180910390f35b61018861063b565b005b34801561019657600080fd5b506101b160048036038101906101ac9190610861565b610728565b6040516101be9190610aa3565b60405180910390f35b60008054906101000a900473ffffffffffffffffffffffffffffffffffffffff1681565b60035481565b60008054906101000a900473ffffffffffffffffffffffffffffffffffffffff1673ffffffffffffffffffffffffffffffffffffffff163373ffffffffffffffffffffffffffffffffffffffff161461027f576040517f08c379a000000000000000000000000000000000000000000000000000000000815260040161027690610ae0565b60405180910390fd5b600060018054905061028f61046a565b6102999190610cce565b9050600181815481106102d5577f4e487b7100000000000000000000000000000000000000000000000000000000600052603260045260246000fd5b9060005260206000200160009054906101000a900473ffffffffffffffffffffffffffffffffffffffff1673ffffffffffffffffffffffffffffffffffffffff166108fc479081150290604051600060405180830381858888f19350505050158015610345573d6000803e3d6000fd5b507fd821567381ed9cd7f0191ec035fe54019b4bbeb0f03a499172692febdeacb1f4600182815481106103a1577f4e487b7100000000000000000000000000000000000000000000000000000000600052603260045260246000fd5b9060005260206000200160009054906101000a900473ffffffffffffffffffffffffffffffffffffffff166040516103d99190610a88565b60405180910390a1600067ffffffffffffffff811115610422577f4e487b7100000000000000000000000000000000000000000000000000000000600052604160045260246000fd5b6040519080825280602002602001820160405280156104505781602001602082028036833780820191505090505b5060019080519060200190610466929190610767565b5050565b60004442600160405160200161048293929190610a34565b6040516020818303038152906040528051906020012060001c905090565b60026020528060005260406000206000915090505481565b6060600060018054905067ffffffffffffffff811115610501577f4e487b7100000000000000000000000000000000000000000000000000000000600052604160045260246000fd5b60405190808252806020026020018201604052801561052f5781602001602082028036833780820191505090505b50905060005b6001805490508110156106335760006001828154811061057e577f4e487b7100000000000000000000000000000000000000000000000000000000600052603260045260246000fd5b9060005260206000200160009054906101000a900473ffffffffffffffffffffffffffffffffffffffff169050808383815181106105e5577f4e487b7100000000000000000000000000000000000000000000000000000000600052603260045260246000fd5b602002602001019073ffffffffffffffffffffffffffffffffffffffff16908173ffffffffffffffffffffffffffffffffffffffff168152505050808061062b90610c7b565b915050610535565b508091505090565b600354341161067f576040517f08c379a000000000000000000000000000000000000000000000000000000000815260040161067690610b00565b60405180910390fd5b6001339080600181540180825580915050600190039060005260206000200160009091909190916101000a81548173ffffffffffffffffffffffffffffffffffffffff021916908373ffffffffffffffffffffffffffffffffffffffff16021790555034600260003373ffffffffffffffffffffffffffffffffffffffff1673ffffffffffffffffffffffffffffffffffffffff16815260200190815260200160002081905550565b6001818154811061073857600080fd5b906000526020600020016000915054906101000a900473ffffffffffffffffffffffffffffffffffffffff1681565b8280548282559060005260206000209081019282156107e0579160200282015b828111156107df5782518260006101000a81548173ffffffffffffffffffffffffffffffffffffffff021916908373ffffffffffffffffffffffffffffffffffffffff16021790555091602001919060010190610787565b5b5090506107ed91906107f1565b5090565b5b8082111561080a5760008160009055506001016107f2565b5090565b60008135905061081d81610dcf565b92915050565b60008135905061083281610de6565b92915050565b60006020828403121561084a57600080fd5b60006108588482850161080e565b91505092915050565b60006020828403121561087357600080fd5b600061088184828501610823565b91505092915050565b600061089683836108d8565b60208301905092915050565b60006108ae83836108e7565b60208301905092915050565b6108c381610c2b565b82525050565b6108d281610bef565b82525050565b6108e181610bef565b82525050565b6108f081610bdd565b82525050565b6108ff81610bdd565b82525050565b600061091082610b60565b61091a8185610b90565b935061092583610b3b565b8060005b8381101561095657815161093d88826108a2565b975061094883610b76565b925050600181019050610929565b5085935050505092915050565b600061096e82610b6b565b6109788185610ba1565b935061098383610b4b565b8060005b838110156109bb5761099882610d5d565b6109a2888261088a565b97506109ad83610b83565b925050600181019050610987565b5085935050505092915050565b60006109d5601883610bac565b91506109e082610d7d565b602082019050919050565b60006109f8601883610bac565b9150610a0382610da6565b602082019050919050565b610a1781610c21565b82525050565b610a2e610a2982610c21565b610cc4565b82525050565b6000610a408286610a1d565b602082019150610a508285610a1d565b602082019150610a608284610963565b9150819050949350505050565b6000602082019050610a8260008301846108f6565b92915050565b6000602082019050610a9d60008301846108ba565b92915050565b6000602082019050610ab860008301846108c9565b92915050565b60006020820190508181036000830152610ad88184610905565b905092915050565b60006020820190508181036000830152610af9816109c8565b9050919050565b60006020820190508181036000830152610b19816109eb565b9050919050565b6000602082019050610b356000830184610a0e565b92915050565b6000819050602082019050919050565b60008190508160005260206000209050919050565b600081519050919050565b600081549050919050565b6000602082019050919050565b6000600182019050919050565b600082825260208201905092915050565b600081905092915050565b600082825260208201905092915050565b600073ffffffffffffffffffffffffffffffffffffffff82169050919050565b6000610be882610c01565b9050919050565b6000610bfa82610c01565b9050919050565b600073ffffffffffffffffffffffffffffffffffffffff82169050919050565b6000819050919050565b6000610c3682610c3d565b9050919050565b6000610c4882610c4f565b9050919050565b6000610c5a82610c01565b9050919050565b6000610c74610c6f83610d70565b610bbd565b9050919050565b6000610c8682610c21565b91507fffffffffffffffffffffffffffffffffffffffffffffffffffffffffffffffff821415610cb957610cb8610cff565b5b600182019050919050565b6000819050919050565b6000610cd982610c21565b9150610ce483610c21565b925082610cf457610cf3610d2e565b5b828206905092915050565b7f4e487b7100000000000000000000000000000000000000000000000000000000600052601160045260246000fd5b7f4e487b7100000000000000000000000000000000000000000000000000000000600052601260045260246000fd5b6000610d698254610c61565b9050919050565b60008160001c9050919050565b7f4f6e6c79206d616e616765722063616e20646f20746869730000000000000000600082015250565b7f446f65736e74206d65742074686520656e746572206665650000000000000000600082015250565b610dd881610bdd565b8114610de357600080fd5b50565b610def81610c21565b8114610dfa57600080fd5b5056fea26469706673582212206dc00c876be7585a628e489c2018007f3003c45536d1a8590917f805e965c0c564736f6c63430008040033",
  "linkReferences": {},
  "deployedLinkReferences": {}
}