{
  "_format": "hh-sol-artifact-1",
  "contractName": "Lottery",
  "sourceName": "contracts/Lottery.sol",
  "abi": [
    {
      "inputs": [
        {
          "internalType": "uint256",
          "name": "_minimum",
          "type": "uint256"
        }
      ],
      "stateMutability": "nonpayable",
      "type": "constructor"
    },
    {
      "anonymous": false,
      "inputs": [
        {
          "indexed": false,
          "internalType": "address",
          "name": "winner",
          "type": "address"
        }
      ],
      "name": "WinnerIs",
      "type": "event"
    },
    {
      "inputs": [],
      "name": "enter",
      "outputs": [],
      "stateMutability": "payable",
      "type": "function"
    },
    {
      "inputs": [],
      "name": "getPlayers",
      "outputs": [
        {
          "internalType": "address[]",
          "name": "",
          "type": "address[]"
        }
      ],
      "stateMutability": "view",
      "type": "function"
    },
    {
      "inputs": [],
      "name": "manager",
      "outputs": [
        {
          "internalType": "address",
          "name": "",
          "type": "address"
        }
      ],
      "stateMutability": "view",
      "type": "function"
    },
    {
      "inputs": [],
      "name": "minimum",
      "outputs": [
        {
          "internalType": "uint256",
          "name": "",
          "type": "uint256"
        }
      ],
      "stateMutability": "view",
      "type": "function"
    },
    {
      "inputs": [],
      "name": "pickWinner",
      "outputs": [],
      "stateMutability": "nonpayable",
      "type": "function"
    },
    {
      "inputs": [
        {
          "internalType": "uint256",
          "name": "",
          "type": "uint256"
        }
      ],
      "name": "players",
      "outputs": [
        {
          "internalType": "address payable",
          "name": "",
          "type": "address"
        }
      ],
      "stateMutability": "view",
      "type": "function"
    },
    {
      "inputs": [],
      "name": "random",
      "outputs": [
        {
          "internalType": "uint256",
          "name": "",
          "type": "uint256"
        }
      ],
      "stateMutability": "view",
      "type": "function"
    }
  ],
  "bytecode": "0x608060405234801561001057600080fd5b50604051610e27380380610e2783398181016040528101906100329190610094565b336000806101000a81548173ffffffffffffffffffffffffffffffffffffffff021916908373ffffffffffffffffffffffffffffffffffffffff16021790555080600281905550506100de565b60008151905061008e816100c7565b92915050565b6000602082840312156100a657600080fd5b60006100b48482850161007f565b91505092915050565b6000819050919050565b6100d0816100bd565b81146100db57600080fd5b50565b610d3a806100ed6000396000f3fe6080604052600436106100705760003560e01c80635ec01e4d1161004e5780635ec01e4d146100e25780638b5b9ccc1461010d578063e97dcb6214610138578063f71d96cb1461014257610070565b8063481c6a751461007557806352d6804d146100a05780635d495aea146100cb575b600080fd5b34801561008157600080fd5b5061008a61017f565b604051610097919061098b565b60405180910390f35b3480156100ac57600080fd5b506100b56101a3565b6040516100c29190610a3e565b60405180910390f35b3480156100d757600080fd5b506100e06101a9565b005b3480156100ee57600080fd5b506100f7610422565b6040516101049190610a3e565b60405180910390f35b34801561011957600080fd5b50610122610458565b60405161012f91906109dc565b60405180910390f35b6101406105db565b005b34801561014e57600080fd5b506101696004803603810190610164919061077f565b610684565b60405161017691906109c1565b60405180910390f35b60008054906101000a900473ffffffffffffffffffffffffffffffffffffffff1681565b60025481565b60008054906101000a900473ffffffffffffffffffffffffffffffffffffffff1673ffffffffffffffffffffffffffffffffffffffff163373ffffffffffffffffffffffffffffffffffffffff1614610237576040517f08c379a000000000000000000000000000000000000000000000000000000000815260040161022e906109fe565b60405180910390fd5b6000600180549050610247610422565b6102519190610bec565b90506001818154811061028d577f4e487b7100000000000000000000000000000000000000000000000000000000600052603260045260246000fd5b9060005260206000200160009054906101000a900473ffffffffffffffffffffffffffffffffffffffff1673ffffffffffffffffffffffffffffffffffffffff166108fc479081150290604051600060405180830381858888f193505050501580156102fd573d6000803e3d6000fd5b507fd821567381ed9cd7f0191ec035fe54019b4bbeb0f03a499172692febdeacb1f460018281548110610359577f4e487b7100000000000000000000000000000000000000000000000000000000600052603260045260246000fd5b9060005260206000200160009054906101000a900473ffffffffffffffffffffffffffffffffffffffff1660405161039191906109a6565b60405180910390a1600067ffffffffffffffff8111156103da577f4e487b7100000000000000000000000000000000000000000000000000000000600052604160045260246000fd5b6040519080825280602002602001820160405280156104085781602001602082028036833780820191505090505b506001908051906020019061041e9291906106c3565b5050565b60004442600160405160200161043a93929190610952565b6040516020818303038152906040528051906020012060001c905090565b6060600060018054905067ffffffffffffffff8111156104a1577f4e487b7100000000000000000000000000000000000000000000000000000000600052604160045260246000fd5b6040519080825280602002602001820160405280156104cf5781602001602082028036833780820191505090505b50905060005b6001805490508110156105d35760006001828154811061051e577f4e487b7100000000000000000000000000000000000000000000000000000000600052603260045260246000fd5b9060005260206000200160009054906101000a900473ffffffffffffffffffffffffffffffffffffffff16905080838381518110610585577f4e487b7100000000000000000000000000000000000000000000000000000000600052603260045260246000fd5b602002602001019073ffffffffffffffffffffffffffffffffffffffff16908173ffffffffffffffffffffffffffffffffffffffff16815250505080806105cb90610b99565b9150506104d5565b508091505090565b600254341161061f576040517f08c379a000000000000000000000000000000000000000000000000000000000815260040161061690610a1e565b60405180910390fd5b6001339080600181540180825580915050600190039060005260206000200160009091909190916101000a81548173ffffffffffffffffffffffffffffffffffffffff021916908373ffffffffffffffffffffffffffffffffffffffff160217905550565b6001818154811061069457600080fd5b906000526020600020016000915054906101000a900473ffffffffffffffffffffffffffffffffffffffff1681565b82805482825590600052602060002090810192821561073c579160200282015b8281111561073b5782518260006101000a81548173ffffffffffffffffffffffffffffffffffffffff021916908373ffffffffffffffffffffffffffffffffffffffff160217905550916020019190600101906106e3565b5b509050610749919061074d565b5090565b5b8082111561076657600081600090555060010161074e565b5090565b60008135905061077981610ced565b92915050565b60006020828403121561079157600080fd5b600061079f8482850161076a565b91505092915050565b60006107b483836107f6565b60208301905092915050565b60006107cc8383610805565b60208301905092915050565b6107e181610b49565b82525050565b6107f081610b0d565b82525050565b6107ff81610b0d565b82525050565b61080e81610afb565b82525050565b61081d81610afb565b82525050565b600061082e82610a7e565b6108388185610aae565b935061084383610a59565b8060005b8381101561087457815161085b88826107c0565b975061086683610a94565b925050600181019050610847565b5085935050505092915050565b600061088c82610a89565b6108968185610abf565b93506108a183610a69565b8060005b838110156108d9576108b682610c7b565b6108c088826107a8565b97506108cb83610aa1565b9250506001810190506108a5565b5085935050505092915050565b60006108f3601883610aca565b91506108fe82610c9b565b602082019050919050565b6000610916601883610aca565b915061092182610cc4565b602082019050919050565b61093581610b3f565b82525050565b61094c61094782610b3f565b610be2565b82525050565b600061095e828661093b565b60208201915061096e828561093b565b60208201915061097e8284610881565b9150819050949350505050565b60006020820190506109a06000830184610814565b92915050565b60006020820190506109bb60008301846107d8565b92915050565b60006020820190506109d660008301846107e7565b92915050565b600060208201905081810360008301526109f68184610823565b905092915050565b60006020820190508181036000830152610a17816108e6565b9050919050565b60006020820190508181036000830152610a3781610909565b9050919050565b6000602082019050610a53600083018461092c565b92915050565b6000819050602082019050919050565b60008190508160005260206000209050919050565b600081519050919050565b600081549050919050565b6000602082019050919050565b6000600182019050919050565b600082825260208201905092915050565b600081905092915050565b600082825260208201905092915050565b600073ffffffffffffffffffffffffffffffffffffffff82169050919050565b6000610b0682610b1f565b9050919050565b6000610b1882610b1f565b9050919050565b600073ffffffffffffffffffffffffffffffffffffffff82169050919050565b6000819050919050565b6000610b5482610b5b565b9050919050565b6000610b6682610b6d565b9050919050565b6000610b7882610b1f565b9050919050565b6000610b92610b8d83610c8e565b610adb565b9050919050565b6000610ba482610b3f565b91507fffffffffffffffffffffffffffffffffffffffffffffffffffffffffffffffff821415610bd757610bd6610c1d565b5b600182019050919050565b6000819050919050565b6000610bf782610b3f565b9150610c0283610b3f565b925082610c1257610c11610c4c565b5b828206905092915050565b7f4e487b7100000000000000000000000000000000000000000000000000000000600052601160045260246000fd5b7f4e487b7100000000000000000000000000000000000000000000000000000000600052601260045260246000fd5b6000610c878254610b7f565b9050919050565b60008160001c9050919050565b7f4f6e6c79206d616e616765722063616e20646f20746869730000000000000000600082015250565b7f446f65736e74206d65742074686520656e746572206665650000000000000000600082015250565b610cf681610b3f565b8114610d0157600080fd5b5056fea2646970667358221220ac29711bad4841d5b9976c89affe3186c5d1c10484290bda39548eaf17d0b9ec64736f6c63430008040033",
  "linkReferences": {},
  "deployedLinkReferences": {}
}