{
  "_format": "hh-sol-artifact-1",
  "contractName": "Lottery",
  "sourceName": "contracts/Lottery.sol",
  "abi": [
    {
      "inputs": [
        {
          "internalType": "uint256",
          "name": "_minimum",
          "type": "uint256"
        }
      ],
      "stateMutability": "nonpayable",
      "type": "constructor"
    },
    {
      "anonymous": false,
      "inputs": [
        {
          "indexed": false,
          "internalType": "address",
          "name": "entee",
          "type": "address"
        }
      ],
      "name": "NewEntered",
      "type": "event"
    },
    {
      "anonymous": false,
      "inputs": [
        {
          "indexed": false,
          "internalType": "address",
          "name": "winner",
          "type": "address"
        }
      ],
      "name": "WinnerIs",
      "type": "event"
    },
    {
      "inputs": [
        {
          "internalType": "address",
          "name": "",
          "type": "address"
        }
      ],
      "name": "entees",
      "outputs": [
        {
          "internalType": "uint256",
          "name": "",
          "type": "uint256"
        }
      ],
      "stateMutability": "view",
      "type": "function"
    },
    {
      "inputs": [],
      "name": "enter",
      "outputs": [],
      "stateMutability": "payable",
      "type": "function"
    },
    {
      "inputs": [],
      "name": "getPlayers",
      "outputs": [
        {
          "internalType": "address[]",
          "name": "",
          "type": "address[]"
        }
      ],
      "stateMutability": "view",
      "type": "function"
    },
    {
      "inputs": [],
      "name": "isManager",
      "outputs": [
        {
          "internalType": "bool",
          "name": "",
          "type": "bool"
        }
      ],
      "stateMutability": "view",
      "type": "function"
    },
    {
      "inputs": [],
      "name": "manager",
      "outputs": [
        {
          "internalType": "address",
          "name": "",
          "type": "address"
        }
      ],
      "stateMutability": "view",
      "type": "function"
    },
    {
      "inputs": [],
      "name": "minimum",
      "outputs": [
        {
          "internalType": "uint256",
          "name": "",
          "type": "uint256"
        }
      ],
      "stateMutability": "view",
      "type": "function"
    },
    {
      "inputs": [],
      "name": "pickWinner",
      "outputs": [],
      "stateMutability": "nonpayable",
      "type": "function"
    },
    {
      "inputs": [
        {
          "internalType": "uint256",
          "name": "",
          "type": "uint256"
        }
      ],
      "name": "players",
      "outputs": [
        {
          "internalType": "address payable",
          "name": "",
          "type": "address"
        }
      ],
      "stateMutability": "view",
      "type": "function"
    },
    {
      "inputs": [],
      "name": "random",
      "outputs": [
        {
          "internalType": "uint256",
          "name": "",
          "type": "uint256"
        }
      ],
      "stateMutability": "view",
      "type": "function"
    }
  ],
  "bytecode": "0x608060405234801561001057600080fd5b5060405161101a38038061101a83398181016040528101906100329190610094565b336000806101000a81548173ffffffffffffffffffffffffffffffffffffffff021916908373ffffffffffffffffffffffffffffffffffffffff16021790555080600381905550506100de565b60008151905061008e816100c7565b92915050565b6000602082840312156100a657600080fd5b60006100b48482850161007f565b91505092915050565b6000819050919050565b6100d0816100bd565b81146100db57600080fd5b50565b610f2d806100ed6000396000f3fe6080604052600436106100865760003560e01c80636da88b6f116100595780636da88b6f146101235780638b5b9ccc14610160578063c56a3e881461018b578063e97dcb62146101b6578063f71d96cb146101c057610086565b8063481c6a751461008b57806352d6804d146100b65780635d495aea146100e15780635ec01e4d146100f8575b600080fd5b34801561009757600080fd5b506100a06101fd565b6040516100ad9190610b40565b60405180910390f35b3480156100c257600080fd5b506100cb610221565b6040516100d89190610c0e565b60405180910390f35b3480156100ed57600080fd5b506100f6610227565b005b34801561010457600080fd5b5061010d6104a0565b60405161011a9190610c0e565b60405180910390f35b34801561012f57600080fd5b5061014a600480360381019061014591906108fc565b6104d6565b6040516101579190610c0e565b60405180910390f35b34801561016c57600080fd5b506101756104ee565b6040516101829190610b91565b60405180910390f35b34801561019757600080fd5b506101a0610671565b6040516101ad9190610bb3565b60405180910390f35b6101be6106c8565b005b3480156101cc57600080fd5b506101e760048036038101906101e29190610925565b6107ec565b6040516101f49190610b76565b60405180910390f35b60008054906101000a900473ffffffffffffffffffffffffffffffffffffffff1681565b60035481565b60008054906101000a900473ffffffffffffffffffffffffffffffffffffffff1673ffffffffffffffffffffffffffffffffffffffff163373ffffffffffffffffffffffffffffffffffffffff16146102b5576040517f08c379a00000000000000000000000000000000000000000000000000000000081526004016102ac90610bce565b60405180910390fd5b60006001805490506102c56104a0565b6102cf9190610dc8565b90506001818154811061030b577f4e487b7100000000000000000000000000000000000000000000000000000000600052603260045260246000fd5b9060005260206000200160009054906101000a900473ffffffffffffffffffffffffffffffffffffffff1673ffffffffffffffffffffffffffffffffffffffff166108fc479081150290604051600060405180830381858888f1935050505015801561037b573d6000803e3d6000fd5b507fd821567381ed9cd7f0191ec035fe54019b4bbeb0f03a499172692febdeacb1f4600182815481106103d7577f4e487b7100000000000000000000000000000000000000000000000000000000600052603260045260246000fd5b9060005260206000200160009054906101000a900473ffffffffffffffffffffffffffffffffffffffff1660405161040f9190610b5b565b60405180910390a1600067ffffffffffffffff811115610458577f4e487b7100000000000000000000000000000000000000000000000000000000600052604160045260246000fd5b6040519080825280602002602001820160405280156104865781602001602082028036833780820191505090505b506001908051906020019061049c92919061082b565b5050565b6000444260016040516020016104b893929190610b07565b6040516020818303038152906040528051906020012060001c905090565b60026020528060005260406000206000915090505481565b6060600060018054905067ffffffffffffffff811115610537577f4e487b7100000000000000000000000000000000000000000000000000000000600052604160045260246000fd5b6040519080825280602002602001820160405280156105655781602001602082028036833780820191505090505b50905060005b600180549050811015610669576000600182815481106105b4577f4e487b7100000000000000000000000000000000000000000000000000000000600052603260045260246000fd5b9060005260206000200160009054906101000a900473ffffffffffffffffffffffffffffffffffffffff1690508083838151811061061b577f4e487b7100000000000000000000000000000000000000000000000000000000600052603260045260246000fd5b602002602001019073ffffffffffffffffffffffffffffffffffffffff16908173ffffffffffffffffffffffffffffffffffffffff168152505050808061066190610d75565b91505061056b565b508091505090565b60008060009054906101000a900473ffffffffffffffffffffffffffffffffffffffff1673ffffffffffffffffffffffffffffffffffffffff163373ffffffffffffffffffffffffffffffffffffffff1614905090565b600354341161070c576040517f08c379a000000000000000000000000000000000000000000000000000000000815260040161070390610bee565b60405180910390fd5b6001339080600181540180825580915050600190039060005260206000200160009091909190916101000a81548173ffffffffffffffffffffffffffffffffffffffff021916908373ffffffffffffffffffffffffffffffffffffffff16021790555034600260003373ffffffffffffffffffffffffffffffffffffffff1673ffffffffffffffffffffffffffffffffffffffff168152602001908152602001600020819055507f5d5d6fc2924ab14813f755bca250becad4f1092940be4d4138c02e50f0810b42336040516107e29190610b40565b60405180910390a1565b600181815481106107fc57600080fd5b906000526020600020016000915054906101000a900473ffffffffffffffffffffffffffffffffffffffff1681565b8280548282559060005260206000209081019282156108a4579160200282015b828111156108a35782518260006101000a81548173ffffffffffffffffffffffffffffffffffffffff021916908373ffffffffffffffffffffffffffffffffffffffff1602179055509160200191906001019061084b565b5b5090506108b191906108b5565b5090565b5b808211156108ce5760008160009055506001016108b6565b5090565b6000813590506108e181610ec9565b92915050565b6000813590506108f681610ee0565b92915050565b60006020828403121561090e57600080fd5b600061091c848285016108d2565b91505092915050565b60006020828403121561093757600080fd5b6000610945848285016108e7565b91505092915050565b600061095a838361099c565b60208301905092915050565b600061097283836109ab565b60208301905092915050565b61098781610d25565b82525050565b61099681610cdd565b82525050565b6109a581610cdd565b82525050565b6109b481610ccb565b82525050565b6109c381610ccb565b82525050565b60006109d482610c4e565b6109de8185610c7e565b93506109e983610c29565b8060005b83811015610a1a578151610a018882610966565b9750610a0c83610c64565b9250506001810190506109ed565b5085935050505092915050565b6000610a3282610c59565b610a3c8185610c8f565b9350610a4783610c39565b8060005b83811015610a7f57610a5c82610e57565b610a66888261094e565b9750610a7183610c71565b925050600181019050610a4b565b5085935050505092915050565b610a9581610cef565b82525050565b6000610aa8601883610c9a565b9150610ab382610e77565b602082019050919050565b6000610acb601883610c9a565b9150610ad682610ea0565b602082019050919050565b610aea81610d1b565b82525050565b610b01610afc82610d1b565b610dbe565b82525050565b6000610b138286610af0565b602082019150610b238285610af0565b602082019150610b338284610a27565b9150819050949350505050565b6000602082019050610b5560008301846109ba565b92915050565b6000602082019050610b70600083018461097e565b92915050565b6000602082019050610b8b600083018461098d565b92915050565b60006020820190508181036000830152610bab81846109c9565b905092915050565b6000602082019050610bc86000830184610a8c565b92915050565b60006020820190508181036000830152610be781610a9b565b9050919050565b60006020820190508181036000830152610c0781610abe565b9050919050565b6000602082019050610c236000830184610ae1565b92915050565b6000819050602082019050919050565b60008190508160005260206000209050919050565b600081519050919050565b600081549050919050565b6000602082019050919050565b6000600182019050919050565b600082825260208201905092915050565b600081905092915050565b600082825260208201905092915050565b600073ffffffffffffffffffffffffffffffffffffffff82169050919050565b6000610cd682610cfb565b9050919050565b6000610ce882610cfb565b9050919050565b60008115159050919050565b600073ffffffffffffffffffffffffffffffffffffffff82169050919050565b6000819050919050565b6000610d3082610d37565b9050919050565b6000610d4282610d49565b9050919050565b6000610d5482610cfb565b9050919050565b6000610d6e610d6983610e6a565b610cab565b9050919050565b6000610d8082610d1b565b91507fffffffffffffffffffffffffffffffffffffffffffffffffffffffffffffffff821415610db357610db2610df9565b5b600182019050919050565b6000819050919050565b6000610dd382610d1b565b9150610dde83610d1b565b925082610dee57610ded610e28565b5b828206905092915050565b7f4e487b7100000000000000000000000000000000000000000000000000000000600052601160045260246000fd5b7f4e487b7100000000000000000000000000000000000000000000000000000000600052601260045260246000fd5b6000610e638254610d5b565b9050919050565b60008160001c9050919050565b7f4f6e6c79206d616e616765722063616e20646f20746869730000000000000000600082015250565b7f446f65736e74206d65742074686520656e746572206665650000000000000000600082015250565b610ed281610ccb565b8114610edd57600080fd5b50565b610ee981610d1b565b8114610ef457600080fd5b5056fea264697066735822122080934af6536f222e3c1e1666c804401164d062f7e2c91a24b51deec01ab4a59364736f6c63430008040033",
  "linkReferences": {},
  "deployedLinkReferences": {}
}