{
  "_format": "hh-sol-artifact-1",
  "contractName": "Lottery",
  "sourceName": "contracts/Lottery.sol",
  "abi": [
    {
      "inputs": [
        {
          "internalType": "uint256",
          "name": "_minimum",
          "type": "uint256"
        }
      ],
      "stateMutability": "nonpayable",
      "type": "constructor"
    },
    {
      "anonymous": false,
      "inputs": [
        {
          "indexed": false,
          "internalType": "address",
          "name": "entee",
          "type": "address"
        }
      ],
      "name": "NewEntered",
      "type": "event"
    },
    {
      "anonymous": false,
      "inputs": [
        {
          "indexed": false,
          "internalType": "address",
          "name": "winner",
          "type": "address"
        }
      ],
      "name": "WinnerIs",
      "type": "event"
    },
    {
      "inputs": [
        {
          "internalType": "address",
          "name": "",
          "type": "address"
        }
      ],
      "name": "enteesFees",
      "outputs": [
        {
          "internalType": "uint256",
          "name": "",
          "type": "uint256"
        }
      ],
      "stateMutability": "view",
      "type": "function"
    },
    {
      "inputs": [],
      "name": "enter",
      "outputs": [],
      "stateMutability": "payable",
      "type": "function"
    },
    {
      "inputs": [],
      "name": "getPlayers",
      "outputs": [
        {
          "internalType": "address[]",
          "name": "",
          "type": "address[]"
        }
      ],
      "stateMutability": "view",
      "type": "function"
    },
    {
      "inputs": [],
      "name": "isManager",
      "outputs": [
        {
          "internalType": "bool",
          "name": "",
          "type": "bool"
        }
      ],
      "stateMutability": "view",
      "type": "function"
    },
    {
      "inputs": [],
      "name": "manager",
      "outputs": [
        {
          "internalType": "address",
          "name": "",
          "type": "address"
        }
      ],
      "stateMutability": "view",
      "type": "function"
    },
    {
      "inputs": [],
      "name": "minimum",
      "outputs": [
        {
          "internalType": "uint256",
          "name": "",
          "type": "uint256"
        }
      ],
      "stateMutability": "view",
      "type": "function"
    },
    {
      "inputs": [],
      "name": "pickWinner",
      "outputs": [],
      "stateMutability": "nonpayable",
      "type": "function"
    },
    {
      "inputs": [
        {
          "internalType": "uint256",
          "name": "",
          "type": "uint256"
        }
      ],
      "name": "players",
      "outputs": [
        {
          "internalType": "address payable",
          "name": "",
          "type": "address"
        }
      ],
      "stateMutability": "view",
      "type": "function"
    },
    {
      "inputs": [],
      "name": "random",
      "outputs": [
        {
          "internalType": "uint256",
          "name": "",
          "type": "uint256"
        }
      ],
      "stateMutability": "view",
      "type": "function"
    }
  ],
  "bytecode": "0x608060405234801561001057600080fd5b506040516110ed3803806110ed83398181016040528101906100329190610094565b336000806101000a81548173ffffffffffffffffffffffffffffffffffffffff021916908373ffffffffffffffffffffffffffffffffffffffff16021790555080600381905550506100de565b60008151905061008e816100c7565b92915050565b6000602082840312156100a657600080fd5b60006100b48482850161007f565b91505092915050565b6000819050919050565b6100d0816100bd565b81146100db57600080fd5b50565b611000806100ed6000396000f3fe6080604052600436106100865760003560e01c80638b5b9ccc116100595780638b5b9ccc14610123578063b789715b1461014e578063c56a3e881461018b578063e97dcb62146101b6578063f71d96cb146101c057610086565b8063481c6a751461008b57806352d6804d146100b65780635d495aea146100e15780635ec01e4d146100f8575b600080fd5b34801561009757600080fd5b506100a06101fd565b6040516100ad9190610c13565b60405180910390f35b3480156100c257600080fd5b506100cb610221565b6040516100d89190610ce1565b60405180910390f35b3480156100ed57600080fd5b506100f6610227565b005b34801561010457600080fd5b5061010d610573565b60405161011a9190610ce1565b60405180910390f35b34801561012f57600080fd5b506101386105a9565b6040516101459190610c64565b60405180910390f35b34801561015a57600080fd5b50610175600480360381019061017091906109cf565b61072c565b6040516101829190610ce1565b60405180910390f35b34801561019757600080fd5b506101a0610744565b6040516101ad9190610c86565b60405180910390f35b6101be61079b565b005b3480156101cc57600080fd5b506101e760048036038101906101e291906109f8565b6108bf565b6040516101f49190610c49565b60405180910390f35b60008054906101000a900473ffffffffffffffffffffffffffffffffffffffff1681565b60035481565b60008054906101000a900473ffffffffffffffffffffffffffffffffffffffff1673ffffffffffffffffffffffffffffffffffffffff163373ffffffffffffffffffffffffffffffffffffffff16146102b5576040517f08c379a00000000000000000000000000000000000000000000000000000000081526004016102ac90610ca1565b60405180910390fd5b60006001805490506102c5610573565b6102cf9190610e9b565b90506001818154811061030b577f4e487b7100000000000000000000000000000000000000000000000000000000600052603260045260246000fd5b9060005260206000200160009054906101000a900473ffffffffffffffffffffffffffffffffffffffff1673ffffffffffffffffffffffffffffffffffffffff166108fc479081150290604051600060405180830381858888f1935050505015801561037b573d6000803e3d6000fd5b507fd821567381ed9cd7f0191ec035fe54019b4bbeb0f03a499172692febdeacb1f4600182815481106103d7577f4e487b7100000000000000000000000000000000000000000000000000000000600052603260045260246000fd5b9060005260206000200160009054906101000a900473ffffffffffffffffffffffffffffffffffffffff1660405161040f9190610c2e565b60405180910390a1600067ffffffffffffffff811115610458577f4e487b7100000000000000000000000000000000000000000000000000000000600052604160045260246000fd5b6040519080825280602002602001820160405280156104865781602001602082028036833780820191505090505b506001908051906020019061049c9291906108fe565b5060005b60018054905081101561056f576000600182815481106104e9577f4e487b7100000000000000000000000000000000000000000000000000000000600052603260045260246000fd5b9060005260206000200160009054906101000a900473ffffffffffffffffffffffffffffffffffffffff1690506000600260008373ffffffffffffffffffffffffffffffffffffffff1673ffffffffffffffffffffffffffffffffffffffff1681526020019081526020016000208190555050808061056790610e48565b9150506104a0565b5050565b60004442600160405160200161058b93929190610bda565b6040516020818303038152906040528051906020012060001c905090565b6060600060018054905067ffffffffffffffff8111156105f2577f4e487b7100000000000000000000000000000000000000000000000000000000600052604160045260246000fd5b6040519080825280602002602001820160405280156106205781602001602082028036833780820191505090505b50905060005b6001805490508110156107245760006001828154811061066f577f4e487b7100000000000000000000000000000000000000000000000000000000600052603260045260246000fd5b9060005260206000200160009054906101000a900473ffffffffffffffffffffffffffffffffffffffff169050808383815181106106d6577f4e487b7100000000000000000000000000000000000000000000000000000000600052603260045260246000fd5b602002602001019073ffffffffffffffffffffffffffffffffffffffff16908173ffffffffffffffffffffffffffffffffffffffff168152505050808061071c90610e48565b915050610626565b508091505090565b60026020528060005260406000206000915090505481565b60008060009054906101000a900473ffffffffffffffffffffffffffffffffffffffff1673ffffffffffffffffffffffffffffffffffffffff163373ffffffffffffffffffffffffffffffffffffffff1614905090565b60035434116107df576040517f08c379a00000000000000000000000000000000000000000000000000000000081526004016107d690610cc1565b60405180910390fd5b6001339080600181540180825580915050600190039060005260206000200160009091909190916101000a81548173ffffffffffffffffffffffffffffffffffffffff021916908373ffffffffffffffffffffffffffffffffffffffff16021790555034600260003373ffffffffffffffffffffffffffffffffffffffff1673ffffffffffffffffffffffffffffffffffffffff168152602001908152602001600020819055507f5d5d6fc2924ab14813f755bca250becad4f1092940be4d4138c02e50f0810b42336040516108b59190610c13565b60405180910390a1565b600181815481106108cf57600080fd5b906000526020600020016000915054906101000a900473ffffffffffffffffffffffffffffffffffffffff1681565b828054828255906000526020600020908101928215610977579160200282015b828111156109765782518260006101000a81548173ffffffffffffffffffffffffffffffffffffffff021916908373ffffffffffffffffffffffffffffffffffffffff1602179055509160200191906001019061091e565b5b5090506109849190610988565b5090565b5b808211156109a1576000816000905550600101610989565b5090565b6000813590506109b481610f9c565b92915050565b6000813590506109c981610fb3565b92915050565b6000602082840312156109e157600080fd5b60006109ef848285016109a5565b91505092915050565b600060208284031215610a0a57600080fd5b6000610a18848285016109ba565b91505092915050565b6000610a2d8383610a6f565b60208301905092915050565b6000610a458383610a7e565b60208301905092915050565b610a5a81610df8565b82525050565b610a6981610db0565b82525050565b610a7881610db0565b82525050565b610a8781610d9e565b82525050565b610a9681610d9e565b82525050565b6000610aa782610d21565b610ab18185610d51565b9350610abc83610cfc565b8060005b83811015610aed578151610ad48882610a39565b9750610adf83610d37565b925050600181019050610ac0565b5085935050505092915050565b6000610b0582610d2c565b610b0f8185610d62565b9350610b1a83610d0c565b8060005b83811015610b5257610b2f82610f2a565b610b398882610a21565b9750610b4483610d44565b925050600181019050610b1e565b5085935050505092915050565b610b6881610dc2565b82525050565b6000610b7b601883610d6d565b9150610b8682610f4a565b602082019050919050565b6000610b9e601883610d6d565b9150610ba982610f73565b602082019050919050565b610bbd81610dee565b82525050565b610bd4610bcf82610dee565b610e91565b82525050565b6000610be68286610bc3565b602082019150610bf68285610bc3565b602082019150610c068284610afa565b9150819050949350505050565b6000602082019050610c286000830184610a8d565b92915050565b6000602082019050610c436000830184610a51565b92915050565b6000602082019050610c5e6000830184610a60565b92915050565b60006020820190508181036000830152610c7e8184610a9c565b905092915050565b6000602082019050610c9b6000830184610b5f565b92915050565b60006020820190508181036000830152610cba81610b6e565b9050919050565b60006020820190508181036000830152610cda81610b91565b9050919050565b6000602082019050610cf66000830184610bb4565b92915050565b6000819050602082019050919050565b60008190508160005260206000209050919050565b600081519050919050565b600081549050919050565b6000602082019050919050565b6000600182019050919050565b600082825260208201905092915050565b600081905092915050565b600082825260208201905092915050565b600073ffffffffffffffffffffffffffffffffffffffff82169050919050565b6000610da982610dce565b9050919050565b6000610dbb82610dce565b9050919050565b60008115159050919050565b600073ffffffffffffffffffffffffffffffffffffffff82169050919050565b6000819050919050565b6000610e0382610e0a565b9050919050565b6000610e1582610e1c565b9050919050565b6000610e2782610dce565b9050919050565b6000610e41610e3c83610f3d565b610d7e565b9050919050565b6000610e5382610dee565b91507fffffffffffffffffffffffffffffffffffffffffffffffffffffffffffffffff821415610e8657610e85610ecc565b5b600182019050919050565b6000819050919050565b6000610ea682610dee565b9150610eb183610dee565b925082610ec157610ec0610efb565b5b828206905092915050565b7f4e487b7100000000000000000000000000000000000000000000000000000000600052601160045260246000fd5b7f4e487b7100000000000000000000000000000000000000000000000000000000600052601260045260246000fd5b6000610f368254610e2e565b9050919050565b60008160001c9050919050565b7f4f6e6c79206d616e616765722063616e20646f20746869730000000000000000600082015250565b7f446f65736e74206d65742074686520656e746572206665650000000000000000600082015250565b610fa581610d9e565b8114610fb057600080fd5b50565b610fbc81610dee565b8114610fc757600080fd5b5056fea26469706673582212200cc25cfed0a6f4f1f49bb6b5e83e984b04985f6ccbd2c4b04a9bb18b0faa347564736f6c63430008040033",
  "linkReferences": {},
  "deployedLinkReferences": {}
}