{
  "_format": "hh-sol-artifact-1",
  "contractName": "Lottery",
  "sourceName": "contracts/Lottery.sol",
  "abi": [
    {
      "inputs": [
        {
          "internalType": "uint256",
          "name": "_minimum",
          "type": "uint256"
        }
      ],
      "stateMutability": "nonpayable",
      "type": "constructor"
    },
    {
      "anonymous": false,
      "inputs": [
        {
          "indexed": false,
          "internalType": "address",
          "name": "entee",
          "type": "address"
        }
      ],
      "name": "NewEntered",
      "type": "event"
    },
    {
      "anonymous": false,
      "inputs": [
        {
          "indexed": false,
          "internalType": "address",
          "name": "winner",
          "type": "address"
        }
      ],
      "name": "WinnerIs",
      "type": "event"
    },
    {
      "inputs": [
        {
          "internalType": "address",
          "name": "",
          "type": "address"
        }
      ],
      "name": "enteesFees",
      "outputs": [
        {
          "internalType": "uint256",
          "name": "",
          "type": "uint256"
        }
      ],
      "stateMutability": "view",
      "type": "function"
    },
    {
      "inputs": [],
      "name": "enter",
      "outputs": [],
      "stateMutability": "payable",
      "type": "function"
    },
    {
      "inputs": [],
      "name": "getPlayers",
      "outputs": [
        {
          "internalType": "address[]",
          "name": "",
          "type": "address[]"
        }
      ],
      "stateMutability": "view",
      "type": "function"
    },
    {
      "inputs": [],
      "name": "haveIWon",
      "outputs": [
        {
          "internalType": "bool",
          "name": "",
          "type": "bool"
        }
      ],
      "stateMutability": "nonpayable",
      "type": "function"
    },
    {
      "inputs": [],
      "name": "isManager",
      "outputs": [
        {
          "internalType": "bool",
          "name": "",
          "type": "bool"
        }
      ],
      "stateMutability": "view",
      "type": "function"
    },
    {
      "inputs": [],
      "name": "manager",
      "outputs": [
        {
          "internalType": "address",
          "name": "",
          "type": "address"
        }
      ],
      "stateMutability": "view",
      "type": "function"
    },
    {
      "inputs": [],
      "name": "minimum",
      "outputs": [
        {
          "internalType": "uint256",
          "name": "",
          "type": "uint256"
        }
      ],
      "stateMutability": "view",
      "type": "function"
    },
    {
      "inputs": [],
      "name": "pickWinner",
      "outputs": [],
      "stateMutability": "nonpayable",
      "type": "function"
    },
    {
      "inputs": [
        {
          "internalType": "uint256",
          "name": "",
          "type": "uint256"
        }
      ],
      "name": "players",
      "outputs": [
        {
          "internalType": "address payable",
          "name": "",
          "type": "address"
        }
      ],
      "stateMutability": "view",
      "type": "function"
    },
    {
      "inputs": [],
      "name": "random",
      "outputs": [
        {
          "internalType": "uint256",
          "name": "",
          "type": "uint256"
        }
      ],
      "stateMutability": "view",
      "type": "function"
    }
  ],
  "bytecode": "0x608060405234801561001057600080fd5b506040516112be3803806112be83398181016040528101906100329190610094565b336000806101000a81548173ffffffffffffffffffffffffffffffffffffffff021916908373ffffffffffffffffffffffffffffffffffffffff16021790555080600381905550506100de565b60008151905061008e816100c7565b92915050565b6000602082840312156100a657600080fd5b60006100b48482850161007f565b91505092915050565b6000819050919050565b6100d0816100bd565b81146100db57600080fd5b50565b6111d1806100ed6000396000f3fe6080604052600436106100915760003560e01c8063a2fbe98c11610059578063a2fbe98c14610159578063b789715b14610184578063c56a3e88146101c1578063e97dcb62146101ec578063f71d96cb146101f657610091565b8063481c6a751461009657806352d6804d146100c15780635d495aea146100ec5780635ec01e4d146101035780638b5b9ccc1461012e575b600080fd5b3480156100a257600080fd5b506100ab610233565b6040516100b89190610de4565b60405180910390f35b3480156100cd57600080fd5b506100d6610257565b6040516100e39190610eb2565b60405180910390f35b3480156100f857600080fd5b5061010161025d565b005b34801561010f57600080fd5b5061011861064e565b6040516101259190610eb2565b60405180910390f35b34801561013a57600080fd5b50610143610684565b6040516101509190610e35565b60405180910390f35b34801561016557600080fd5b5061016e610807565b60405161017b9190610e57565b60405180910390f35b34801561019057600080fd5b506101ab60048036038101906101a69190610ba0565b6108fd565b6040516101b89190610eb2565b60405180910390f35b3480156101cd57600080fd5b506101d6610915565b6040516101e39190610e57565b60405180910390f35b6101f461096c565b005b34801561020257600080fd5b5061021d60048036038101906102189190610bc9565b610a90565b60405161022a9190610e1a565b60405180910390f35b60008054906101000a900473ffffffffffffffffffffffffffffffffffffffff1681565b60035481565b60008054906101000a900473ffffffffffffffffffffffffffffffffffffffff1673ffffffffffffffffffffffffffffffffffffffff163373ffffffffffffffffffffffffffffffffffffffff16146102eb576040517f08c379a00000000000000000000000000000000000000000000000000000000081526004016102e290610e72565b60405180910390fd5b60006001805490506102fb61064e565b610305919061106c565b905060018181548110610341577f4e487b7100000000000000000000000000000000000000000000000000000000600052603260045260246000fd5b9060005260206000200160009054906101000a900473ffffffffffffffffffffffffffffffffffffffff1673ffffffffffffffffffffffffffffffffffffffff166108fc479081150290604051600060405180830381858888f193505050501580156103b1573d6000803e3d6000fd5b50600181815481106103ec577f4e487b7100000000000000000000000000000000000000000000000000000000600052603260045260246000fd5b9060005260206000200160009054906101000a900473ffffffffffffffffffffffffffffffffffffffff16600460006101000a81548173ffffffffffffffffffffffffffffffffffffffff021916908373ffffffffffffffffffffffffffffffffffffffff1602179055507fd821567381ed9cd7f0191ec035fe54019b4bbeb0f03a499172692febdeacb1f4600182815481106104b2577f4e487b7100000000000000000000000000000000000000000000000000000000600052603260045260246000fd5b9060005260206000200160009054906101000a900473ffffffffffffffffffffffffffffffffffffffff166040516104ea9190610dff565b60405180910390a1600067ffffffffffffffff811115610533577f4e487b7100000000000000000000000000000000000000000000000000000000600052604160045260246000fd5b6040519080825280602002602001820160405280156105615781602001602082028036833780820191505090505b5060019080519060200190610577929190610acf565b5060005b60018054905081101561064a576000600182815481106105c4577f4e487b7100000000000000000000000000000000000000000000000000000000600052603260045260246000fd5b9060005260206000200160009054906101000a900473ffffffffffffffffffffffffffffffffffffffff1690506000600260008373ffffffffffffffffffffffffffffffffffffffff1673ffffffffffffffffffffffffffffffffffffffff1681526020019081526020016000208190555050808061064290611019565b91505061057b565b5050565b60004442600160405160200161066693929190610dab565b6040516020818303038152906040528051906020012060001c905090565b6060600060018054905067ffffffffffffffff8111156106cd577f4e487b7100000000000000000000000000000000000000000000000000000000600052604160045260246000fd5b6040519080825280602002602001820160405280156106fb5781602001602082028036833780820191505090505b50905060005b6001805490508110156107ff5760006001828154811061074a577f4e487b7100000000000000000000000000000000000000000000000000000000600052603260045260246000fd5b9060005260206000200160009054906101000a900473ffffffffffffffffffffffffffffffffffffffff169050808383815181106107b1577f4e487b7100000000000000000000000000000000000000000000000000000000600052603260045260246000fd5b602002602001019073ffffffffffffffffffffffffffffffffffffffff16908173ffffffffffffffffffffffffffffffffffffffff16815250505080806107f790611019565b915050610701565b508091505090565b600080600460009054906101000a900473ffffffffffffffffffffffffffffffffffffffff1690503373ffffffffffffffffffffffffffffffffffffffff16600460009054906101000a900473ffffffffffffffffffffffffffffffffffffffff1673ffffffffffffffffffffffffffffffffffffffff1614156108c8576000600460006101000a81548173ffffffffffffffffffffffffffffffffffffffff021916908373ffffffffffffffffffffffffffffffffffffffff1602179055505b8073ffffffffffffffffffffffffffffffffffffffff163373ffffffffffffffffffffffffffffffffffffffff161491505090565b60026020528060005260406000206000915090505481565b60008060009054906101000a900473ffffffffffffffffffffffffffffffffffffffff1673ffffffffffffffffffffffffffffffffffffffff163373ffffffffffffffffffffffffffffffffffffffff1614905090565b60035434116109b0576040517f08c379a00000000000000000000000000000000000000000000000000000000081526004016109a790610e92565b60405180910390fd5b6001339080600181540180825580915050600190039060005260206000200160009091909190916101000a81548173ffffffffffffffffffffffffffffffffffffffff021916908373ffffffffffffffffffffffffffffffffffffffff16021790555034600260003373ffffffffffffffffffffffffffffffffffffffff1673ffffffffffffffffffffffffffffffffffffffff168152602001908152602001600020819055507f5d5d6fc2924ab14813f755bca250becad4f1092940be4d4138c02e50f0810b4233604051610a869190610de4565b60405180910390a1565b60018181548110610aa057600080fd5b906000526020600020016000915054906101000a900473ffffffffffffffffffffffffffffffffffffffff1681565b828054828255906000526020600020908101928215610b48579160200282015b82811115610b475782518260006101000a81548173ffffffffffffffffffffffffffffffffffffffff021916908373ffffffffffffffffffffffffffffffffffffffff16021790555091602001919060010190610aef565b5b509050610b559190610b59565b5090565b5b80821115610b72576000816000905550600101610b5a565b5090565b600081359050610b858161116d565b92915050565b600081359050610b9a81611184565b92915050565b600060208284031215610bb257600080fd5b6000610bc084828501610b76565b91505092915050565b600060208284031215610bdb57600080fd5b6000610be984828501610b8b565b91505092915050565b6000610bfe8383610c40565b60208301905092915050565b6000610c168383610c4f565b60208301905092915050565b610c2b81610fc9565b82525050565b610c3a81610f81565b82525050565b610c4981610f81565b82525050565b610c5881610f6f565b82525050565b610c6781610f6f565b82525050565b6000610c7882610ef2565b610c828185610f22565b9350610c8d83610ecd565b8060005b83811015610cbe578151610ca58882610c0a565b9750610cb083610f08565b925050600181019050610c91565b5085935050505092915050565b6000610cd682610efd565b610ce08185610f33565b9350610ceb83610edd565b8060005b83811015610d2357610d00826110fb565b610d0a8882610bf2565b9750610d1583610f15565b925050600181019050610cef565b5085935050505092915050565b610d3981610f93565b82525050565b6000610d4c601883610f3e565b9150610d578261111b565b602082019050919050565b6000610d6f601883610f3e565b9150610d7a82611144565b602082019050919050565b610d8e81610fbf565b82525050565b610da5610da082610fbf565b611062565b82525050565b6000610db78286610d94565b602082019150610dc78285610d94565b602082019150610dd78284610ccb565b9150819050949350505050565b6000602082019050610df96000830184610c5e565b92915050565b6000602082019050610e146000830184610c22565b92915050565b6000602082019050610e2f6000830184610c31565b92915050565b60006020820190508181036000830152610e4f8184610c6d565b905092915050565b6000602082019050610e6c6000830184610d30565b92915050565b60006020820190508181036000830152610e8b81610d3f565b9050919050565b60006020820190508181036000830152610eab81610d62565b9050919050565b6000602082019050610ec76000830184610d85565b92915050565b6000819050602082019050919050565b60008190508160005260206000209050919050565b600081519050919050565b600081549050919050565b6000602082019050919050565b6000600182019050919050565b600082825260208201905092915050565b600081905092915050565b600082825260208201905092915050565b600073ffffffffffffffffffffffffffffffffffffffff82169050919050565b6000610f7a82610f9f565b9050919050565b6000610f8c82610f9f565b9050919050565b60008115159050919050565b600073ffffffffffffffffffffffffffffffffffffffff82169050919050565b6000819050919050565b6000610fd482610fdb565b9050919050565b6000610fe682610fed565b9050919050565b6000610ff882610f9f565b9050919050565b600061101261100d8361110e565b610f4f565b9050919050565b600061102482610fbf565b91507fffffffffffffffffffffffffffffffffffffffffffffffffffffffffffffffff8214156110575761105661109d565b5b600182019050919050565b6000819050919050565b600061107782610fbf565b915061108283610fbf565b925082611092576110916110cc565b5b828206905092915050565b7f4e487b7100000000000000000000000000000000000000000000000000000000600052601160045260246000fd5b7f4e487b7100000000000000000000000000000000000000000000000000000000600052601260045260246000fd5b60006111078254610fff565b9050919050565b60008160001c9050919050565b7f4f6e6c79206d616e616765722063616e20646f20746869730000000000000000600082015250565b7f446f65736e74206d65742074686520656e746572206665650000000000000000600082015250565b61117681610f6f565b811461118157600080fd5b50565b61118d81610fbf565b811461119857600080fd5b5056fea2646970667358221220f25fa962d401fba398637411747c1c9144cc04eaf63934909df74de223bea69364736f6c63430008040033",
  "linkReferences": {},
  "deployedLinkReferences": {}
}