{
  "_format": "hh-sol-artifact-1",
  "contractName": "Lottery",
  "sourceName": "contracts/Lottery.sol",
  "abi": [
    {
      "inputs": [
        {
          "internalType": "uint256",
          "name": "_minimum",
          "type": "uint256"
        }
      ],
      "stateMutability": "nonpayable",
      "type": "constructor"
    },
    {
      "anonymous": false,
      "inputs": [
        {
          "indexed": false,
          "internalType": "address",
          "name": "entee",
          "type": "address"
        }
      ],
      "name": "NewEntered",
      "type": "event"
    },
    {
      "anonymous": false,
      "inputs": [
        {
          "indexed": false,
          "internalType": "address",
          "name": "winner",
          "type": "address"
        }
      ],
      "name": "WinnerIs",
      "type": "event"
    },
    {
      "inputs": [
        {
          "internalType": "address",
          "name": "",
          "type": "address"
        }
      ],
      "name": "entees",
      "outputs": [
        {
          "internalType": "uint256",
          "name": "",
          "type": "uint256"
        }
      ],
      "stateMutability": "view",
      "type": "function"
    },
    {
      "inputs": [],
      "name": "enter",
      "outputs": [],
      "stateMutability": "payable",
      "type": "function"
    },
    {
      "inputs": [],
      "name": "getPlayers",
      "outputs": [
        {
          "internalType": "address[]",
          "name": "",
          "type": "address[]"
        }
      ],
      "stateMutability": "view",
      "type": "function"
    },
    {
      "inputs": [],
      "name": "manager",
      "outputs": [
        {
          "internalType": "address",
          "name": "",
          "type": "address"
        }
      ],
      "stateMutability": "view",
      "type": "function"
    },
    {
      "inputs": [],
      "name": "minimum",
      "outputs": [
        {
          "internalType": "uint256",
          "name": "",
          "type": "uint256"
        }
      ],
      "stateMutability": "view",
      "type": "function"
    },
    {
      "inputs": [],
      "name": "pickWinner",
      "outputs": [],
      "stateMutability": "nonpayable",
      "type": "function"
    },
    {
      "inputs": [
        {
          "internalType": "uint256",
          "name": "",
          "type": "uint256"
        }
      ],
      "name": "players",
      "outputs": [
        {
          "internalType": "address payable",
          "name": "",
          "type": "address"
        }
      ],
      "stateMutability": "view",
      "type": "function"
    },
    {
      "inputs": [],
      "name": "random",
      "outputs": [
        {
          "internalType": "uint256",
          "name": "",
          "type": "uint256"
        }
      ],
      "stateMutability": "view",
      "type": "function"
    }
  ],
  "bytecode": "0x608060405234801561001057600080fd5b50604051610f57380380610f5783398181016040528101906100329190610094565b336000806101000a81548173ffffffffffffffffffffffffffffffffffffffff021916908373ffffffffffffffffffffffffffffffffffffffff16021790555080600381905550506100de565b60008151905061008e816100c7565b92915050565b6000602082840312156100a657600080fd5b60006100b48482850161007f565b91505092915050565b6000819050919050565b6100d0816100bd565b81146100db57600080fd5b50565b610e6a806100ed6000396000f3fe60806040526004361061007b5760003560e01c80636da88b6f1161004e5780636da88b6f146101185780638b5b9ccc14610155578063e97dcb6214610180578063f71d96cb1461018a5761007b565b8063481c6a751461008057806352d6804d146100ab5780635d495aea146100d65780635ec01e4d146100ed575b600080fd5b34801561008c57600080fd5b506100956101c7565b6040516100a29190610aa4565b60405180910390f35b3480156100b757600080fd5b506100c06101eb565b6040516100cd9190610b57565b60405180910390f35b3480156100e257600080fd5b506100eb6101f1565b005b3480156100f957600080fd5b5061010261046a565b60405161010f9190610b57565b60405180910390f35b34801561012457600080fd5b5061013f600480360381019061013a919061086f565b6104a0565b60405161014c9190610b57565b60405180910390f35b34801561016157600080fd5b5061016a6104b8565b6040516101779190610af5565b60405180910390f35b61018861063b565b005b34801561019657600080fd5b506101b160048036038101906101ac9190610898565b61075f565b6040516101be9190610ada565b60405180910390f35b60008054906101000a900473ffffffffffffffffffffffffffffffffffffffff1681565b60035481565b60008054906101000a900473ffffffffffffffffffffffffffffffffffffffff1673ffffffffffffffffffffffffffffffffffffffff163373ffffffffffffffffffffffffffffffffffffffff161461027f576040517f08c379a000000000000000000000000000000000000000000000000000000000815260040161027690610b17565b60405180910390fd5b600060018054905061028f61046a565b6102999190610d05565b9050600181815481106102d5577f4e487b7100000000000000000000000000000000000000000000000000000000600052603260045260246000fd5b9060005260206000200160009054906101000a900473ffffffffffffffffffffffffffffffffffffffff1673ffffffffffffffffffffffffffffffffffffffff166108fc479081150290604051600060405180830381858888f19350505050158015610345573d6000803e3d6000fd5b507fd821567381ed9cd7f0191ec035fe54019b4bbeb0f03a499172692febdeacb1f4600182815481106103a1577f4e487b7100000000000000000000000000000000000000000000000000000000600052603260045260246000fd5b9060005260206000200160009054906101000a900473ffffffffffffffffffffffffffffffffffffffff166040516103d99190610abf565b60405180910390a1600067ffffffffffffffff811115610422577f4e487b7100000000000000000000000000000000000000000000000000000000600052604160045260246000fd5b6040519080825280602002602001820160405280156104505781602001602082028036833780820191505090505b506001908051906020019061046692919061079e565b5050565b60004442600160405160200161048293929190610a6b565b6040516020818303038152906040528051906020012060001c905090565b60026020528060005260406000206000915090505481565b6060600060018054905067ffffffffffffffff811115610501577f4e487b7100000000000000000000000000000000000000000000000000000000600052604160045260246000fd5b60405190808252806020026020018201604052801561052f5781602001602082028036833780820191505090505b50905060005b6001805490508110156106335760006001828154811061057e577f4e487b7100000000000000000000000000000000000000000000000000000000600052603260045260246000fd5b9060005260206000200160009054906101000a900473ffffffffffffffffffffffffffffffffffffffff169050808383815181106105e5577f4e487b7100000000000000000000000000000000000000000000000000000000600052603260045260246000fd5b602002602001019073ffffffffffffffffffffffffffffffffffffffff16908173ffffffffffffffffffffffffffffffffffffffff168152505050808061062b90610cb2565b915050610535565b508091505090565b600354341161067f576040517f08c379a000000000000000000000000000000000000000000000000000000000815260040161067690610b37565b60405180910390fd5b6001339080600181540180825580915050600190039060005260206000200160009091909190916101000a81548173ffffffffffffffffffffffffffffffffffffffff021916908373ffffffffffffffffffffffffffffffffffffffff16021790555034600260003373ffffffffffffffffffffffffffffffffffffffff1673ffffffffffffffffffffffffffffffffffffffff168152602001908152602001600020819055507f5d5d6fc2924ab14813f755bca250becad4f1092940be4d4138c02e50f0810b42336040516107559190610aa4565b60405180910390a1565b6001818154811061076f57600080fd5b906000526020600020016000915054906101000a900473ffffffffffffffffffffffffffffffffffffffff1681565b828054828255906000526020600020908101928215610817579160200282015b828111156108165782518260006101000a81548173ffffffffffffffffffffffffffffffffffffffff021916908373ffffffffffffffffffffffffffffffffffffffff160217905550916020019190600101906107be565b5b5090506108249190610828565b5090565b5b80821115610841576000816000905550600101610829565b5090565b60008135905061085481610e06565b92915050565b60008135905061086981610e1d565b92915050565b60006020828403121561088157600080fd5b600061088f84828501610845565b91505092915050565b6000602082840312156108aa57600080fd5b60006108b88482850161085a565b91505092915050565b60006108cd838361090f565b60208301905092915050565b60006108e5838361091e565b60208301905092915050565b6108fa81610c62565b82525050565b61090981610c26565b82525050565b61091881610c26565b82525050565b61092781610c14565b82525050565b61093681610c14565b82525050565b600061094782610b97565b6109518185610bc7565b935061095c83610b72565b8060005b8381101561098d57815161097488826108d9565b975061097f83610bad565b925050600181019050610960565b5085935050505092915050565b60006109a582610ba2565b6109af8185610bd8565b93506109ba83610b82565b8060005b838110156109f2576109cf82610d94565b6109d988826108c1565b97506109e483610bba565b9250506001810190506109be565b5085935050505092915050565b6000610a0c601883610be3565b9150610a1782610db4565b602082019050919050565b6000610a2f601883610be3565b9150610a3a82610ddd565b602082019050919050565b610a4e81610c58565b82525050565b610a65610a6082610c58565b610cfb565b82525050565b6000610a778286610a54565b602082019150610a878285610a54565b602082019150610a97828461099a565b9150819050949350505050565b6000602082019050610ab9600083018461092d565b92915050565b6000602082019050610ad460008301846108f1565b92915050565b6000602082019050610aef6000830184610900565b92915050565b60006020820190508181036000830152610b0f818461093c565b905092915050565b60006020820190508181036000830152610b30816109ff565b9050919050565b60006020820190508181036000830152610b5081610a22565b9050919050565b6000602082019050610b6c6000830184610a45565b92915050565b6000819050602082019050919050565b60008190508160005260206000209050919050565b600081519050919050565b600081549050919050565b6000602082019050919050565b6000600182019050919050565b600082825260208201905092915050565b600081905092915050565b600082825260208201905092915050565b600073ffffffffffffffffffffffffffffffffffffffff82169050919050565b6000610c1f82610c38565b9050919050565b6000610c3182610c38565b9050919050565b600073ffffffffffffffffffffffffffffffffffffffff82169050919050565b6000819050919050565b6000610c6d82610c74565b9050919050565b6000610c7f82610c86565b9050919050565b6000610c9182610c38565b9050919050565b6000610cab610ca683610da7565b610bf4565b9050919050565b6000610cbd82610c58565b91507fffffffffffffffffffffffffffffffffffffffffffffffffffffffffffffffff821415610cf057610cef610d36565b5b600182019050919050565b6000819050919050565b6000610d1082610c58565b9150610d1b83610c58565b925082610d2b57610d2a610d65565b5b828206905092915050565b7f4e487b7100000000000000000000000000000000000000000000000000000000600052601160045260246000fd5b7f4e487b7100000000000000000000000000000000000000000000000000000000600052601260045260246000fd5b6000610da08254610c98565b9050919050565b60008160001c9050919050565b7f4f6e6c79206d616e616765722063616e20646f20746869730000000000000000600082015250565b7f446f65736e74206d65742074686520656e746572206665650000000000000000600082015250565b610e0f81610c14565b8114610e1a57600080fd5b50565b610e2681610c58565b8114610e3157600080fd5b5056fea2646970667358221220c7b3a3dcc767c7c588d54cb64b460a9c26c28f28729bafb43f0faca322d0ae1164736f6c63430008040033",
  "linkReferences": {},
  "deployedLinkReferences": {}
}